{
  "contractName": "InsuraceDistributor",
  "abi": [
    {
      "anonymous": false,
      "inputs": [
        {
          "indexed": true,
          "internalType": "address",
          "name": "previousOwner",
          "type": "address"
        },
        {
          "indexed": true,
          "internalType": "address",
          "name": "newOwner",
          "type": "address"
        }
      ],
      "name": "OwnershipTransferred",
      "type": "event"
    },
    {
      "stateMutability": "payable",
      "type": "fallback"
    },
    {
      "inputs": [
        {
          "internalType": "address",
          "name": "buyer",
          "type": "address"
        },
        {
          "internalType": "address",
          "name": "contractAddress",
          "type": "address"
        },
        {
          "internalType": "address",
          "name": "coverAsset",
          "type": "address"
        },
        {
          "internalType": "uint256",
          "name": "sumAssured",
          "type": "uint256"
        },
        {
          "internalType": "uint16",
          "name": "coverPeriod",
          "type": "uint16"
        },
        {
          "internalType": "uint8",
          "name": "coverType",
          "type": "uint8"
        },
        {
          "internalType": "uint256",
          "name": "maxPriceWithFee",
          "type": "uint256"
        },
        {
          "internalType": "bytes",
          "name": "data",
          "type": "bytes"
        }
      ],
      "name": "buyCover",
      "outputs": [],
      "stateMutability": "payable",
      "type": "function"
    },
    {
      "inputs": [
        {
          "components": [
            {
              "internalType": "uint16[]",
              "name": "products",
              "type": "uint16[]"
            },
            {
              "internalType": "uint16[]",
              "name": "durationInDays",
              "type": "uint16[]"
            },
            {
              "internalType": "uint256[]",
              "name": "amounts",
              "type": "uint256[]"
            },
            {
              "internalType": "address",
              "name": "currency",
              "type": "address"
            },
            {
              "internalType": "uint256",
              "name": "premium",
              "type": "uint256"
            },
            {
              "internalType": "address",
              "name": "owner",
              "type": "address"
            },
            {
              "internalType": "uint256",
              "name": "refCode",
              "type": "uint256"
            },
            {
              "internalType": "uint256[]",
              "name": "helperParameters",
              "type": "uint256[]"
            },
            {
              "internalType": "uint256[]",
              "name": "securityParameters",
              "type": "uint256[]"
            },
            {
              "internalType": "uint8[]",
              "name": "v",
              "type": "uint8[]"
            },
            {
              "internalType": "bytes32[]",
              "name": "r",
              "type": "bytes32[]"
            },
            {
              "internalType": "bytes32[]",
              "name": "s",
              "type": "bytes32[]"
            }
          ],
          "internalType": "struct IDistributor.BuyInsuraceQuote",
          "name": "quote",
          "type": "tuple"
        }
      ],
      "name": "buyCoverInsurace",
      "outputs": [],
      "stateMutability": "payable",
      "type": "function"
    },
    {
      "inputs": [],
      "name": "coverData",
      "outputs": [
        {
          "internalType": "contract ICoverData",
          "name": "",
          "type": "address"
        }
      ],
      "stateMutability": "view",
      "type": "function"
    },
    {
      "inputs": [
        {
          "internalType": "address",
          "name": "owner",
          "type": "address"
        },
        {
          "internalType": "address",
          "name": "currency",
          "type": "address"
        }
      ],
      "name": "getAllowance",
      "outputs": [
        {
          "internalType": "uint256",
          "name": "",
          "type": "uint256"
        }
      ],
      "stateMutability": "view",
      "type": "function"
    },
    {
      "inputs": [
        {
          "internalType": "address",
          "name": "_owner",
          "type": "address"
        },
        {
          "internalType": "uint256",
          "name": "_coverId",
          "type": "uint256"
        },
        {
          "internalType": "bool",
          "name": "_interfaceCompliant",
          "type": "bool"
        },
        {
          "internalType": "uint256",
          "name": "_loopLimit",
          "type": "uint256"
        }
      ],
      "name": "getCover",
      "outputs": [
        {
          "components": [
            {
              "internalType": "bytes32",
              "name": "coverType",
              "type": "bytes32"
            },
            {
              "internalType": "uint256",
              "name": "productId",
              "type": "uint256"
            },
            {
              "internalType": "bytes32",
              "name": "contractName",
              "type": "bytes32"
            },
            {
              "internalType": "uint256",
              "name": "coverAmount",
              "type": "uint256"
            },
            {
              "internalType": "uint256",
              "name": "premium",
              "type": "uint256"
            },
            {
              "internalType": "address",
              "name": "currency",
              "type": "address"
            },
            {
              "internalType": "address",
              "name": "contractAddress",
              "type": "address"
            },
            {
              "internalType": "uint256",
              "name": "expiration",
              "type": "uint256"
            },
            {
              "internalType": "uint256",
              "name": "status",
              "type": "uint256"
            },
            {
              "internalType": "address",
              "name": "refAddress",
              "type": "address"
            }
          ],
          "internalType": "struct IDistributor.Cover",
          "name": "cover",
          "type": "tuple"
        }
      ],
      "stateMutability": "view",
      "type": "function"
    },
    {
      "inputs": [
        {
          "internalType": "address",
          "name": "_owner",
          "type": "address"
        },
        {
          "internalType": "bool",
          "name": "_interfaceCompliant",
          "type": "bool"
        }
      ],
      "name": "getCoverCount",
      "outputs": [
        {
          "internalType": "uint256",
          "name": "",
          "type": "uint256"
        }
      ],
      "stateMutability": "view",
      "type": "function"
    },
    {
      "inputs": [
        {
          "internalType": "uint256",
          "name": "_sumAssured",
          "type": "uint256"
        },
        {
          "internalType": "uint256",
          "name": "_coverPeriod",
          "type": "uint256"
        },
        {
          "internalType": "address",
          "name": "_contractAddress",
          "type": "address"
        },
        {
          "internalType": "address",
          "name": "_coverAsset",
          "type": "address"
        },
        {
          "internalType": "address",
          "name": "_nexusCoverable",
          "type": "address"
        },
        {
          "internalType": "bytes",
          "name": "_data",
          "type": "bytes"
        }
      ],
      "name": "getQuote",
      "outputs": [
        {
          "components": [
            {
              "internalType": "uint256",
              "name": "prop1",
              "type": "uint256"
            },
            {
              "internalType": "uint256",
              "name": "prop2",
              "type": "uint256"
            },
            {
              "internalType": "uint256",
              "name": "prop3",
              "type": "uint256"
            },
            {
              "internalType": "uint256",
              "name": "prop4",
              "type": "uint256"
            },
            {
              "internalType": "uint256",
              "name": "prop5",
              "type": "uint256"
            },
            {
              "internalType": "uint256",
              "name": "prop6",
              "type": "uint256"
            },
            {
              "internalType": "uint256",
              "name": "prop7",
              "type": "uint256"
            }
          ],
          "internalType": "struct IDistributor.CoverQuote",
          "name": "",
          "type": "tuple"
        }
      ],
      "stateMutability": "view",
      "type": "function"
    },
    {
      "inputs": [
        {
          "internalType": "address",
          "name": "_insuraceRegistry",
          "type": "address"
        }
      ],
      "name": "initialize",
      "outputs": [],
      "stateMutability": "nonpayable",
      "type": "function"
    },
    {
      "inputs": [],
      "name": "masterCover",
      "outputs": [
        {
          "internalType": "contract ICover",
          "name": "",
          "type": "address"
        }
      ],
      "stateMutability": "view",
      "type": "function"
    },
    {
      "inputs": [],
      "name": "owner",
      "outputs": [
        {
          "internalType": "address",
          "name": "",
          "type": "address"
        }
      ],
      "stateMutability": "view",
      "type": "function"
    },
    {
      "inputs": [],
      "name": "product",
      "outputs": [
        {
          "internalType": "contract IProduct",
          "name": "",
          "type": "address"
        }
      ],
      "stateMutability": "view",
      "type": "function"
    },
    {
      "inputs": [],
      "name": "renounceOwnership",
      "outputs": [],
      "stateMutability": "nonpayable",
      "type": "function"
    },
    {
      "inputs": [
        {
          "internalType": "bytes4",
          "name": "interfaceId",
          "type": "bytes4"
        }
      ],
      "name": "supportsInterface",
      "outputs": [
        {
          "internalType": "bool",
          "name": "",
          "type": "bool"
        }
      ],
      "stateMutability": "view",
      "type": "function"
    },
    {
      "inputs": [
        {
          "internalType": "address",
          "name": "newOwner",
          "type": "address"
        }
      ],
      "name": "transferOwnership",
      "outputs": [],
      "stateMutability": "nonpayable",
      "type": "function"
    }
  ],
  "bytecode": "0x608060405234801561001057600080fd5b506123c9806100206000396000f3fe6080604052600436106100dd5760003560e01c8063ac496c7b1161007f578063bf9ce95211610059578063bf9ce9521461024f578063c4d66de814610264578063ddaa119614610284578063f2fde38b14610299576100dd565b8063ac496c7b146101d5578063b194270f14610202578063b1c36ebe14610222576100dd565b806348d83b9d116100bb57806348d83b9d14610176578063715018a6146101895780638da5cb5b1461019e578063a7ee6159146101c0576100dd565b806301ffc9a7146100fe5780630af4187d146101345780631a027b7314610161575b60405162461bcd60e51b81526004016100f590612177565b60405180910390fd5b34801561010a57600080fd5b5061011e610119366004611c47565b6102b9565b60405161012b9190612087565b60405180910390f35b34801561014057600080fd5b5061015461014f366004611a8f565b6102e9565b60405161012b9190612281565b61017461016f366004611ac7565b610371565b005b610174610184366004611c6f565b6103e6565b34801561019557600080fd5b5061017461093e565b3480156101aa57600080fd5b506101b36109fc565b60405161012b9190611f64565b3480156101cc57600080fd5b506101b3610a0b565b3480156101e157600080fd5b506101f56101f0366004611ba5565b610a1a565b60405161012b91906121f5565b34801561020e57600080fd5b5061015461021d366004611b78565b610d7b565b34801561022e57600080fd5b5061024261023d366004611e2b565b610daa565b60405161012b91906121a7565b34801561025b57600080fd5b506101b3610dca565b34801561027057600080fd5b5061017461027f366004611a57565b610dd9565b34801561029057600080fd5b506101b3610fd5565b3480156102a557600080fd5b506101746102b4366004611a57565b610fe4565b60006001600160e01b03198216600162c4537d60e01b031914806102e157506102e1826102b9565b90505b919050565b604051636eb1769f60e11b81526000906001600160a01b0383169063dd62ed3e9061031a9086903090600401611f78565b60206040518083038186803b15801561033257600080fd5b505afa158015610346573d6000803e3d6000fd5b505050506040513d601f19601f8201168201806040525081019061036a9190611e13565b9392505050565b600260655414156103c9576040805162461bcd60e51b815260206004820152601f60248201527f5265656e7472616e637947756172643a207265656e7472616e742063616c6c00604482015290519081900360640190fd5b600260655560405162461bcd60e51b81526100f590600401612148565b6002606554141561043e576040805162461bcd60e51b815260206004820152601f60248201527f5265656e7472616e637947756172643a207265656e7472616e742063616c6c00604482015290519081900360640190fd5b600260655560608101516001600160a01b031673eeeeeeeeeeeeeeeeeeeeeeeeeeeeeeeeeeeeeeee1461084e57806080015181606001516001600160a01b031663dd62ed3e33306040518363ffffffff1660e01b81526004016104a2929190611f78565b60206040518083038186803b1580156104ba57600080fd5b505afa1580156104ce573d6000803e3d6000fd5b505050506040513d601f19601f820116820180604052508101906104f29190611e13565b10156105105760405162461bcd60e51b81526004016100f5906120fb565b6105383330836080015184606001516001600160a01b03166110f9909392919063ffffffff16565b60808101516060820151609754604051636eb1769f60e11b81526001600160a01b039283169263dd62ed3e9261057692309290911690600401611f78565b60206040518083038186803b15801561058e57600080fd5b505afa1580156105a2573d6000803e3d6000fd5b505050506040513d601f19601f820116820180604052508101906105c69190611e13565b106105d05761077a565b6060810151609754604051636eb1769f60e11b81526000926001600160a01b039081169263dd62ed3e9261060a9230921690600401611f78565b60206040518083038186803b15801561062257600080fd5b505afa158015610636573d6000803e3d6000fd5b505050506040513d601f19601f8201168201806040525081019061065a9190611e13565b146106ec57606081015160975460405163095ea7b360e01b81526001600160a01b039283169263095ea7b39261069892911690600090600401611f92565b602060405180830381600087803b1580156106b257600080fd5b505af11580156106c6573d6000803e3d6000fd5b505050506040513d601f19601f820116820180604052508101906106ea9190611bec565b505b606081015160975460405163095ea7b360e01b81526001600160a01b039283169263095ea7b3926107269291169060001990600401611f92565b602060405180830381600087803b15801561074057600080fd5b505af1158015610754573d6000803e3d6000fd5b505050506040513d601f19601f820116820180604052508101906107789190611bec565b505b6097546080820151606083015161079f926001600160a01b0391821692911690611159565b60975481516020830151604080850151606086015160a087015160c0880151608089015160e08a01516101008b01516101208c01516101408d01516101608e01519951636ef596a760e11b81526001600160a01b03909d169c63ddeb2d4e9c6108179c909b909a999897969594939291600401611fab565b600060405180830381600087803b15801561083157600080fd5b505af1158015610845573d6000803e3d6000fd5b50505050610936565b60608101516001600160a01b031673eeeeeeeeeeeeeeeeeeeeeeeeeeeeeeeeeeeeeeee141561093657609760009054906101000a90046001600160a01b03166001600160a01b031663ddeb2d4e3483600001518460200151856040015186606001518760a001518860c0015189608001518a60e001518b61010001518c61012001518d61014001518e61016001516040518e63ffffffff1660e01b81526004016109039c9b9a99989796959493929190611fab565b6000604051808303818588803b15801561091c57600080fd5b505af1158015610930573d6000803e3d6000fd5b50505050505b506001606555565b6109466111b0565b6001600160a01b03166109576109fc565b6001600160a01b0316146109b2576040805162461bcd60e51b815260206004820181905260248201527f4f776e61626c653a2063616c6c6572206973206e6f7420746865206f776e6572604482015290519081900360640190fd5b6033546040516000916001600160a01b0316907f8be0079c531659141344cd1fd0a4f28419497f9722a3daafe3b4186f6b6457e0908390a3603380546001600160a01b0319169055565b6033546001600160a01b031690565b6097546001600160a01b031681565b610a22611819565b60985460405163e42dd11560e01b81526001600160a01b039091169063e42dd11590610a549088908890600401611f92565b60206040518083038186803b158015610a6c57600080fd5b505afa158015610a80573d6000803e3d6000fd5b505050506040513d601f19601f82011682018060405250810190610aa49190611e13565b60208201819052609954604051636813b53b60e01b815260009283926001600160a01b031691636813b53b91610adc91600401612281565b60a06040518083038186803b158015610af457600080fd5b505afa158015610b08573d6000803e3d6000fd5b505050506040513d601f19601f82011682018060405250810190610b2c9190611c08565b5050508085526040808601839052609854905163573eedcd60e11b81529294509092506001600160a01b03169063ae7ddb9a90610b6f908a908a90600401611f92565b60206040518083038186803b158015610b8757600080fd5b505afa158015610b9b573d6000803e3d6000fd5b505050506040513d601f19601f82011682018060405250810190610bbf9190611e13565b6060840152609854604051633255995760e21b81526001600160a01b039091169063c956655c90610bf6908a908a90600401611f92565b60206040518083038186803b158015610c0e57600080fd5b505afa158015610c22573d6000803e3d6000fd5b505050506040513d601f19601f82011682018060405250810190610c469190611a73565b6001600160a01b0390811660a0850152600060c08501819052610120850152609854604051627c1e9760e91b815291169063f83d2e0090610c8d908a908a90600401611f92565b60206040518083038186803b158015610ca557600080fd5b505afa158015610cb9573d6000803e3d6000fd5b505050506040513d601f19601f82011682018060405250810190610cdd9190611e13565b610100840152609854604051637c87d32560e11b81526001600160a01b039091169063f90fa64a90610d15908a908a90600401611f92565b60206040518083038186803b158015610d2d57600080fd5b505afa158015610d41573d6000803e3d6000fd5b505050506040513d601f19601f82011682018060405250810190610d659190611e13565b60e0840152505060006080820152949350505050565b609854604051620a3f6560e21b81526000916001600160a01b0316906228fd949061031a908690600401611f64565b610db261186d565b60405162461bcd60e51b81526004016100f590612092565b6099546001600160a01b031681565b600054610100900460ff1680610df25750610df26111b4565b80610e00575060005460ff16155b610e3b5760405162461bcd60e51b815260040180806020018281038252602e81526020018061233c602e913960400191505060405180910390fd5b600054610100900460ff16158015610e66576000805460ff1961ff0019909116610100171660011790555b610e6e6111c5565b610e76611277565b609780546001600160a01b0319166001600160a01b038481169190911791829055604080516339ea509d60e11b8152905192909116916373d4a13a916004808201926020929091908290030181600087803b158015610ed457600080fd5b505af1158015610ee8573d6000803e3d6000fd5b505050506040513d601f19601f82011682018060405250810190610f0c9190611a73565b609880546001600160a01b0319166001600160a01b0392831617905560975460408051635fce74a960e11b81529051919092169163bf9ce9529160048083019260209291908290030181600087803b158015610f6757600080fd5b505af1158015610f7b573d6000803e3d6000fd5b505050506040513d601f19601f82011682018060405250810190610f9f9190611a73565b609980546001600160a01b0319166001600160a01b03929092169190911790558015610fd1576000805461ff00191690555b5050565b6098546001600160a01b031681565b610fec6111b0565b6001600160a01b0316610ffd6109fc565b6001600160a01b031614611058576040805162461bcd60e51b815260206004820181905260248201527f4f776e61626c653a2063616c6c6572206973206e6f7420746865206f776e6572604482015290519081900360640190fd5b6001600160a01b03811661109d5760405162461bcd60e51b81526004018080602001828103825260268152602001806122f06026913960400191505060405180910390fd5b6033546040516001600160a01b038084169216907f8be0079c531659141344cd1fd0a4f28419497f9722a3daafe3b4186f6b6457e090600090a3603380546001600160a01b0319166001600160a01b0392909216919091179055565b604080516001600160a01b0380861660248301528416604482015260648082018490528251808303909101815260849091019091526020810180516001600160e01b03166323b872dd60e01b17905261115390859061130c565b50505050565b604080516001600160a01b038416602482015260448082018490528251808303909101815260649091019091526020810180516001600160e01b031663a9059cbb60e01b1790526111ab90849061130c565b505050565b3390565b60006111bf306113bd565b15905090565b600054610100900460ff16806111de57506111de6111b4565b806111ec575060005460ff16155b6112275760405162461bcd60e51b815260040180806020018281038252602e81526020018061233c602e913960400191505060405180910390fd5b600054610100900460ff16158015611252576000805460ff1961ff0019909116610100171660011790555b61125a6113c3565b611262611463565b8015611274576000805461ff00191690555b50565b600054610100900460ff168061129057506112906111b4565b8061129e575060005460ff16155b6112d95760405162461bcd60e51b815260040180806020018281038252602e81526020018061233c602e913960400191505060405180910390fd5b600054610100900460ff16158015611304576000805460ff1961ff0019909116610100171660011790555b61126261155c565b6060611361826040518060400160405280602081526020017f5361666545524332303a206c6f772d6c6576656c2063616c6c206661696c6564815250856001600160a01b03166116029092919063ffffffff16565b8051909150156111ab5780806020019051602081101561138057600080fd5b50516111ab5760405162461bcd60e51b815260040180806020018281038252602a81526020018061236a602a913960400191505060405180910390fd5b3b151590565b600054610100900460ff16806113dc57506113dc6111b4565b806113ea575060005460ff16155b6114255760405162461bcd60e51b815260040180806020018281038252602e81526020018061233c602e913960400191505060405180910390fd5b600054610100900460ff16158015611262576000805460ff1961ff0019909116610100171660011790558015611274576000805461ff001916905550565b600054610100900460ff168061147c575061147c6111b4565b8061148a575060005460ff16155b6114c55760405162461bcd60e51b815260040180806020018281038252602e81526020018061233c602e913960400191505060405180910390fd5b600054610100900460ff161580156114f0576000805460ff1961ff0019909116610100171660011790555b60006114fa6111b0565b603380546001600160a01b0319166001600160a01b038316908117909155604051919250906000907f8be0079c531659141344cd1fd0a4f28419497f9722a3daafe3b4186f6b6457e0908290a3508015611274576000805461ff001916905550565b600054610100900460ff168061157557506115756111b4565b80611583575060005460ff16155b6115be5760405162461bcd60e51b815260040180806020018281038252602e81526020018061233c602e913960400191505060405180910390fd5b600054610100900460ff161580156115e9576000805460ff1961ff0019909116610100171660011790555b60016065558015611274576000805461ff001916905550565b60606116118484600085611619565b949350505050565b60608247101561165a5760405162461bcd60e51b81526004018080602001828103825260268152602001806123166026913960400191505060405180910390fd5b611663856113bd565b6116b4576040805162461bcd60e51b815260206004820152601d60248201527f416464726573733a2063616c6c20746f206e6f6e2d636f6e7472616374000000604482015290519081900360640190fd5b60006060866001600160a01b031685876040518082805190602001908083835b602083106116f35780518252601f1990920191602091820191016116d4565b6001836020036101000a03801982511681845116808217855250505050505090500191505060006040518083038185875af1925050503d8060008114611755576040519150601f19603f3d011682016040523d82523d6000602084013e61175a565b606091505b509150915061176a828286611775565b979650505050505050565b6060831561178457508161036a565b8251156117945782518084602001fd5b8160405162461bcd60e51b81526004018080602001828103825283818151815260200191508051906020019080838360005b838110156117de5781810151838201526020016117c6565b50505050905090810190601f16801561180b5780820380516001836020036101000a031916815260200191505b509250505060405180910390fd5b6040805161014081018252600080825260208201819052918101829052606081018290526080810182905260a0810182905260c0810182905260e08101829052610100810182905261012081019190915290565b6040518060e00160405280600081526020016000815260200160008152602001600081526020016000815260200160008152602001600081525090565b80356102e4816122cc565b600082601f8301126118c5578081fd5b81356118d86118d3826122ae565b61228a565b8181529150602080830190848101818402860182018710156118f957600080fd5b60005b84811015611918578135845292820192908201906001016118fc565b505050505092915050565b600082601f830112611933578081fd5b81356119416118d3826122ae565b81815291506020808301908481018184028601820187101561196257600080fd5b60005b848110156119185761197682611a34565b84529282019290820190600101611965565b600082601f830112611998578081fd5b81356119a66118d3826122ae565b8181529150602080830190848101818402860182018710156119c757600080fd5b60005b84811015611918576119db82611a46565b845292820192908201906001016119ca565b60008083601f8401126119fe578182fd5b50813567ffffffffffffffff811115611a15578182fd5b602083019150836020828501011115611a2d57600080fd5b9250929050565b803561ffff811681146102e457600080fd5b803560ff811681146102e457600080fd5b600060208284031215611a68578081fd5b813561036a816122cc565b600060208284031215611a84578081fd5b815161036a816122cc565b60008060408385031215611aa1578081fd5b8235611aac816122cc565b91506020830135611abc816122cc565b809150509250929050565b60008060008060008060008060006101008a8c031215611ae5578485fd5b8935611af0816122cc565b985060208a0135611b00816122cc565b975060408a0135611b10816122cc565b965060608a01359550611b2560808b01611a34565b9450611b3360a08b01611a46565b935060c08a0135925060e08a013567ffffffffffffffff811115611b55578283fd5b611b618c828d016119ed565b915080935050809150509295985092959850929598565b60008060408385031215611b8a578081fd5b8235611b95816122cc565b91506020830135611abc816122e1565b60008060008060808587031215611bba578182fd5b8435611bc5816122cc565b9350602085013592506040850135611bdc816122e1565b9396929550929360600135925050565b600060208284031215611bfd578081fd5b815161036a816122e1565b600080600080600060a08688031215611c1f578283fd5b5050835160208501516040860151606087015160809097015192989197509594509092509050565b600060208284031215611c58578081fd5b81356001600160e01b03198116811461036a578182fd5b600060208284031215611c80578081fd5b813567ffffffffffffffff80821115611c97578283fd5b8184019150610180808387031215611cad578384fd5b611cb68161228a565b9050823582811115611cc6578485fd5b611cd287828601611923565b825250602083013582811115611ce6578485fd5b611cf287828601611923565b602083015250604083013582811115611d09578485fd5b611d15878286016118b5565b604083015250611d27606084016118aa565b606082015260808301356080820152611d4260a084016118aa565b60a082015260c083013560c082015260e083013582811115611d62578485fd5b611d6e878286016118b5565b60e0830152506101008084013583811115611d87578586fd5b611d93888287016118b5565b8284015250506101208084013583811115611dac578586fd5b611db888828701611988565b8284015250506101408084013583811115611dd1578586fd5b611ddd888287016118b5565b8284015250506101608084013583811115611df6578586fd5b611e02888287016118b5565b918301919091525095945050505050565b600060208284031215611e24578081fd5b5051919050565b600080600080600080600060c0888a031215611e45578081fd5b87359650602088013595506040880135611e5e816122cc565b94506060880135611e6e816122cc565b93506080880135611e7e816122cc565b925060a088013567ffffffffffffffff811115611e99578182fd5b611ea58a828b016119ed565b989b979a50959850939692959293505050565b6001600160a01b03169052565b6000815180845260208085019450808401835b83811015611ef457815187529582019590820190600101611ed8565b509495945050505050565b6000815180845260208085019450808401835b83811015611ef457815161ffff1687529582019590820190600101611f12565b6000815180845260208085019450808401835b83811015611ef457815160ff1687529582019590820190600101611f45565b6001600160a01b0391909116815260200190565b6001600160a01b0392831681529116602082015260400190565b6001600160a01b03929092168252602082015260400190565b60006101808252611fc061018083018f611eff565b8281036020840152611fd2818f611eff565b90508281036040840152611fe6818e611ec5565b9050611ff5606084018d611eb8565b612002608084018c611eb8565b8960a08401528860c084015282810360e08401526120208189611ec5565b90508281036101008401526120358188611ec5565b905082810361012084015261204a8187611f32565b905082810361014084015261205f8186611ec5565b90508281036101608401526120748185611ec5565b9f9e505050505050505050505050505050565b901515815260200190565b60208082526043908201527f556e737570706f72746564206d6574686f642c20497375726163652071756f7460408201527f65732061726520617661696c61626c65206174206170692e696e7375726163656060820152622e696f60e81b608082015260a00190565b6020808252602d908201527f4572726f72206f6e20425520436f6e7472616374202d204e656564207072656d60408201526c69756d20616c6c6f77616e636560981b606082015260800190565b6020808252601590820152742ab739bab83837b93a32b21037b832b930ba34b7b760591b604082015260600190565b6020808252601690820152754d6574686f6420646f6573206e6f742065786973742160501b604082015260600190565b600060e082019050825182526020830151602083015260408301516040830152606083015160608301526080830151608083015260a083015160a083015260c083015160c083015292915050565b600061014082019050825182526020830151602083015260408301516040830152606083015160608301526080830151608083015260a083015161223c60a0840182611eb8565b5060c083015161224f60c0840182611eb8565b5060e083015160e08301526101008084015181840152506101208084015161227982850182611eb8565b505092915050565b90815260200190565b60405181810167ffffffffffffffff811182821017156122a657fe5b604052919050565b600067ffffffffffffffff8211156122c257fe5b5060209081020190565b6001600160a01b038116811461127457600080fd5b801515811461127457600080fdfe4f776e61626c653a206e6577206f776e657220697320746865207a65726f2061646472657373416464726573733a20696e73756666696369656e742062616c616e636520666f722063616c6c496e697469616c697a61626c653a20636f6e747261637420697320616c726561647920696e697469616c697a65645361666545524332303a204552433230206f7065726174696f6e20646964206e6f742073756363656564a264697066735822122074a34fda410d6f68a573cff7df5c5025bbe771a8d07ff24c3994b8942d4770b364736f6c63430007040033",
  "immutableReferences": {},
  "source": "// SPDX-License-Identifier: GPL-3.0\npragma solidity 0.7.4;\npragma experimental ABIEncoderV2;\n\nimport \"@openzeppelin/contracts-upgradeable/proxy/Initializable.sol\";\nimport \"@openzeppelin/contracts-upgradeable/access/OwnableUpgradeable.sol\";\nimport \"@openzeppelin/contracts-upgradeable/utils/ReentrancyGuardUpgradeable.sol\";\nimport \"@openzeppelin/contracts-upgradeable/token/ERC20/IERC20Upgradeable.sol\";\nimport \"@openzeppelin/contracts-upgradeable/token/ERC20/SafeERC20Upgradeable.sol\";\n\n\nimport \"./interfaces/ICover.sol\";\nimport \"./interfaces/ICoverData.sol\";\nimport \"./interfaces/IProduct.sol\";\nimport \"./interfaces/IInsuraceDistributor.sol\";\nimport \"./interfaces/ICoverQuotation.sol\";\nimport \"../../IDistributor.sol\";\nimport \"../../dependencies/utils/Globals.sol\";\n\ncontract InsuraceDistributor is IDistributor,\n    Initializable,\n    OwnableUpgradeable,\n    ReentrancyGuardUpgradeable\n{\n    \n    using SafeERC20Upgradeable for IERC20Upgradeable;\n\n    ICover public masterCover;\n    ICoverData public coverData;\n    IProduct public product;\n\n\n    function initialize(\n        address _insuraceRegistry\n    ) public initializer {\n        __Ownable_init();\n        __ReentrancyGuard_init();\n        masterCover = ICover(_insuraceRegistry);\n        coverData = ICoverData(masterCover.data());\n        product = IProduct(masterCover.product()); \n    }\n    \n\n    function getCoverCount(address _owner, bool _interfaceCompliant) external view  override returns (uint256) {\n        return coverData.getCoverCount(_owner);\n    }\n    \n\n    function getCover(address _owner, uint256 _coverId, bool _interfaceCompliant, uint256 _loopLimit) external view override\n        returns(IDistributor.Cover memory cover){\n                cover.productId = coverData.getCoverProductId(_owner, _coverId);\n                (bytes32 _contractName, bytes32 _coverType, , , ) = product.getProductDetails(cover.productId);\n                cover.coverType = _coverType;\n                cover.contractName = _contractName;\n                cover.coverAmount = coverData.getCoverAmount(_owner, _coverId);\n                cover.currency = coverData.getCoverCurrency(_owner, _coverId);\n                cover.contractAddress = 0x0000000000000000000000000000000000000000;\n                cover.refAddress = 0x0000000000000000000000000000000000000000;\n                cover.status = coverData.getAdjustedCoverStatus( _owner, _coverId);\n                cover.expiration = coverData.getCoverEndTimestamp( _owner, _coverId);\n                cover.premium = 0;\n\n        return cover;\n    }\n\n    function getAllowance(address owner, address currency) public  view returns(uint256){\n        return IERC20Upgradeable(currency).allowance(owner,address(this));\n    }\n    \n    \n    function buyCoverInsurace(IDistributor.BuyInsuraceQuote memory quote) external override payable nonReentrant {\n        // check and receive the premium from this transaction\n        if (quote.currency != ETH){\n\n             require(IERC20Upgradeable(quote.currency).allowance(msg.sender,address(this)) >= quote.premium,\n                    \"Error on BU Contract - Need premium allowance\");\n                                    \n                         \n                // transfer erc20 funds to this contract\n                IERC20Upgradeable(quote.currency).safeTransferFrom(\n                        msg.sender,\n                        address(this),\n                        quote.premium\n                );\n            \n                // if not enough & not 0 then set to 0 \n                if(IERC20Upgradeable(quote.currency).allowance(address(this), address(masterCover)) >= quote.premium){\n                    \n                  \n                } else {\n                     if (IERC20Upgradeable(quote.currency).allowance(address(this), address(masterCover)) != uint256(0)) {\n                          IERC20Upgradeable(quote.currency).approve(address(masterCover), uint256(0));\n                    }\n                    // set to maxint\n                    IERC20Upgradeable(quote.currency).approve(address(masterCover), MAX_INT);\n                    \n                }\n                            \n                // transfer funds  to insurace contract\n                 IERC20Upgradeable(quote.currency).safeTransfer(\n                     address(masterCover),\n                     quote.premium\n                 );\n                \n                    \n                \n            \n             \n                masterCover.buyCover (\n                                      quote.products,\n                                      quote.durationInDays,\n                                      quote.amounts,\n                                      quote.currency,\n                                      quote.owner,\n                                      quote.refCode,\n                                      quote.premium,\n                                      quote.helperParameters,\n                                      quote.securityParameters,\n                                      quote.v,\n                                      quote.r,\n                                      quote.s\n                                  );\n        \n        }else if (quote.currency == ETH){\n\n        masterCover.buyCover {value: msg.value }\n                            (     quote.products,\n                                  quote.durationInDays,\n                                  quote.amounts,\n                                  quote.currency,\n                                  quote.owner,\n                                  quote.refCode,\n                                  quote.premium,\n                                  quote.helperParameters,\n                                  quote.securityParameters,\n                                  quote.v,\n                                  quote.r,\n                                  quote.s);\n        }                    \n    }\n    \n    function buyCover(\n        address buyer,\n        address contractAddress,\n        address coverAsset,\n        uint256 sumAssured,\n        uint16 coverPeriod,\n        uint8 coverType,\n        uint256 maxPriceWithFee,\n        bytes calldata data\n    ) external payable override nonReentrant{\n        revert(\"Unsupported operation\");\n    }\n    \n    function getQuote(\n        uint256 _sumAssured,\n        uint256 _coverPeriod,\n        address _contractAddress,\n        address _coverAsset,\n        address _nexusCoverable,\n        bytes calldata _data\n    )external view override returns(\n        IDistributor.CoverQuote memory\n    ){\n        revert('Unsupported method, Isurace quotes are available at api.insurace.io');\n    }\n\n    fallback() external payable {\n        revert('Method does not exist!');\n\n    }\n\n    function supportsInterface(bytes4 interfaceId) public view virtual override returns (bool) {\n         return interfaceId == type(IDistributor).interfaceId || supportsInterface(interfaceId);\n    }\n    \n}",
  "sourcePath": "/Users/danielguerrero/workspace/bright/distributors/contracts/distributors/insurace/InsuraceDistributor.sol",
  "compiler": {
    "name": "solc",
    "version": "0.7.4+commit.3f05b770.Emscripten.clang"
  },
  "schemaVersion": "3.3.4",
  "updatedAt": "2021-11-15T13:26:07.438Z",
  "networkType": "ethereum",
  "devdoc": {
    "kind": "dev",
    "methods": {
      "owner()": {
        "details": "Returns the address of the current owner."
      },
      "renounceOwnership()": {
        "details": "Leaves the contract without owner. It will not be possible to call `onlyOwner` functions anymore. Can only be called by the current owner. NOTE: Renouncing ownership will leave the contract without an owner, thereby removing any functionality that is only available to the owner."
      },
      "supportsInterface(bytes4)": {
        "details": "Returns true if this contract implements the interface defined by `interfaceId`. See the corresponding https://eips.ethereum.org/EIPS/eip-165#how-interfaces-are-identified[EIP section] to learn more about how these ids are created. This function call must use less than 30 000 gas."
      },
      "transferOwnership(address)": {
        "details": "Transfers ownership of the contract to a new account (`newOwner`). Can only be called by the current owner."
      }
    },
    "version": 1
  },
  "userdoc": {
    "kind": "user",
    "methods": {},
    "version": 1
  }
}