{
  "contractName": "NexusDistributor",
  "abi": [
    {
      "anonymous": false,
      "inputs": [
        {
          "indexed": true,
          "internalType": "address",
          "name": "owner",
          "type": "address"
        },
        {
          "indexed": true,
          "internalType": "address",
          "name": "approved",
          "type": "address"
        },
        {
          "indexed": true,
          "internalType": "uint256",
          "name": "tokenId",
          "type": "uint256"
        }
      ],
      "name": "Approval",
      "type": "event"
    },
    {
      "anonymous": false,
      "inputs": [
        {
          "indexed": true,
          "internalType": "address",
          "name": "owner",
          "type": "address"
        },
        {
          "indexed": true,
          "internalType": "address",
          "name": "operator",
          "type": "address"
        },
        {
          "indexed": false,
          "internalType": "bool",
          "name": "approved",
          "type": "bool"
        }
      ],
      "name": "ApprovalForAll",
      "type": "event"
    },
    {
      "anonymous": false,
      "inputs": [
        {
          "indexed": false,
          "internalType": "address",
          "name": "_productAddress",
          "type": "address"
        },
        {
          "indexed": false,
          "internalType": "uint256",
          "name": "_productId",
          "type": "uint256"
        },
        {
          "indexed": false,
          "internalType": "uint256",
          "name": "_period",
          "type": "uint256"
        },
        {
          "indexed": false,
          "internalType": "address",
          "name": "_asset",
          "type": "address"
        },
        {
          "indexed": false,
          "internalType": "uint256",
          "name": "_amount",
          "type": "uint256"
        },
        {
          "indexed": false,
          "internalType": "uint256",
          "name": "_price",
          "type": "uint256"
        }
      ],
      "name": "BuyCoverEvent",
      "type": "event"
    },
    {
      "anonymous": false,
      "inputs": [
        {
          "indexed": true,
          "internalType": "address",
          "name": "previousOwner",
          "type": "address"
        },
        {
          "indexed": true,
          "internalType": "address",
          "name": "newOwner",
          "type": "address"
        }
      ],
      "name": "OwnershipTransferred",
      "type": "event"
    },
    {
      "anonymous": false,
      "inputs": [
        {
          "indexed": true,
          "internalType": "address",
          "name": "from",
          "type": "address"
        },
        {
          "indexed": true,
          "internalType": "address",
          "name": "to",
          "type": "address"
        },
        {
          "indexed": true,
          "internalType": "uint256",
          "name": "tokenId",
          "type": "uint256"
        }
      ],
      "name": "Transfer",
      "type": "event"
    },
    {
      "inputs": [],
      "name": "DEFAULT_BASE_URI",
      "outputs": [
        {
          "internalType": "string",
          "name": "",
          "type": "string"
        }
      ],
      "stateMutability": "view",
      "type": "function"
    },
    {
      "inputs": [
        {
          "internalType": "address",
          "name": "to",
          "type": "address"
        },
        {
          "internalType": "uint256",
          "name": "tokenId",
          "type": "uint256"
        }
      ],
      "name": "approve",
      "outputs": [],
      "stateMutability": "nonpayable",
      "type": "function"
    },
    {
      "inputs": [
        {
          "internalType": "address",
          "name": "owner",
          "type": "address"
        }
      ],
      "name": "balanceOf",
      "outputs": [
        {
          "internalType": "uint256",
          "name": "",
          "type": "uint256"
        }
      ],
      "stateMutability": "view",
      "type": "function"
    },
    {
      "inputs": [],
      "name": "baseURI",
      "outputs": [
        {
          "internalType": "string",
          "name": "",
          "type": "string"
        }
      ],
      "stateMutability": "view",
      "type": "function"
    },
    {
      "inputs": [],
      "name": "buysAllowed",
      "outputs": [
        {
          "internalType": "bool",
          "name": "",
          "type": "bool"
        }
      ],
      "stateMutability": "view",
      "type": "function"
    },
    {
      "inputs": [],
      "name": "feePercentage",
      "outputs": [
        {
          "internalType": "uint256",
          "name": "",
          "type": "uint256"
        }
      ],
      "stateMutability": "view",
      "type": "function"
    },
    {
      "inputs": [],
      "name": "gateway",
      "outputs": [
        {
          "internalType": "contract IGateway",
          "name": "",
          "type": "address"
        }
      ],
      "stateMutability": "view",
      "type": "function"
    },
    {
      "inputs": [
        {
          "internalType": "uint256",
          "name": "tokenId",
          "type": "uint256"
        }
      ],
      "name": "getApproved",
      "outputs": [
        {
          "internalType": "address",
          "name": "",
          "type": "address"
        }
      ],
      "stateMutability": "view",
      "type": "function"
    },
    {
      "inputs": [
        {
          "internalType": "address",
          "name": "owner",
          "type": "address"
        },
        {
          "internalType": "address",
          "name": "operator",
          "type": "address"
        }
      ],
      "name": "isApprovedForAll",
      "outputs": [
        {
          "internalType": "bool",
          "name": "",
          "type": "bool"
        }
      ],
      "stateMutability": "view",
      "type": "function"
    },
    {
      "inputs": [],
      "name": "master",
      "outputs": [
        {
          "internalType": "contract INXMaster",
          "name": "",
          "type": "address"
        }
      ],
      "stateMutability": "view",
      "type": "function"
    },
    {
      "inputs": [],
      "name": "name",
      "outputs": [
        {
          "internalType": "string",
          "name": "",
          "type": "string"
        }
      ],
      "stateMutability": "view",
      "type": "function"
    },
    {
      "inputs": [],
      "name": "nexusCoverContract",
      "outputs": [
        {
          "internalType": "contract ICover",
          "name": "",
          "type": "address"
        }
      ],
      "stateMutability": "view",
      "type": "function"
    },
    {
      "inputs": [],
      "name": "nxmToken",
      "outputs": [
        {
          "internalType": "contract IERC20Upgradeable",
          "name": "",
          "type": "address"
        }
      ],
      "stateMutability": "view",
      "type": "function"
    },
    {
      "inputs": [],
      "name": "owner",
      "outputs": [
        {
          "internalType": "address",
          "name": "",
          "type": "address"
        }
      ],
      "stateMutability": "view",
      "type": "function"
    },
    {
      "inputs": [
        {
          "internalType": "uint256",
          "name": "tokenId",
          "type": "uint256"
        }
      ],
      "name": "ownerOf",
      "outputs": [
        {
          "internalType": "address",
          "name": "",
          "type": "address"
        }
      ],
      "stateMutability": "view",
      "type": "function"
    },
    {
      "inputs": [],
      "name": "renounceOwnership",
      "outputs": [],
      "stateMutability": "nonpayable",
      "type": "function"
    },
    {
      "inputs": [
        {
          "internalType": "address",
          "name": "from",
          "type": "address"
        },
        {
          "internalType": "address",
          "name": "to",
          "type": "address"
        },
        {
          "internalType": "uint256",
          "name": "tokenId",
          "type": "uint256"
        }
      ],
      "name": "safeTransferFrom",
      "outputs": [],
      "stateMutability": "nonpayable",
      "type": "function"
    },
    {
      "inputs": [
        {
          "internalType": "address",
          "name": "from",
          "type": "address"
        },
        {
          "internalType": "address",
          "name": "to",
          "type": "address"
        },
        {
          "internalType": "uint256",
          "name": "tokenId",
          "type": "uint256"
        },
        {
          "internalType": "bytes",
          "name": "_data",
          "type": "bytes"
        }
      ],
      "name": "safeTransferFrom",
      "outputs": [],
      "stateMutability": "nonpayable",
      "type": "function"
    },
    {
      "inputs": [
        {
          "internalType": "address",
          "name": "operator",
          "type": "address"
        },
        {
          "internalType": "bool",
          "name": "approved",
          "type": "bool"
        }
      ],
      "name": "setApprovalForAll",
      "outputs": [],
      "stateMutability": "nonpayable",
      "type": "function"
    },
    {
      "inputs": [
        {
          "internalType": "bytes4",
          "name": "interfaceId",
          "type": "bytes4"
        }
      ],
      "name": "supportsInterface",
      "outputs": [
        {
          "internalType": "bool",
          "name": "",
          "type": "bool"
        }
      ],
      "stateMutability": "view",
      "type": "function"
    },
    {
      "inputs": [],
      "name": "symbol",
      "outputs": [
        {
          "internalType": "string",
          "name": "",
          "type": "string"
        }
      ],
      "stateMutability": "view",
      "type": "function"
    },
    {
      "inputs": [
        {
          "internalType": "uint256",
          "name": "index",
          "type": "uint256"
        }
      ],
      "name": "tokenByIndex",
      "outputs": [
        {
          "internalType": "uint256",
          "name": "",
          "type": "uint256"
        }
      ],
      "stateMutability": "view",
      "type": "function"
    },
    {
      "inputs": [
        {
          "internalType": "address",
          "name": "owner",
          "type": "address"
        },
        {
          "internalType": "uint256",
          "name": "index",
          "type": "uint256"
        }
      ],
      "name": "tokenOfOwnerByIndex",
      "outputs": [
        {
          "internalType": "uint256",
          "name": "",
          "type": "uint256"
        }
      ],
      "stateMutability": "view",
      "type": "function"
    },
    {
      "inputs": [
        {
          "internalType": "uint256",
          "name": "tokenId",
          "type": "uint256"
        }
      ],
      "name": "tokenURI",
      "outputs": [
        {
          "internalType": "string",
          "name": "",
          "type": "string"
        }
      ],
      "stateMutability": "view",
      "type": "function"
    },
    {
      "inputs": [],
      "name": "totalSupply",
      "outputs": [
        {
          "internalType": "uint256",
          "name": "",
          "type": "uint256"
        }
      ],
      "stateMutability": "view",
      "type": "function"
    },
    {
      "inputs": [
        {
          "internalType": "address",
          "name": "from",
          "type": "address"
        },
        {
          "internalType": "address",
          "name": "to",
          "type": "address"
        },
        {
          "internalType": "uint256",
          "name": "tokenId",
          "type": "uint256"
        }
      ],
      "name": "transferFrom",
      "outputs": [],
      "stateMutability": "nonpayable",
      "type": "function"
    },
    {
      "inputs": [
        {
          "internalType": "address",
          "name": "newOwner",
          "type": "address"
        }
      ],
      "name": "transferOwnership",
      "outputs": [],
      "stateMutability": "nonpayable",
      "type": "function"
    },
    {
      "inputs": [],
      "name": "treasury",
      "outputs": [
        {
          "internalType": "address payable",
          "name": "",
          "type": "address"
        }
      ],
      "stateMutability": "view",
      "type": "function"
    },
    {
      "inputs": [],
      "name": "uniswapV2Adapter",
      "outputs": [
        {
          "internalType": "address",
          "name": "",
          "type": "address"
        }
      ],
      "stateMutability": "view",
      "type": "function"
    },
    {
      "inputs": [],
      "name": "uniswapV3Adapter",
      "outputs": [
        {
          "internalType": "address",
          "name": "",
          "type": "address"
        }
      ],
      "stateMutability": "view",
      "type": "function"
    },
    {
      "inputs": [],
      "name": "wEthToken",
      "outputs": [
        {
          "internalType": "contract IWETH",
          "name": "",
          "type": "address"
        }
      ],
      "stateMutability": "view",
      "type": "function"
    },
    {
      "inputs": [],
      "name": "wnxmToken",
      "outputs": [
        {
          "internalType": "contract IWNXMToken",
          "name": "",
          "type": "address"
        }
      ],
      "stateMutability": "view",
      "type": "function"
    },
    {
      "inputs": [
        {
          "internalType": "address",
          "name": "_nxmTokenAddress",
          "type": "address"
        },
        {
          "internalType": "address",
          "name": "_wnxmTokenAddress",
          "type": "address"
        },
        {
          "internalType": "address",
          "name": "_wETHAddress",
          "type": "address"
        },
        {
          "internalType": "address payable",
          "name": "_treasury",
          "type": "address"
        },
        {
          "internalType": "string",
          "name": "_tokenName",
          "type": "string"
        },
        {
          "internalType": "string",
          "name": "_tokenSymbol",
          "type": "string"
        },
        {
          "internalType": "address[]",
          "name": "_exchangeAdapters",
          "type": "address[]"
        },
        {
          "internalType": "address",
          "name": "_nexusCoverContract",
          "type": "address"
        }
      ],
      "name": "__NexusDistributor_init",
      "outputs": [],
      "stateMutability": "nonpayable",
      "type": "function"
    },
    {
      "inputs": [
        {
          "internalType": "address",
          "name": "_owner",
          "type": "address"
        },
        {
          "internalType": "bool",
          "name": "_isActive",
          "type": "bool"
        }
      ],
      "name": "getCoverCount",
      "outputs": [
        {
          "internalType": "uint256",
          "name": "",
          "type": "uint256"
        }
      ],
      "stateMutability": "view",
      "type": "function"
    },
    {
      "inputs": [
        {
          "internalType": "uint256",
          "name": "_sumAssured",
          "type": "uint256"
        },
        {
          "internalType": "uint256",
          "name": "_coverPeriod",
          "type": "uint256"
        },
        {
          "internalType": "address",
          "name": "_contractAddress",
          "type": "address"
        },
        {
          "internalType": "address",
          "name": "_coverAsset",
          "type": "address"
        },
        {
          "internalType": "address",
          "name": "_nexusCoverable",
          "type": "address"
        },
        {
          "internalType": "bytes",
          "name": "_data",
          "type": "bytes"
        }
      ],
      "name": "getQuote",
      "outputs": [
        {
          "components": [
            {
              "internalType": "uint256",
              "name": "prop1",
              "type": "uint256"
            },
            {
              "internalType": "uint256",
              "name": "prop2",
              "type": "uint256"
            },
            {
              "internalType": "uint256",
              "name": "prop3",
              "type": "uint256"
            },
            {
              "internalType": "uint256",
              "name": "prop4",
              "type": "uint256"
            },
            {
              "internalType": "uint256",
              "name": "prop5",
              "type": "uint256"
            },
            {
              "internalType": "uint256",
              "name": "prop6",
              "type": "uint256"
            },
            {
              "internalType": "uint256",
              "name": "prop7",
              "type": "uint256"
            }
          ],
          "internalType": "struct IDistributor.CoverQuote",
          "name": "",
          "type": "tuple"
        }
      ],
      "stateMutability": "pure",
      "type": "function"
    },
    {
      "inputs": [
        {
          "internalType": "address",
          "name": "_owner",
          "type": "address"
        },
        {
          "internalType": "uint256",
          "name": "_coverId",
          "type": "uint256"
        },
        {
          "internalType": "bool",
          "name": "_isActive",
          "type": "bool"
        },
        {
          "internalType": "uint256",
          "name": "_loopLimit",
          "type": "uint256"
        }
      ],
      "name": "getCover",
      "outputs": [
        {
          "components": [
            {
              "internalType": "bytes32",
              "name": "coverType",
              "type": "bytes32"
            },
            {
              "internalType": "uint256",
              "name": "productId",
              "type": "uint256"
            },
            {
              "internalType": "bytes32",
              "name": "contractName",
              "type": "bytes32"
            },
            {
              "internalType": "uint256",
              "name": "coverAmount",
              "type": "uint256"
            },
            {
              "internalType": "uint256",
              "name": "premium",
              "type": "uint256"
            },
            {
              "internalType": "address",
              "name": "currency",
              "type": "address"
            },
            {
              "internalType": "address",
              "name": "contractAddress",
              "type": "address"
            },
            {
              "internalType": "uint256",
              "name": "expiration",
              "type": "uint256"
            },
            {
              "internalType": "uint256",
              "name": "status",
              "type": "uint256"
            },
            {
              "internalType": "address",
              "name": "refAddress",
              "type": "address"
            }
          ],
          "internalType": "struct IDistributor.Cover",
          "name": "_cover",
          "type": "tuple"
        }
      ],
      "stateMutability": "view",
      "type": "function"
    },
    {
      "inputs": [
        {
          "components": [
            {
              "internalType": "uint256",
              "name": "coverId",
              "type": "uint256"
            },
            {
              "internalType": "address",
              "name": "owner",
              "type": "address"
            },
            {
              "internalType": "uint24",
              "name": "productId",
              "type": "uint24"
            },
            {
              "internalType": "uint8",
              "name": "coverAsset",
              "type": "uint8"
            },
            {
              "internalType": "uint96",
              "name": "amount",
              "type": "uint96"
            },
            {
              "internalType": "uint32",
              "name": "period",
              "type": "uint32"
            },
            {
              "internalType": "uint256",
              "name": "maxPremiumInAsset",
              "type": "uint256"
            },
            {
              "internalType": "uint8",
              "name": "paymentAsset",
              "type": "uint8"
            },
            {
              "internalType": "uint16",
              "name": "commissionRatio",
              "type": "uint16"
            },
            {
              "internalType": "address",
              "name": "commissionDestination",
              "type": "address"
            },
            {
              "internalType": "string",
              "name": "ipfsData",
              "type": "string"
            }
          ],
          "internalType": "struct BuyCoverParams",
          "name": "params",
          "type": "tuple"
        },
        {
          "components": [
            {
              "internalType": "uint40",
              "name": "poolId",
              "type": "uint40"
            },
            {
              "internalType": "bool",
              "name": "skip",
              "type": "bool"
            },
            {
              "internalType": "uint256",
              "name": "coverAmountInAsset",
              "type": "uint256"
            }
          ],
          "internalType": "struct PoolAllocationRequest[]",
          "name": "poolAllocationRequests",
          "type": "tuple[]"
        },
        {
          "internalType": "bytes",
          "name": "swapData",
          "type": "bytes"
        }
      ],
      "name": "buyCover",
      "outputs": [],
      "stateMutability": "payable",
      "type": "function"
    },
    {
      "inputs": [
        {
          "internalType": "uint256",
          "name": "tokenId",
          "type": "uint256"
        },
        {
          "internalType": "bytes",
          "name": "data",
          "type": "bytes"
        }
      ],
      "name": "submitClaim",
      "outputs": [
        {
          "internalType": "uint256",
          "name": "",
          "type": "uint256"
        }
      ],
      "stateMutability": "nonpayable",
      "type": "function"
    },
    {
      "inputs": [
        {
          "internalType": "address",
          "name": "recipient",
          "type": "address"
        },
        {
          "internalType": "uint256",
          "name": "amount",
          "type": "uint256"
        }
      ],
      "name": "withdrawNXM",
      "outputs": [],
      "stateMutability": "nonpayable",
      "type": "function"
    },
    {
      "inputs": [
        {
          "internalType": "address",
          "name": "newAddress",
          "type": "address"
        }
      ],
      "name": "switchMembership",
      "outputs": [],
      "stateMutability": "nonpayable",
      "type": "function"
    },
    {
      "inputs": [
        {
          "internalType": "address payable",
          "name": "_treasury",
          "type": "address"
        }
      ],
      "name": "setTreasuryDetails",
      "outputs": [],
      "stateMutability": "nonpayable",
      "type": "function"
    },
    {
      "inputs": [
        {
          "internalType": "address",
          "name": "_nexusCover",
          "type": "address"
        }
      ],
      "name": "setNexusCoverAddress",
      "outputs": [],
      "stateMutability": "nonpayable",
      "type": "function"
    }
  ],
  "bytecode": "0x608060405234801561001057600080fd5b506145c2806100206000396000f3fe6080604052600436106102515760003560e01c806395d89b4111610139578063bd3e3cfe116100b6578063e1a44fe31161007a578063e1a44fe314610688578063e967eb1a1461069d578063e985e9c5146106b2578063ee97f7f3146106d2578063f2fde38b146106e7578063fa9bf2471461070757610251565b8063bd3e3cfe146105f3578063c87b56dd14610613578063cc5e3e3c14610633578063db32749114610653578063e1817a8b1461067357610251565b8063ac496c7b116100fd578063ac496c7b14610544578063b194270f14610571578063b1c36ebe14610591578063b88d4fde146105be578063bd3a80cf146105de57610251565b806395d89b41146104c55780639f1cafa4146104da578063a001ecdd146104fa578063a22cb4651461050f578063a497325b1461052f57610251565b806342842e0e116101d257806361d027b31161019657806361d027b3146104315780636352211e146104465780636c0360eb1461046657806370a082311461047b578063715018a61461049b5780638da5cb5b146104b057610251565b806342842e0e1461039c578063461fd450146103bc5780634ed75d47146103dc5780634f6ccce7146103fc5780635011616f1461041c57610251565b8063116191b611610219578063116191b61461031057806318160ddd1461032557806323b872dd146103475780632f745c59146103675780633580b13b1461038757610251565b806301ffc9a71461025657806304e6ffe21461028c57806306fdde03146102a1578063081812fc146102c3578063095ea7b3146102f0575b600080fd5b34801561026257600080fd5b50610276610271366004613a8d565b61071c565b6040516102839190613f9d565b60405180910390f35b61029f61029a366004613ab5565b61073f565b005b3480156102ad57600080fd5b506102b6610d32565b6040516102839190613fa8565b3480156102cf57600080fd5b506102e36102de366004613c0f565b610dc8565b6040516102839190613e28565b3480156102fc57600080fd5b5061029f61030b366004613946565b610e2a565b34801561031c57600080fd5b506102e3610f00565b34801561033157600080fd5b5061033a610f0f565b604051610283919061421a565b34801561035357600080fd5b5061029f610362366004613870565b610f20565b34801561037357600080fd5b5061033a610382366004613946565b610f77565b34801561039357600080fd5b506102e3610fa2565b3480156103a857600080fd5b5061029f6103b7366004613870565b610fb1565b3480156103c857600080fd5b5061029f6103d7366004613793565b610fcc565b3480156103e857600080fd5b5061029f6103f736600461373f565b611181565b34801561040857600080fd5b5061033a610417366004613c0f565b6112d3565b34801561042857600080fd5b506102e36112e9565b34801561043d57600080fd5b506102e36112f9565b34801561045257600080fd5b506102e3610461366004613c0f565b61130d565b34801561047257600080fd5b506102b6611335565b34801561048757600080fd5b5061033a61049636600461373f565b611396565b3480156104a757600080fd5b5061029f6113fe565b3480156104bc57600080fd5b506102e36114aa565b3480156104d157600080fd5b506102b66114b9565b3480156104e657600080fd5b5061029f6104f5366004613946565b61151a565b34801561050657600080fd5b5061033a611600565b34801561051b57600080fd5b5061029f61052a366004613919565b611606565b34801561053b57600080fd5b506102b661170b565b34801561055057600080fd5b5061056461055f366004613971565b611727565b604051610283919061418e565b34801561057d57600080fd5b5061033a61058c366004613919565b611750565b34801561059d57600080fd5b506105b16105ac366004613c88565b61175b565b6040516102839190614140565b3480156105ca57600080fd5b5061029f6105d93660046138b0565b611763565b3480156105ea57600080fd5b506102e36117c1565b3480156105ff57600080fd5b5061029f61060e36600461373f565b6117d1565b34801561061f57600080fd5b506102b661062e366004613c0f565b61185b565b34801561063f57600080fd5b5061029f61064e36600461373f565b611ade565b34801561065f57600080fd5b5061033a61066e366004613c3f565b611b63565b34801561067f57600080fd5b50610276611c5e565b34801561069457600080fd5b506102e3611c67565b3480156106a957600080fd5b506102e3611c77565b3480156106be57600080fd5b506102766106cd36600461375b565b611c86565b3480156106de57600080fd5b506102e3611cb4565b3480156106f357600080fd5b5061029f61070236600461373f565b611cc4565b34801561071357600080fd5b506102e3611dc7565b6001600160e01b0319811660009081526033602052604090205460ff165b919050565b600260c9541415610797576040805162461bcd60e51b815260206004820152601f60248201527f5265656e7472616e637947756172643a207265656e7472616e742063616c6c00604482015290519081900360640190fd5b600260c955600080806107aa8585611dd7565b610101546040516370a0823160e01b815293965091945092506001600160a01b03169063de0e9a3e9082906370a08231906107e9903090600401613e28565b60206040518083038186803b15801561080157600080fd5b505afa158015610815573d6000803e3d6000fd5b505050506040513d601f19601f820116820180604052508101906108399190613c27565b6040518263ffffffff1660e01b8152600401610855919061421a565b600060405180830381600087803b15801561086f57600080fd5b505af1158015610883573d6000803e3d6000fd5b505060fe546101045460405163095ea7b360e01b81526001600160a01b03928316945063095ea7b393506108bf92909116908790600401613f84565b602060405180830381600087803b1580156108d957600080fd5b505af11580156108ed573d6000803e3d6000fd5b505050506040513d601f19601f820116820180604052508101906109119190613a71565b5061010454604051637b2bcb1960e11b81526000916001600160a01b03169063f657963290610946908b908b9060040161404d565b602060405180830381600087803b15801561096057600080fd5b505af1158015610974573d6000803e3d6000fd5b505050506040513d601f19601f820116820180604052508101906109989190613c27565b90506001600160a01b03831673eeeeeeeeeeeeeeeeeeeeeeeeeeeeeeeeeeeeeeee14801590610a4357506040516370a0823160e01b81526000906001600160a01b038516906370a08231906109f1903090600401613e28565b60206040518083038186803b158015610a0957600080fd5b505afa158015610a1d573d6000803e3d6000fd5b505050506040513d601f19601f82011682018060405250810190610a419190613c27565b115b15610b4b5760fc546040516370a0823160e01b81526001600160a01b038086169263a9059cbb926101009091049091169083906370a0823190610a8a903090600401613e28565b60206040518083038186803b158015610aa257600080fd5b505afa158015610ab6573d6000803e3d6000fd5b505050506040513d601f19601f82011682018060405250810190610ada9190613c27565b6040518363ffffffff1660e01b8152600401610af7929190613f84565b602060405180830381600087803b158015610b1157600080fd5b505af1158015610b25573d6000803e3d6000fd5b505050506040513d601f19601f82011682018060405250810190610b499190613a71565b505b60ff546040516370a0823160e01b81526000916001600160a01b0316906370a0823190610b7c903090600401613e28565b60206040518083038186803b158015610b9457600080fd5b505afa158015610ba8573d6000803e3d6000fd5b505050506040513d601f19601f82011682018060405250810190610bcc9190613c27565b1115610cd55760ff5460fc546040516370a0823160e01b81526001600160a01b039283169263a9059cbb926101009004169083906370a0823190610c14903090600401613e28565b60206040518083038186803b158015610c2c57600080fd5b505afa158015610c40573d6000803e3d6000fd5b505050506040513d601f19601f82011682018060405250810190610c649190613c27565b6040518363ffffffff1660e01b8152600401610c81929190613f84565b602060405180830381600087803b158015610c9b57600080fd5b505af1158015610caf573d6000803e3d6000fd5b505050506040513d601f19601f82011682018060405250810190610cd39190613a71565b505b7f433a1cca64980abdf7fbfeb96613e224508164597cbe65019932f0166be4a259600089604001518a60a00151868c6080015187604051610d1b96959493929190613e60565b60405180910390a15050600160c955505050505050565b606a8054604080516020601f6002600019610100600188161502019095169490940493840181900481028201810190925282815260609390929091830182828015610dbe5780601f10610d9357610100808354040283529160200191610dbe565b820191906000526020600020905b815481529060010190602001808311610da157829003601f168201915b5050505050905090565b6000610dd3826120b4565b610e0e5760405162461bcd60e51b815260040180806020018281038252602c815260200180614462602c913960400191505060405180910390fd5b506000908152606860205260409020546001600160a01b031690565b6000610e358261130d565b9050806001600160a01b0316836001600160a01b03161415610e885760405162461bcd60e51b81526004018080602001828103825260218152602001806145066021913960400191505060405180910390fd5b806001600160a01b0316610e9a6120c1565b6001600160a01b03161480610eb65750610eb6816106cd6120c1565b610ef15760405162461bcd60e51b81526004018080602001828103825260388152602001806143876038913960400191505060405180910390fd5b610efb83836120c5565b505050565b60fd546001600160a01b031681565b6000610f1b6066612133565b905090565b610f31610f2b6120c1565b8261213e565b610f6c5760405162461bcd60e51b815260040180806020018281038252603181526020018061455c6031913960400191505060405180910390fd5b610efb8383836121e2565b6001600160a01b0382166000908152606560205260408120610f99908361232e565b90505b92915050565b60ff546001600160a01b031681565b610efb83838360405180602001604052806000815250611763565b600054610100900460ff1680610fe55750610fe561233a565b80610ff3575060005460ff16155b61102e5760405162461bcd60e51b815260040180806020018281038252602e815260200180614412602e913960400191505060405180910390fd5b600054610100900460ff16158015611059576000805460ff1961ff0019909116610100171660011790555b61106161234b565b6110696123fd565b6110738686612492565b60fc8054610100600160a81b0319166101006001600160a01b038a8116919091029190911790915560fe80546001600160a01b03199081168d84161790915560ff805482168b84161790556101018054909116918b1691909117905583836000816110da57fe5b90506020020160208101906110ef919061373f565b61010280546001600160a01b0319166001600160a01b03929092169190911790558383600181811061111d57fe5b9050602002016020810190611132919061373f565b61010380546001600160a01b03199081166001600160a01b039384161790915561010480549091169184169190911790558015611175576000805461ff00191690555b50505050505050505050565b6111896120c1565b6001600160a01b031661119a6114aa565b6001600160a01b0316146111e3576040805162461bcd60e51b8152602060048201819052602482015260008051602061448e833981519152604482015290519081900360640190fd5b60fe5460fd5460405163095ea7b360e01b81526001600160a01b039283169263095ea7b39261121b9291169060001990600401613f84565b602060405180830381600087803b15801561123557600080fd5b505af1158015611249573d6000803e3d6000fd5b505050506040513d601f19601f8201168201806040525081019061126d9190613a71565b5060fd54604051634ed75d4760e01b81526001600160a01b0390911690634ed75d479061129e908490600401613e28565b600060405180830381600087803b1580156112b857600080fd5b505af11580156112cc573d6000803e3d6000fd5b5050505050565b6000806112e160668461254f565b509392505050565b610102546001600160a01b031681565b60fc5461010090046001600160a01b031681565b6000610f9c826040518060600160405280602981526020016143e9602991396066919061256d565b606d8054604080516020601f6002600019610100600188161502019095169490940493840181900481028201810190925282815260609390929091830182828015610dbe5780601f10610d9357610100808354040283529160200191610dbe565b60006001600160a01b0382166113dd5760405162461bcd60e51b815260040180806020018281038252602a8152602001806143bf602a913960400191505060405180910390fd5b6001600160a01b0382166000908152606560205260409020610f9c90612133565b6114066120c1565b6001600160a01b03166114176114aa565b6001600160a01b031614611460576040805162461bcd60e51b8152602060048201819052602482015260008051602061448e833981519152604482015290519081900360640190fd5b6097546040516000916001600160a01b0316907f8be0079c531659141344cd1fd0a4f28419497f9722a3daafe3b4186f6b6457e0908390a3609780546001600160a01b0319169055565b6097546001600160a01b031690565b606b8054604080516020601f6002600019610100600188161502019095169490940493840181900481028201810190925282815260609390929091830182828015610dbe5780601f10610d9357610100808354040283529160200191610dbe565b6115226120c1565b6001600160a01b03166115336114aa565b6001600160a01b03161461157c576040805162461bcd60e51b8152602060048201819052602482015260008051602061448e833981519152604482015290519081900360640190fd5b60fe5460405163a9059cbb60e01b81526001600160a01b039091169063a9059cbb906115ae9085908590600401613f84565b602060405180830381600087803b1580156115c857600080fd5b505af11580156115dc573d6000803e3d6000fd5b505050506040513d601f19601f82011682018060405250810190610efb9190613a71565b60fb5481565b61160e6120c1565b6001600160a01b0316826001600160a01b03161415611674576040805162461bcd60e51b815260206004820152601960248201527f4552433732313a20617070726f766520746f2063616c6c657200000000000000604482015290519081900360640190fd5b80606960006116816120c1565b6001600160a01b03908116825260208083019390935260409182016000908120918716808252919093529120805460ff1916921515929092179091556116c56120c1565b6001600160a01b03167f17307eab39ab6107e8899845ad3d59bd9653f200f220920489ca2b5937696c318360405180821515815260200191505060405180910390a35050565b6040518060600160405280603581526020016145276035913981565b61172f613315565b60405162461bcd60e51b815260040161174790613fbb565b60405180910390fd5b6000610f9983611396565b61172f613369565b61177461176e6120c1565b8361213e565b6117af5760405162461bcd60e51b815260040180806020018281038252603181526020018061455c6031913960400191505060405180910390fd5b6117bb84848484612584565b50505050565b610103546001600160a01b031681565b6117d96120c1565b6001600160a01b03166117ea6114aa565b6001600160a01b031614611833576040805162461bcd60e51b8152602060048201819052602482015260008051602061448e833981519152604482015290519081900360640190fd5b60fc80546001600160a01b0390921661010002610100600160a81b0319909216919091179055565b6060611866826120b4565b6118a15760405162461bcd60e51b815260040180806020018281038252602f8152602001806144d7602f913960400191505060405180910390fd5b6000828152606c602090815260409182902080548351601f60026000196101006001861615020190931692909204918201849004840281018401909452808452606093928301828280156119365780601f1061190b57610100808354040283529160200191611936565b820191906000526020600020905b81548152906001019060200180831161191957829003601f168201915b505050505090506060611947611335565b905080516000141561195b5750905061073a565b815115611a1c5780826040516020018083805190602001908083835b602083106119965780518252601f199092019160209182019101611977565b51815160209384036101000a600019018019909216911617905285519190930192850191508083835b602083106119de5780518252601f1990920191602091820191016119bf565b6001836020036101000a038019825116818451168082178552505050505050905001925050506040516020818303038152906040529250505061073a565b80611a26856125d6565b6040516020018083805190602001908083835b60208310611a585780518252601f199092019160209182019101611a39565b51815160209384036101000a600019018019909216911617905285519190930192850191508083835b60208310611aa05780518252601f199092019160209182019101611a81565b6001836020036101000a0380198251168184511680821785525050505050509050019250505060405160208183030381529060405292505050919050565b611ae66120c1565b6001600160a01b0316611af76114aa565b6001600160a01b031614611b40576040805162461bcd60e51b8152602060048201819052602482015260008051602061448e833981519152604482015290519081900360640190fd5b61010480546001600160a01b0319166001600160a01b0392909216919091179055565b600083611b71610f2b6120c1565b611b8d5760405162461bcd60e51b815260040161174790614006565b60fd5460405163db32749160e01b81526000916001600160a01b03169063db32749190611bc290899089908990600401614223565b602060405180830381600087803b158015611bdc57600080fd5b505af1158015611bf0573d6000803e3d6000fd5b505050506040513d601f19601f82011682018060405250810190611c149190613c27565b9050611c1e6120c1565b6001600160a01b031681877f9fe11e531030a058803617055e27f9f4768236e4322e13b9c4c09f4338e23a6860405160405180910390a495945050505050565b60fc5460ff1681565b610101546001600160a01b031681565b60fe546001600160a01b031681565b6001600160a01b03918216600090815260696020908152604080832093909416825291909152205460ff1690565b610100546001600160a01b031681565b611ccc6120c1565b6001600160a01b0316611cdd6114aa565b6001600160a01b031614611d26576040805162461bcd60e51b8152602060048201819052602482015260008051602061448e833981519152604482015290519081900360640190fd5b6001600160a01b038116611d6b5760405162461bcd60e51b81526004018080602001828103825260268152602001806143116026913960400191505060405180910390fd5b6097546040516001600160a01b038084169216907f8be0079c531659141344cd1fd0a4f28419497f9722a3daafe3b4186f6b6457e090600090a3609780546001600160a01b0319166001600160a01b0392909216919091179055565b610104546001600160a01b031681565b60008080606080808380808080611df08c8e018e6139b8565b975097509750975097509750975097506000604051806040016040528060028152602001612b1960f11b81525080519060200120878051906020012014611e4357610103546001600160a01b0316611e51565b610102546001600160a01b03165b90506001600160a01b03851673eeeeeeeeeeeeeeeeeeeeeeeeeeeeeeeeeeeeeeee1415611f865760ff60009054906101000a90046001600160a01b03166001600160a01b031663d0e30db0346040518263ffffffff1660e01b81526004016000604051808303818588803b158015611ec857600080fd5b505af1158015611edc573d6000803e3d6000fd5b505060ff5460405163095ea7b360e01b81526001600160a01b03909116935063095ea7b39250611f13915084908790600401613f84565b602060405180830381600087803b158015611f2d57600080fd5b505af1158015611f41573d6000803e3d6000fd5b505050506040513d601f19601f82011682018060405250810190611f659190613a71565b5060ff54611f819082906001600160a01b03168b87878d6126b0565b61209f565b846001600160a01b03166323b872dd611f9d6120c1565b30856040518463ffffffff1660e01b8152600401611fbd93929190613e3c565b602060405180830381600087803b158015611fd757600080fd5b505af1158015611feb573d6000803e3d6000fd5b505050506040513d601f19601f8201168201806040525081019061200f9190613a71565b5060405163095ea7b360e01b81526001600160a01b0386169063095ea7b39061203e9084908790600401613f84565b602060405180830381600087803b15801561205857600080fd5b505af115801561206c573d6000803e3d6000fd5b505050506040513d601f19601f820116820180604052508101906120909190613a71565b5061209f81868b87878d6126b0565b50939c929b5092995090975050505050505050565b6000610f9c606683612830565b3390565b600081815260686020526040902080546001600160a01b0319166001600160a01b03841690811790915581906120fa8261130d565b6001600160a01b03167f8c5be1e5ebec7d5bd14f71427d1e84f3dd0314c0f7b2291e5b200ac8c7c3b92560405160405180910390a45050565b6000610f9c8261283c565b6000612149826120b4565b6121845760405162461bcd60e51b815260040180806020018281038252602c81526020018061435b602c913960400191505060405180910390fd5b600061218f8361130d565b9050806001600160a01b0316846001600160a01b031614806121ca5750836001600160a01b03166121bf84610dc8565b6001600160a01b0316145b806121da57506121da8185611c86565b949350505050565b826001600160a01b03166121f58261130d565b6001600160a01b03161461223a5760405162461bcd60e51b81526004018080602001828103825260298152602001806144ae6029913960400191505060405180910390fd5b6001600160a01b03821661227f5760405162461bcd60e51b81526004018080602001828103825260248152602001806143376024913960400191505060405180910390fd5b61228a838383610efb565b6122956000826120c5565b6001600160a01b03831660009081526065602052604090206122b79082612840565b506001600160a01b03821660009081526065602052604090206122da908261284c565b506122e760668284612858565b5080826001600160a01b0316846001600160a01b03167fddf252ad1be2c89b69c2b068fc378daa952ba7f163c4a11628f55a4df523b3ef60405160405180910390a4505050565b6000610f99838361286e565b6000612345306128d2565b15905090565b600054610100900460ff1680612364575061236461233a565b80612372575060005460ff16155b6123ad5760405162461bcd60e51b815260040180806020018281038252602e815260200180614412602e913960400191505060405180910390fd5b600054610100900460ff161580156123d8576000805460ff1961ff0019909116610100171660011790555b6123e06128d8565b6123e8612978565b80156123fa576000805461ff00191690555b50565b600054610100900460ff1680612416575061241661233a565b80612424575060005460ff16155b61245f5760405162461bcd60e51b815260040180806020018281038252602e815260200180614412602e913960400191505060405180910390fd5b600054610100900460ff1615801561248a576000805460ff1961ff0019909116610100171660011790555b6123e8612a71565b600054610100900460ff16806124ab57506124ab61233a565b806124b9575060005460ff16155b6124f45760405162461bcd60e51b815260040180806020018281038252602e815260200180614412602e913960400191505060405180910390fd5b600054610100900460ff1615801561251f576000805460ff1961ff0019909116610100171660011790555b6125276128d8565b61252f612b17565b6125398383612bb4565b8015610efb576000805461ff0019169055505050565b600080808061255e8686612c99565b909450925050505b9250929050565b600061257a848484612d14565b90505b9392505050565b61258f8484846121e2565b61259b84848484612dde565b6117bb5760405162461bcd60e51b81526004018080602001828103825260328152602001806142df6032913960400191505060405180910390fd5b6060816125fb57506040805180820190915260018152600360fc1b602082015261073a565b8160005b811561261357600101600a820491506125ff565b6060816001600160401b038111801561262b57600080fd5b506040519080825280601f01601f191660200182016040528015612656576020820181803683370190505b50859350905060001982015b83156126a757600a840660300160f81b8282806001900393508151811061268557fe5b60200101906001600160f81b031916908160001a905350600a84049350612662565b50949350505050565b60006001600160a01b0316846000815181106126c857fe5b60200260200101516001600160a01b031614612774576101015460405163bae1a24960e01b81526001600160a01b038089169263bae1a2499261271c928a928a9291169030908a908a908a90600401613eea565b602060405180830381600087803b15801561273657600080fd5b505af115801561274a573d6000803e3d6000fd5b505050506040513d601f19601f8201168201806040525081019061276e9190613c27565b50612828565b856001600160a01b0316632fa6abe98661010160009054906101000a90046001600160a01b0316308787876000815181106127ab57fe5b60200260200101516040518763ffffffff1660e01b81526004016127d496959493929190613ead565b602060405180830381600087803b1580156127ee57600080fd5b505af1158015612802573d6000803e3d6000fd5b505050506040513d601f19601f820116820180604052508101906128269190613c27565b505b505050505050565b6000610f998383612f46565b5490565b6000610f998383612f5e565b6000610f998383613024565b600061257a84846001600160a01b03851661306e565b815460009082106128b05760405162461bcd60e51b81526004018080602001828103825260228152602001806142bd6022913960400191505060405180910390fd5b8260000182815481106128bf57fe5b9060005260206000200154905092915050565b3b151590565b600054610100900460ff16806128f157506128f161233a565b806128ff575060005460ff16155b61293a5760405162461bcd60e51b815260040180806020018281038252602e815260200180614412602e913960400191505060405180910390fd5b600054610100900460ff161580156123e8576000805460ff1961ff00199091166101001716600117905580156123fa576000805461ff001916905550565b600054610100900460ff1680612991575061299161233a565b8061299f575060005460ff16155b6129da5760405162461bcd60e51b815260040180806020018281038252602e815260200180614412602e913960400191505060405180910390fd5b600054610100900460ff16158015612a05576000805460ff1961ff0019909116610100171660011790555b6000612a0f6120c1565b609780546001600160a01b0319166001600160a01b038316908117909155604051919250906000907f8be0079c531659141344cd1fd0a4f28419497f9722a3daafe3b4186f6b6457e0908290a35080156123fa576000805461ff001916905550565b600054610100900460ff1680612a8a5750612a8a61233a565b80612a98575060005460ff16155b612ad35760405162461bcd60e51b815260040180806020018281038252602e815260200180614412602e913960400191505060405180910390fd5b600054610100900460ff16158015612afe576000805460ff1961ff0019909116610100171660011790555b600160c95580156123fa576000805461ff001916905550565b600054610100900460ff1680612b305750612b3061233a565b80612b3e575060005460ff16155b612b795760405162461bcd60e51b815260040180806020018281038252602e815260200180614412602e913960400191505060405180910390fd5b600054610100900460ff16158015612ba4576000805460ff1961ff0019909116610100171660011790555b6123e86301ffc9a760e01b613105565b600054610100900460ff1680612bcd5750612bcd61233a565b80612bdb575060005460ff16155b612c165760405162461bcd60e51b815260040180806020018281038252602e815260200180614412602e913960400191505060405180910390fd5b600054610100900460ff16158015612c41576000805460ff1961ff0019909116610100171660011790555b8251612c5490606a9060208601906133a6565b508151612c6890606b9060208501906133a6565b50612c796380ac58cd60e01b613105565b612c89635b5e139f60e01b613105565b61253963780e9d6360e01b613105565b815460009081908310612cdd5760405162461bcd60e51b81526004018080602001828103825260228152602001806144406022913960400191505060405180910390fd5b6000846000018481548110612cee57fe5b906000526020600020906002020190508060000154816001015492509250509250929050565b60008281526001840160205260408120548281612daf5760405162461bcd60e51b81526004018080602001828103825283818151815260200191508051906020019080838360005b83811015612d74578181015183820152602001612d5c565b50505050905090810190601f168015612da15780820380516001836020036101000a031916815260200191505b509250505060405180910390fd5b50846000016001820381548110612dc257fe5b9060005260206000209060020201600101549150509392505050565b6000612df2846001600160a01b03166128d2565b612dfe575060016121da565b6060612f0c630a85bd0160e11b612e136120c1565b88878760405160240180856001600160a01b03168152602001846001600160a01b0316815260200183815260200180602001828103825283818151815260200191508051906020019080838360005b83811015612e7a578181015183820152602001612e62565b50505050905090810190601f168015612ea75780820380516001836020036101000a031916815260200191505b5095505050505050604051602081830303815290604052906001600160e01b0319166020820180516001600160e01b0383818316178352505050506040518060600160405280603281526020016142df603291396001600160a01b0388169190613189565b90506000818060200190516020811015612f2557600080fd5b50516001600160e01b031916630a85bd0160e11b1492505050949350505050565b60009081526001919091016020526040902054151590565b6000818152600183016020526040812054801561301a5783546000198083019190810190600090879083908110612f9157fe5b9060005260206000200154905080876000018481548110612fae57fe5b600091825260208083209091019290925582815260018981019092526040902090840190558654879080612fde57fe5b60019003818190600052602060002001600090559055866001016000878152602001908152602001600020600090556001945050505050610f9c565b6000915050610f9c565b60006130308383612f46565b61306657508154600181810184556000848152602080822090930184905584548482528286019093526040902091909155610f9c565b506000610f9c565b6000828152600184016020526040812054806130d357505060408051808201825283815260208082018481528654600181810189556000898152848120955160029093029095019182559151908201558654868452818801909252929091205561257d565b828560000160018303815481106130e657fe5b906000526020600020906002020160010181905550600091505061257d565b6001600160e01b03198082161415613164576040805162461bcd60e51b815260206004820152601c60248201527f4552433136353a20696e76616c696420696e7465726661636520696400000000604482015290519081900360640190fd5b6001600160e01b0319166000908152603360205260409020805460ff19166001179055565b606061257a84846000858561319d856128d2565b6131ee576040805162461bcd60e51b815260206004820152601d60248201527f416464726573733a2063616c6c20746f206e6f6e2d636f6e7472616374000000604482015290519081900360640190fd5b60006060866001600160a01b031685876040518082805190602001908083835b6020831061322d5780518252601f19909201916020918201910161320e565b6001836020036101000a03801982511681845116808217855250505050505090500191505060006040518083038185875af1925050503d806000811461328f576040519150601f19603f3d011682016040523d82523d6000602084013e613294565b606091505b50915091506132a48282866132af565b979650505050505050565b606083156132be57508161257d565b8251156132ce5782518084602001fd5b60405162461bcd60e51b8152602060048201818152845160248401528451859391928392604401919085019080838360008315612d74578181015183820152602001612d5c565b6040805161014081018252600080825260208201819052918101829052606081018290526080810182905260a0810182905260c0810182905260e08101829052610100810182905261012081019190915290565b6040518060e00160405280600081526020016000815260200160008152602001600081526020016000815260200160008152602001600081525090565b828054600181600116156101000203166002900490600052602060002090601f0160209004810192826133dc5760008555613422565b82601f106133f557805160ff1916838001178555613422565b82800160010185558215613422579182015b82811115613422578251825591602001919060010190613407565b5061342e929150613432565b5090565b5b8082111561342e5760008155600101613433565b803561073a81614299565b60008083601f840112613463578182fd5b5081356001600160401b03811115613479578182fd5b602083019150836020808302850101111561256657600080fd5b600082601f8301126134a3578081fd5b81356134b66134b18261427c565b614259565b8181529150602080830190848101818402860182018710156134d757600080fd5b60005b848110156134ff5781356134ed81614299565b845292820192908201906001016134da565b505050505092915050565b600082601f83011261351a578081fd5b81356135286134b18261427c565b818152915060208083019084810160608085028701830188101561354b57600080fd5b60005b858110156135c85781838a03121561356557600080fd5b604080518381018181106001600160401b038211171561358157fe5b8252843564ffffffffff8116811461359857600080fd5b8152848601356135a7816142ae565b8187015284820135918101919091528552938301939181019160010161354e565b50505050505092915050565b600082601f8301126135e4578081fd5b81356135f26134b18261427c565b81815291506020808301908481018184028601820187101561361357600080fd5b60005b848110156134ff57613627826136f0565b84529282019290820190600101613616565b60008083601f84011261364a578182fd5b5081356001600160401b03811115613660578182fd5b60208301915083602082850101111561256657600080fd5b600082601f830112613688578081fd5b81356001600160401b0381111561369b57fe5b6136ae601f8201601f1916602001614259565b91508082528360208285010111156136c557600080fd5b8060208401602084013760009082016020015292915050565b803561ffff8116811461073a57600080fd5b803562ffffff8116811461073a57600080fd5b803563ffffffff8116811461073a57600080fd5b803560ff8116811461073a57600080fd5b80356001600160601b038116811461073a57600080fd5b600060208284031215613750578081fd5b813561257d81614299565b6000806040838503121561376d578081fd5b823561377881614299565b9150602083013561378881614299565b809150509250929050565b60008060008060008060008060006101008a8c0312156137b1578485fd5b6137ba8a613447565b98506137c860208b01613447565b97506137d660408b01613447565b96506137e460608b01613447565b955060808a01356001600160401b03808211156137ff578687fd5b61380b8d838e01613678565b965060a08c0135915080821115613820578586fd5b61382c8d838e01613678565b955060c08c0135915080821115613841578485fd5b5061384e8c828d01613452565b9094509250613861905060e08b01613447565b90509295985092959850929598565b600080600060608486031215613884578081fd5b833561388f81614299565b9250602084013561389f81614299565b929592945050506040919091013590565b600080600080608085870312156138c5578182fd5b84356138d081614299565b935060208501356138e081614299565b92506040850135915060608501356001600160401b03811115613901578182fd5b61390d87828801613678565b91505092959194509250565b6000806040838503121561392b578182fd5b823561393681614299565b91506020830135613788816142ae565b60008060408385031215613958578182fd5b823561396381614299565b946020939093013593505050565b60008060008060808587031215613986578182fd5b843561399181614299565b93506020850135925060408501356139a8816142ae565b9396929550929360600135925050565b600080600080600080600080610100898b0312156139d4578182fd5b88356001600160401b03808211156139ea578384fd5b6139f68c838d01613493565b995060208b0135915080821115613a0b578384fd5b613a178c838d016135d4565b985060408b0135915080821115613a2c578384fd5b50613a398b828c01613678565b96505060608901359450613a4f60808a01613447565b979a969950949793969560a0850135955060c08501359460e001359350915050565b600060208284031215613a82578081fd5b815161257d816142ae565b600060208284031215613a9e578081fd5b81356001600160e01b03198116811461257d578182fd5b60008060008060608587031215613aca578182fd5b84356001600160401b0380821115613ae0578384fd5b818701915061016080838a031215613af6578485fd5b613aff81614259565b905082358152613b1160208401613447565b6020820152613b22604084016136f0565b6040820152613b3360608401613717565b6060820152613b4460808401613728565b6080820152613b5560a08401613703565b60a082015260c083013560c0820152613b7060e08401613717565b60e0820152610100613b838185016136de565b90820152610120613b95848201613447565b908201526101408381013583811115613bac578687fd5b613bb88b828701613678565b828401525050809650506020870135915080821115613bd5578384fd5b613be18883890161350a565b94506040870135915080821115613bf6578384fd5b50613c0387828801613639565b95989497509550505050565b600060208284031215613c20578081fd5b5035919050565b600060208284031215613c38578081fd5b5051919050565b600080600060408486031215613c53578081fd5b8335925060208401356001600160401b03811115613c6f578182fd5b613c7b86828701613639565b9497909650939450505050565b600080600080600080600060c0888a031215613ca2578081fd5b87359650602088013595506040880135613cbb81614299565b94506060880135613ccb81614299565b93506080880135613cdb81614299565b925060a08801356001600160401b03811115613cf5578182fd5b613d018a828b01613639565b989b979a50959850939692959293505050565b6001600160a01b03169052565b6000815180845260208085019450808401835b83811015613d6f578151805164ffffffffff168852838101511515848901526040908101519088015260609096019590820190600101613d34565b509495945050505050565b6000815180845260208085019450808401835b83811015613d6f57815162ffffff1687529582019590820190600101613d8d565b60008151808452815b81811015613dd357602081850181015186830182015201613db7565b81811115613de45782602083870101525b50601f01601f19169290920160200192915050565b61ffff169052565b62ffffff169052565b63ffffffff169052565b60ff169052565b6001600160601b03169052565b6001600160a01b0391909116815260200190565b6001600160a01b039384168152919092166020820152604081019190915260600190565b6001600160a01b03968716815262ffffff95909516602086015263ffffffff939093166040850152931660608301526001600160601b03909216608082015260a081019190915260c00190565b6001600160a01b03968716815294861660208601529290941660408401526060830152608082019290925262ffffff90911660a082015260c00190565b6001600160a01b03888116825260e0602080840182905289519184018290526000928a820192909190610100860190855b81811015613f39578551851683529483019491830191600101613f1b565b5050613f48604087018c613d14565b613f55606087018b613d14565b8860808701528760a087015285810360c0870152613f738188613d7a565b9d9c50505050505050505050505050565b6001600160a01b03929092168252602082015260400190565b901515815260200190565b600060208252610f996020830184613dae565b6020808252602b908201527f556e737570706f72746564206d6574686f642c206d7573742062652063616c6c60408201526a32b21037b33331b430b4b760a91b606082015260800190565b60208082526027908201527f4e657875734469737472696275746f723a204e6f7420617070726f766564206f604082015266391037bbb732b960c91b606082015260800190565b60006040825283516040830152602084015161406c6060840182613d14565b50604084015161407f6080840182613e01565b50606084015161409260a0840182613e14565b5060808401516140a560c0840182613e1b565b5060a08401516140b860e0840182613e0a565b5060c0840151610100818185015260e086015191506101206140dc81860184613e14565b908601519150610140906140f285830184613df9565b860151915061016061410685820184613d14565b8187015192508061018086015250506141236101a0840182613dae565b905082810360208401526141378185613d21565b95945050505050565b600060e082019050825182526020830151602083015260408301516040830152606083015160608301526080830151608083015260a083015160a083015260c083015160c083015292915050565b600061014082019050825182526020830151602083015260408301516040830152606083015160608301526080830151608083015260a08301516141d560a0840182613d14565b5060c08301516141e860c0840182613d14565b5060e083015160e08301526101008084015181840152506101208084015161421282850182613d14565b505092915050565b90815260200190565b60008482526040602083015282604083015282846060840137818301606090810191909152601f909201601f1916010192915050565b6040518181016001600160401b038111828210171561427457fe5b604052919050565b60006001600160401b0382111561428f57fe5b5060209081020190565b6001600160a01b03811681146123fa57600080fd5b80151581146123fa57600080fdfe456e756d657261626c655365743a20696e646578206f7574206f6620626f756e64734552433732313a207472616e7366657220746f206e6f6e20455243373231526563656976657220696d706c656d656e7465724f776e61626c653a206e6577206f776e657220697320746865207a65726f20616464726573734552433732313a207472616e7366657220746f20746865207a65726f20616464726573734552433732313a206f70657261746f7220717565727920666f72206e6f6e6578697374656e7420746f6b656e4552433732313a20617070726f76652063616c6c6572206973206e6f74206f776e6572206e6f7220617070726f76656420666f7220616c6c4552433732313a2062616c616e636520717565727920666f7220746865207a65726f20616464726573734552433732313a206f776e657220717565727920666f72206e6f6e6578697374656e7420746f6b656e496e697469616c697a61626c653a20636f6e747261637420697320616c726561647920696e697469616c697a6564456e756d657261626c654d61703a20696e646578206f7574206f6620626f756e64734552433732313a20617070726f76656420717565727920666f72206e6f6e6578697374656e7420746f6b656e4f776e61626c653a2063616c6c6572206973206e6f7420746865206f776e65724552433732313a207472616e73666572206f6620746f6b656e2074686174206973206e6f74206f776e4552433732314d657461646174613a2055524920717565727920666f72206e6f6e6578697374656e7420746f6b656e4552433732313a20617070726f76616c20746f2063757272656e74206f776e657268747470733a2f2f627269676874756e696f6e2e696f2f646f63756d656e74732f6e6674732f6e657875732f636f7665722e706e674552433732313a207472616e736665722063616c6c6572206973206e6f74206f776e6572206e6f7220617070726f766564a2646970667358221220778fcecb56bc5b42cab185056c6b8e2ce73aa7e8cf9fe384884de8ac66ea9eed64736f6c63430007040033",
  "immutableReferences": {},
  "source": "/* Copyright (C) 2023 BrightUnion.io\n\n  This program is free software: you can redistribute it and/or modify\n    it under the terms of the GNU General Public License as published by\n    the Free Software Foundation, either version 3 of the License, or\n    (at your option) any later version.\n\n  This program is distributed in the hope that it will be useful,\n    but WITHOUT ANY WARRANTY; without even the implied warranty of\n    MERCHANTABILITY or FITNESS FOR A PARTICULAR PURPOSE.  See the\n    GNU General Public License for more details.\n\n  You should have received a copy of the GNU General Public License\n    along with this program.  If not, see http://www.gnu.org/licenses/ */\n\npragma solidity ^0.7.4;\npragma experimental ABIEncoderV2;\n\nimport \"@openzeppelin/contracts-upgradeable/token/ERC721/ERC721Upgradeable.sol\";\nimport \"@openzeppelin/contracts-upgradeable/access/OwnableUpgradeable.sol\";\n\nimport \"@openzeppelin/contracts-upgradeable/token/ERC20/IERC20Upgradeable.sol\";\nimport \"@openzeppelin/contracts-upgradeable/token/ERC20/SafeERC20Upgradeable.sol\";\n\nimport \"@openzeppelin/contracts/token/ERC20/IERC20.sol\";\n\nimport \"@openzeppelin/contracts-upgradeable/utils/ReentrancyGuardUpgradeable.sol\";\nimport \"@openzeppelin/contracts-upgradeable/math/SafeMathUpgradeable.sol\";\n\nimport \"@openzeppelin/contracts/math/Math.sol\";\nimport \"./interfaces/IGateway.sol\";\nimport \"./interfaces/INXMaster.sol\";\nimport \"./interfaces/IQuotation.sol\";\nimport \"../../IDistributor.sol\";\nimport \"./interfaces/IQuotationData.sol\";\nimport \"../AbstractDistributor.sol\";\nimport \"./interfaces/IWNXMToken.sol\";\nimport \"./utils/NexusHelper.sol\";\nimport \"../../helpers/interfaces/IExchangeAdapter.sol\";\nimport \"../../dependencies/token/IWETH.sol\";\nimport \"./interfaces/ICover.sol\";\n\ncontract NexusDistributor is\n    AbstractDistributor,\n    IDistributor,\n    ERC721Upgradeable,\n    OwnableUpgradeable,\n    ReentrancyGuardUpgradeable\n{\n    using SafeMathUpgradeable for uint256;\n    using Math for uint256;\n\n    // @dev DEPRECATED\n    string public constant DEFAULT_BASE_URI =\n        \"https://brightunion.io/documents/nfts/nexus/cover.png\";\n    // @dev DEPRECATED\n    uint256 public feePercentage;\n    // @dev DEPRECATED\n    bool public buysAllowed;\n    address payable public treasury;\n    // @dev DEPRECATED\n    IGateway public gateway;\n    IERC20Upgradeable public nxmToken;\n    IWETH public wEthToken;\n    // @dev DEPRECATED\n    INXMaster public master;\n    IWNXMToken public wnxmToken;\n    address public uniswapV2Adapter;\n    address public uniswapV3Adapter;\n    ICover public nexusCoverContract;\n\n    modifier onlyTokenApprovedOrOwner(uint256 tokenId) {\n        require(\n            _isApprovedOrOwner(_msgSender(), tokenId),\n            \"NexusDistributor: Not approved or owner\"\n        );\n        _;\n    }\n\n    /**\n     * @dev Standard pattern of constructing proxy contracts with the same signature as the constructor.\n     */\n    function __NexusDistributor_init(\n        address _nxmTokenAddress,\n        address _wnxmTokenAddress,\n        address _wETHAddress,\n        address payable _treasury,\n        string memory _tokenName,                   // DEPRECATED\n        string memory _tokenSymbol,                 // DEPRECATED\n        address[] calldata _exchangeAdapters,\n        address _nexusCoverContract\n    ) public initializer {\n        __Ownable_init();\n        __ReentrancyGuard_init();\n        __ERC721_init(_tokenName, _tokenSymbol);\n\n        treasury = _treasury;\n        nxmToken = IERC20Upgradeable(_nxmTokenAddress);\n        wEthToken = IWETH(_wETHAddress);\n        wnxmToken = IWNXMToken(_wnxmTokenAddress);\n        uniswapV2Adapter = _exchangeAdapters[0];\n        uniswapV3Adapter = _exchangeAdapters[1];\n        nexusCoverContract = ICover(_nexusCoverContract);\n        // DEPRECATED\n        /*_setBaseURI(DEFAULT_BASE_URI);\n        gateway = IGateway(_gatewayAddress);\n        master = INXMaster(_masterAddress);*/\n    }\n\n    function getCoverCount(address _owner, bool _isActive)\n        external\n        view\n        override\n        returns (uint256)\n    {\n        return balanceOf(_owner);\n    }\n\n    function getQuote(\n        uint256 _sumAssured,\n        uint256 _coverPeriod,\n        address _contractAddress,\n        address _coverAsset,\n        address _nexusCoverable,\n        bytes calldata _data\n    ) external pure override returns (IDistributor.CoverQuote memory) {\n        revert(\"Unsupported method, must be called offchain\");\n    }\n\n    function getCover(\n        address _owner, //not used\n        uint256 _coverId,\n        bool _isActive, //not used\n        uint256 _loopLimit //not used\n    ) external view override returns (IDistributor.Cover memory _cover) {\n        revert(\"Unsupported method, must be called offchain\");\n    }\n\n    function buyCover(\n        BuyCoverParams memory params,\n        PoolAllocationRequest[] memory poolAllocationRequests,\n        bytes calldata swapData\n    ) external payable nonReentrant {\n        (uint256 coverPriceNXM, address assetIn, uint256 maxPriceWithFee) = _buyWNXM(swapData);\n\n        wnxmToken.unwrap(wnxmToken.balanceOf(address(this)));\n        nxmToken.approve(address(nexusCoverContract), coverPriceNXM);\n        uint coverId = nexusCoverContract.buyCover(params, poolAllocationRequests);\n\n        if (\n            assetIn != ETH && IERC20(assetIn).balanceOf(address(this)) > 0\n        ) {\n            IERC20(assetIn).transfer(\n                address(treasury),\n                IERC20(assetIn).balanceOf(address(this))\n            );\n        }\n        if (wEthToken.balanceOf(address(this)) > 0) {\n            wEthToken.transfer(\n                address(treasury),\n                wEthToken.balanceOf(address(this))\n            );\n        }\n\n        emit BuyCoverEvent(\n            address(0),\n            params.productId,\n            params.period,\n            assetIn,\n            params.amount,\n            maxPriceWithFee\n        );\n    }\n\n    function _buyWNXM(\n        bytes calldata data\n    ) internal returns (uint256, address, uint256) {\n        (\n            address[] memory path,\n            uint24[] memory poolFees,\n            string memory exchangeVersion,\n            uint256 priceInNXM,\n            address asset,\n            uint256 amountOut,\n            uint256 maxInForSwap,\n            uint256 priceWithFee\n        ) = abi.decode(data, (address[], uint24[], string, uint256, address, uint256, uint256, uint256));\n\n        address exchangeAddress = keccak256(bytes(exchangeVersion)) ==\n            keccak256(bytes(\"V2\"))\n            ? uniswapV2Adapter\n            : uniswapV3Adapter;\n\n        if (asset == ETH) {\n            // Wrap ETH into WETH\n            wEthToken.deposit{value: msg.value}();\n            wEthToken.approve(exchangeAddress, maxInForSwap);\n            _swapTokenForWNXM(\n                exchangeAddress,\n                address(wEthToken),\n                path,\n                amountOut,\n                maxInForSwap,\n                poolFees\n            );\n        } else {\n            IERC20(asset).transferFrom(\n                _msgSender(),\n                address(this),\n                priceWithFee\n            );\n            IERC20(asset).approve(\n                address(exchangeAddress),\n                maxInForSwap\n            );\n            _swapTokenForWNXM(\n                exchangeAddress,\n                asset,\n                path,\n                amountOut,\n                maxInForSwap,\n                poolFees\n            );\n        }\n\n        return (priceInNXM, asset, priceWithFee);\n    }\n\n    // @notice Define Dex swap method to use\n    // @dev If path of intermediary tokens array is > 0, it will call multihop on dex v2 or v3\n    // @dev The array of fees will be passed as it is & either be used for v3 or ignored on v2\n    // @param exchangeAddress Uniswap dex address, defined on caller method, either v2 or v3\n    // @param tokenIn Asset address used to buy wNXM\n    // @param path Array of intermediary tokens to compleete the swap\n    // @param expectedAmountOut amount expected out from swap\n    // @param amountInMaximum max amount to be used for swap\n    // @param poolFees Array of fees from intermediary token pools if any\n    function _swapTokenForWNXM(\n        address exchangeAddress,\n        address tokenIn,\n        address[] memory path,\n        uint256 expectedAmountOut,\n        uint256 amountInMaximum,\n        uint24[] memory poolFees\n    ) internal {\n        if (path[0] != address(0)) {\n            IExchangeAdapter(exchangeAddress).exactOutput(\n                address(tokenIn),\n                path,\n                address(wnxmToken),\n                address(this),\n                expectedAmountOut, // Expected wNXM out froim SDK\n                amountInMaximum,\n                poolFees\n            );\n        } else {\n            IExchangeAdapter(exchangeAddress).exactOutputSingle(\n                address(tokenIn),\n                address(wnxmToken),\n                address(this),\n                expectedAmountOut, // Expected wNXM out froim SDK\n                amountInMaximum,\n                poolFees[0]\n            );\n        }\n    }\n\n    // @notice Submit a claim for the cover\n    // @dev Nexus V1 required\n    // @param tokenId cover token id\n    // @param data abi-encoded field with additional claim data fields\n    function submitClaim(uint256 tokenId, bytes calldata data)\n        external\n        onlyTokenApprovedOrOwner(tokenId)\n        returns (uint256)\n    {\n        // coverId = tokenId\n        uint256 claimId = gateway.submitClaim(tokenId, data);\n        emit NexusHelper.ClaimSubmitted(tokenId, claimId, _msgSender());\n        return claimId;\n    }\n\n    /**\n     * @notice Moves `amount` tokens from the distributor to `recipient`.\n     * @param recipient recipient of NXM\n     * @param amount amount of NXM\n     */\n    function withdrawNXM(address recipient, uint256 amount) public onlyOwner {\n        nxmToken.transfer(recipient, amount);\n    }\n\n    // @notice Switch NexusMutual membership to `newAddress`.\n    // @param newAddress address\n    function switchMembership(address newAddress) external onlyOwner {\n        nxmToken.approve(address(gateway), uint256(-1));\n        gateway.switchMembership(newAddress);\n    }\n\n    // @notice Set treasury address where `buyCover` distributor fees and `ethOut` from `sellNXM` are sent.\n    // @param _treasury new treasury address\n    function setTreasuryDetails(address payable _treasury) external onlyOwner {\n        treasury = _treasury;\n    }\n\n    function setNexusCoverAddress(address _nexusCover) external onlyOwner {\n        nexusCoverContract = ICover(_nexusCover);\n    }\n\n}\n",
  "sourcePath": "/Users/kirilivanov/DEV/BrightUnion/distributors/contracts/distributors/nexus/NexusDistributor.sol",
  "compiler": {
    "name": "solc",
    "version": "0.7.4+commit.3f05b770.Emscripten.clang"
  },
  "schemaVersion": "3.4.3",
  "updatedAt": "2023-03-21T15:51:19.067Z",
  "devdoc": {
    "kind": "dev",
    "methods": {
      "__NexusDistributor_init(address,address,address,address,string,string,address[],address)": {
        "details": "Standard pattern of constructing proxy contracts with the same signature as the constructor."
      },
      "approve(address,uint256)": {
        "details": "See {IERC721-approve}."
      },
      "balanceOf(address)": {
        "details": "See {IERC721-balanceOf}."
      },
      "baseURI()": {
        "details": "Returns the base URI set via {_setBaseURI}. This will be automatically added as a prefix in {tokenURI} to each token's URI, or to the token ID if no specific URI is set for that token ID."
      },
      "getApproved(uint256)": {
        "details": "See {IERC721-getApproved}."
      },
      "isApprovedForAll(address,address)": {
        "details": "See {IERC721-isApprovedForAll}."
      },
      "name()": {
        "details": "See {IERC721Metadata-name}."
      },
      "owner()": {
        "details": "Returns the address of the current owner."
      },
      "ownerOf(uint256)": {
        "details": "See {IERC721-ownerOf}."
      },
      "renounceOwnership()": {
        "details": "Leaves the contract without owner. It will not be possible to call `onlyOwner` functions anymore. Can only be called by the current owner. NOTE: Renouncing ownership will leave the contract without an owner, thereby removing any functionality that is only available to the owner."
      },
      "safeTransferFrom(address,address,uint256)": {
        "details": "See {IERC721-safeTransferFrom}."
      },
      "safeTransferFrom(address,address,uint256,bytes)": {
        "details": "See {IERC721-safeTransferFrom}."
      },
      "setApprovalForAll(address,bool)": {
        "details": "See {IERC721-setApprovalForAll}."
      },
      "supportsInterface(bytes4)": {
        "details": "See {IERC165-supportsInterface}. Time complexity O(1), guaranteed to always use less than 30 000 gas."
      },
      "symbol()": {
        "details": "See {IERC721Metadata-symbol}."
      },
      "tokenByIndex(uint256)": {
        "details": "See {IERC721Enumerable-tokenByIndex}."
      },
      "tokenOfOwnerByIndex(address,uint256)": {
        "details": "See {IERC721Enumerable-tokenOfOwnerByIndex}."
      },
      "tokenURI(uint256)": {
        "details": "See {IERC721Metadata-tokenURI}."
      },
      "totalSupply()": {
        "details": "See {IERC721Enumerable-totalSupply}."
      },
      "transferFrom(address,address,uint256)": {
        "details": "See {IERC721-transferFrom}."
      },
      "transferOwnership(address)": {
        "details": "Transfers ownership of the contract to a new account (`newOwner`). Can only be called by the current owner."
      },
      "withdrawNXM(address,uint256)": {
        "params": {
          "amount": "amount of NXM",
          "recipient": "recipient of NXM"
        }
      }
    },
    "version": 1
  },
  "userdoc": {
    "kind": "user",
    "methods": {
      "withdrawNXM(address,uint256)": {
        "notice": "Moves `amount` tokens from the distributor to `recipient`."
      }
    },
    "version": 1
  }
}