{
  "contractName": "NexusDistributor",
  "abi": [
    {
      "anonymous": false,
      "inputs": [
        {
          "indexed": true,
          "internalType": "address",
          "name": "owner",
          "type": "address"
        },
        {
          "indexed": true,
          "internalType": "address",
          "name": "approved",
          "type": "address"
        },
        {
          "indexed": true,
          "internalType": "uint256",
          "name": "tokenId",
          "type": "uint256"
        }
      ],
      "name": "Approval",
      "type": "event"
    },
    {
      "anonymous": false,
      "inputs": [
        {
          "indexed": true,
          "internalType": "address",
          "name": "owner",
          "type": "address"
        },
        {
          "indexed": true,
          "internalType": "address",
          "name": "operator",
          "type": "address"
        },
        {
          "indexed": false,
          "internalType": "bool",
          "name": "approved",
          "type": "bool"
        }
      ],
      "name": "ApprovalForAll",
      "type": "event"
    },
    {
      "anonymous": false,
      "inputs": [
        {
          "indexed": true,
          "internalType": "uint256",
          "name": "coverId",
          "type": "uint256"
        },
        {
          "indexed": true,
          "internalType": "uint256",
          "name": "claimId",
          "type": "uint256"
        },
        {
          "indexed": true,
          "internalType": "address",
          "name": "receiver",
          "type": "address"
        },
        {
          "indexed": false,
          "internalType": "uint256",
          "name": "amountPaid",
          "type": "uint256"
        },
        {
          "indexed": false,
          "internalType": "address",
          "name": "coverAsset",
          "type": "address"
        }
      ],
      "name": "ClaimPayoutRedeemed",
      "type": "event"
    },
    {
      "anonymous": false,
      "inputs": [
        {
          "indexed": true,
          "internalType": "uint256",
          "name": "coverId",
          "type": "uint256"
        },
        {
          "indexed": true,
          "internalType": "uint256",
          "name": "claimId",
          "type": "uint256"
        },
        {
          "indexed": true,
          "internalType": "address",
          "name": "submitter",
          "type": "address"
        }
      ],
      "name": "ClaimSubmitted",
      "type": "event"
    },
    {
      "anonymous": false,
      "inputs": [
        {
          "indexed": true,
          "internalType": "uint256",
          "name": "coverId",
          "type": "uint256"
        },
        {
          "indexed": true,
          "internalType": "address",
          "name": "buyer",
          "type": "address"
        },
        {
          "indexed": true,
          "internalType": "address",
          "name": "contractAddress",
          "type": "address"
        },
        {
          "indexed": false,
          "internalType": "uint256",
          "name": "feePercentage",
          "type": "uint256"
        },
        {
          "indexed": false,
          "internalType": "uint256",
          "name": "coverPrice",
          "type": "uint256"
        }
      ],
      "name": "CoverBought",
      "type": "event"
    },
    {
      "anonymous": false,
      "inputs": [
        {
          "indexed": true,
          "internalType": "address",
          "name": "previousOwner",
          "type": "address"
        },
        {
          "indexed": true,
          "internalType": "address",
          "name": "newOwner",
          "type": "address"
        }
      ],
      "name": "OwnershipTransferred",
      "type": "event"
    },
    {
      "anonymous": false,
      "inputs": [
        {
          "indexed": true,
          "internalType": "address",
          "name": "from",
          "type": "address"
        },
        {
          "indexed": true,
          "internalType": "address",
          "name": "to",
          "type": "address"
        },
        {
          "indexed": true,
          "internalType": "uint256",
          "name": "tokenId",
          "type": "uint256"
        }
      ],
      "name": "Transfer",
      "type": "event"
    },
    {
      "inputs": [],
      "name": "DEFAULT_BASE_URI",
      "outputs": [
        {
          "internalType": "string",
          "name": "",
          "type": "string"
        }
      ],
      "stateMutability": "view",
      "type": "function",
      "constant": true
    },
    {
      "inputs": [
        {
          "internalType": "address",
          "name": "to",
          "type": "address"
        },
        {
          "internalType": "uint256",
          "name": "tokenId",
          "type": "uint256"
        }
      ],
      "name": "approve",
      "outputs": [],
      "stateMutability": "nonpayable",
      "type": "function"
    },
    {
      "inputs": [
        {
          "internalType": "address",
          "name": "owner",
          "type": "address"
        }
      ],
      "name": "balanceOf",
      "outputs": [
        {
          "internalType": "uint256",
          "name": "",
          "type": "uint256"
        }
      ],
      "stateMutability": "view",
      "type": "function",
      "constant": true
    },
    {
      "inputs": [],
      "name": "baseURI",
      "outputs": [
        {
          "internalType": "string",
          "name": "",
          "type": "string"
        }
      ],
      "stateMutability": "view",
      "type": "function",
      "constant": true
    },
    {
      "inputs": [],
      "name": "buysAllowed",
      "outputs": [
        {
          "internalType": "bool",
          "name": "",
          "type": "bool"
        }
      ],
      "stateMutability": "view",
      "type": "function",
      "constant": true
    },
    {
      "inputs": [],
      "name": "feePercentage",
      "outputs": [
        {
          "internalType": "uint256",
          "name": "",
          "type": "uint256"
        }
      ],
      "stateMutability": "view",
      "type": "function",
      "constant": true
    },
    {
      "inputs": [],
      "name": "gateway",
      "outputs": [
        {
          "internalType": "contract IGateway",
          "name": "",
          "type": "address"
        }
      ],
      "stateMutability": "view",
      "type": "function",
      "constant": true
    },
    {
      "inputs": [
        {
          "internalType": "uint256",
          "name": "tokenId",
          "type": "uint256"
        }
      ],
      "name": "getApproved",
      "outputs": [
        {
          "internalType": "address",
          "name": "",
          "type": "address"
        }
      ],
      "stateMutability": "view",
      "type": "function",
      "constant": true
    },
    {
      "inputs": [
        {
          "internalType": "address",
          "name": "owner",
          "type": "address"
        },
        {
          "internalType": "address",
          "name": "operator",
          "type": "address"
        }
      ],
      "name": "isApprovedForAll",
      "outputs": [
        {
          "internalType": "bool",
          "name": "",
          "type": "bool"
        }
      ],
      "stateMutability": "view",
      "type": "function",
      "constant": true
    },
    {
      "inputs": [],
      "name": "master",
      "outputs": [
        {
          "internalType": "contract INXMaster",
          "name": "",
          "type": "address"
        }
      ],
      "stateMutability": "view",
      "type": "function",
      "constant": true
    },
    {
      "inputs": [],
      "name": "name",
      "outputs": [
        {
          "internalType": "string",
          "name": "",
          "type": "string"
        }
      ],
      "stateMutability": "view",
      "type": "function",
      "constant": true
    },
    {
      "inputs": [],
      "name": "nxmToken",
      "outputs": [
        {
          "internalType": "contract IERC20Upgradeable",
          "name": "",
          "type": "address"
        }
      ],
      "stateMutability": "view",
      "type": "function",
      "constant": true
    },
    {
      "inputs": [],
      "name": "owner",
      "outputs": [
        {
          "internalType": "address",
          "name": "",
          "type": "address"
        }
      ],
      "stateMutability": "view",
      "type": "function",
      "constant": true
    },
    {
      "inputs": [
        {
          "internalType": "uint256",
          "name": "tokenId",
          "type": "uint256"
        }
      ],
      "name": "ownerOf",
      "outputs": [
        {
          "internalType": "address",
          "name": "",
          "type": "address"
        }
      ],
      "stateMutability": "view",
      "type": "function",
      "constant": true
    },
    {
      "inputs": [],
      "name": "renounceOwnership",
      "outputs": [],
      "stateMutability": "nonpayable",
      "type": "function"
    },
    {
      "inputs": [
        {
          "internalType": "address",
          "name": "from",
          "type": "address"
        },
        {
          "internalType": "address",
          "name": "to",
          "type": "address"
        },
        {
          "internalType": "uint256",
          "name": "tokenId",
          "type": "uint256"
        }
      ],
      "name": "safeTransferFrom",
      "outputs": [],
      "stateMutability": "nonpayable",
      "type": "function"
    },
    {
      "inputs": [
        {
          "internalType": "address",
          "name": "from",
          "type": "address"
        },
        {
          "internalType": "address",
          "name": "to",
          "type": "address"
        },
        {
          "internalType": "uint256",
          "name": "tokenId",
          "type": "uint256"
        },
        {
          "internalType": "bytes",
          "name": "_data",
          "type": "bytes"
        }
      ],
      "name": "safeTransferFrom",
      "outputs": [],
      "stateMutability": "nonpayable",
      "type": "function"
    },
    {
      "inputs": [
        {
          "internalType": "address",
          "name": "operator",
          "type": "address"
        },
        {
          "internalType": "bool",
          "name": "approved",
          "type": "bool"
        }
      ],
      "name": "setApprovalForAll",
      "outputs": [],
      "stateMutability": "nonpayable",
      "type": "function"
    },
    {
      "inputs": [],
      "name": "symbol",
      "outputs": [
        {
          "internalType": "string",
          "name": "",
          "type": "string"
        }
      ],
      "stateMutability": "view",
      "type": "function",
      "constant": true
    },
    {
      "inputs": [
        {
          "internalType": "uint256",
          "name": "index",
          "type": "uint256"
        }
      ],
      "name": "tokenByIndex",
      "outputs": [
        {
          "internalType": "uint256",
          "name": "",
          "type": "uint256"
        }
      ],
      "stateMutability": "view",
      "type": "function",
      "constant": true
    },
    {
      "inputs": [
        {
          "internalType": "address",
          "name": "owner",
          "type": "address"
        },
        {
          "internalType": "uint256",
          "name": "index",
          "type": "uint256"
        }
      ],
      "name": "tokenOfOwnerByIndex",
      "outputs": [
        {
          "internalType": "uint256",
          "name": "",
          "type": "uint256"
        }
      ],
      "stateMutability": "view",
      "type": "function",
      "constant": true
    },
    {
      "inputs": [
        {
          "internalType": "uint256",
          "name": "tokenId",
          "type": "uint256"
        }
      ],
      "name": "tokenURI",
      "outputs": [
        {
          "internalType": "string",
          "name": "",
          "type": "string"
        }
      ],
      "stateMutability": "view",
      "type": "function",
      "constant": true
    },
    {
      "inputs": [],
      "name": "totalSupply",
      "outputs": [
        {
          "internalType": "uint256",
          "name": "",
          "type": "uint256"
        }
      ],
      "stateMutability": "view",
      "type": "function",
      "constant": true
    },
    {
      "inputs": [
        {
          "internalType": "address",
          "name": "from",
          "type": "address"
        },
        {
          "internalType": "address",
          "name": "to",
          "type": "address"
        },
        {
          "internalType": "uint256",
          "name": "tokenId",
          "type": "uint256"
        }
      ],
      "name": "transferFrom",
      "outputs": [],
      "stateMutability": "nonpayable",
      "type": "function"
    },
    {
      "inputs": [
        {
          "internalType": "address",
          "name": "newOwner",
          "type": "address"
        }
      ],
      "name": "transferOwnership",
      "outputs": [],
      "stateMutability": "nonpayable",
      "type": "function"
    },
    {
      "inputs": [],
      "name": "treasury",
      "outputs": [
        {
          "internalType": "address payable",
          "name": "",
          "type": "address"
        }
      ],
      "stateMutability": "view",
      "type": "function",
      "constant": true
    },
    {
      "stateMutability": "payable",
      "type": "receive",
      "payable": true
    },
    {
      "inputs": [
        {
          "internalType": "address",
          "name": "gatewayAddress",
          "type": "address"
        },
        {
          "internalType": "address",
          "name": "nxmTokenAddress",
          "type": "address"
        },
        {
          "internalType": "address",
          "name": "masterAddress",
          "type": "address"
        },
        {
          "internalType": "uint256",
          "name": "_feePercentage",
          "type": "uint256"
        },
        {
          "internalType": "address payable",
          "name": "_treasury",
          "type": "address"
        },
        {
          "internalType": "string",
          "name": "tokenName",
          "type": "string"
        },
        {
          "internalType": "string",
          "name": "tokenSymbol",
          "type": "string"
        }
      ],
      "name": "__NexusDistributor_init",
      "outputs": [],
      "stateMutability": "nonpayable",
      "type": "function"
    },
    {
      "inputs": [
        {
          "internalType": "address",
          "name": "_owner",
          "type": "address"
        },
        {
          "internalType": "bool",
          "name": "_isActive",
          "type": "bool"
        }
      ],
      "name": "getCoverCount",
      "outputs": [
        {
          "internalType": "uint256",
          "name": "",
          "type": "uint256"
        }
      ],
      "stateMutability": "view",
      "type": "function",
      "constant": true
    },
    {
      "inputs": [
        {
          "internalType": "uint256",
          "name": "_sumAssured",
          "type": "uint256"
        },
        {
          "internalType": "uint256",
          "name": "_coverPeriod",
          "type": "uint256"
        },
        {
          "internalType": "address",
          "name": "_contractAddress",
          "type": "address"
        },
        {
          "internalType": "address",
          "name": "_coverAsset",
          "type": "address"
        },
        {
          "internalType": "address",
          "name": "_nexusCoverable",
          "type": "address"
        },
        {
          "internalType": "bytes",
          "name": "_data",
          "type": "bytes"
        }
      ],
      "name": "getQuote",
      "outputs": [
        {
          "components": [
            {
              "internalType": "uint256",
              "name": "prop1",
              "type": "uint256"
            },
            {
              "internalType": "uint256",
              "name": "prop2",
              "type": "uint256"
            },
            {
              "internalType": "uint256",
              "name": "prop3",
              "type": "uint256"
            },
            {
              "internalType": "uint256",
              "name": "prop4",
              "type": "uint256"
            },
            {
              "internalType": "uint256",
              "name": "prop5",
              "type": "uint256"
            },
            {
              "internalType": "uint256",
              "name": "prop6",
              "type": "uint256"
            },
            {
              "internalType": "uint256",
              "name": "prop7",
              "type": "uint256"
            }
          ],
          "internalType": "struct IDistributor.CoverQuote",
          "name": "",
          "type": "tuple"
        }
      ],
      "stateMutability": "view",
      "type": "function",
      "constant": true
    },
    {
      "inputs": [
        {
          "internalType": "address",
          "name": "contractAddress",
          "type": "address"
        },
        {
          "internalType": "address",
          "name": "coverAsset",
          "type": "address"
        },
        {
          "internalType": "uint256",
          "name": "sumAssured",
          "type": "uint256"
        },
        {
          "internalType": "uint16",
          "name": "coverPeriod",
          "type": "uint16"
        },
        {
          "internalType": "uint8",
          "name": "coverType",
          "type": "uint8"
        },
        {
          "internalType": "uint256",
          "name": "maxPriceWithFee",
          "type": "uint256"
        },
        {
          "internalType": "bytes",
          "name": "data",
          "type": "bytes"
        }
      ],
      "name": "buyCover",
      "outputs": [],
      "stateMutability": "payable",
      "type": "function",
      "payable": true
    },
    {
      "inputs": [
        {
          "components": [
            {
              "internalType": "uint16[]",
              "name": "products",
              "type": "uint16[]"
            },
            {
              "internalType": "uint16[]",
              "name": "durationInDays",
              "type": "uint16[]"
            },
            {
              "internalType": "uint256[]",
              "name": "amounts",
              "type": "uint256[]"
            },
            {
              "internalType": "address",
              "name": "currency",
              "type": "address"
            },
            {
              "internalType": "uint256",
              "name": "premium",
              "type": "uint256"
            },
            {
              "internalType": "address",
              "name": "owner",
              "type": "address"
            },
            {
              "internalType": "uint256",
              "name": "refCode",
              "type": "uint256"
            },
            {
              "internalType": "uint256[]",
              "name": "helperParameters",
              "type": "uint256[]"
            },
            {
              "internalType": "uint256[]",
              "name": "securityParameters",
              "type": "uint256[]"
            },
            {
              "internalType": "uint8[]",
              "name": "v",
              "type": "uint8[]"
            },
            {
              "internalType": "bytes32[]",
              "name": "r",
              "type": "bytes32[]"
            },
            {
              "internalType": "bytes32[]",
              "name": "s",
              "type": "bytes32[]"
            }
          ],
          "internalType": "struct IDistributor.BuyInsuraceQuote",
          "name": "",
          "type": "tuple"
        }
      ],
      "name": "buyCoverInsurace",
      "outputs": [],
      "stateMutability": "payable",
      "type": "function",
      "payable": true
    },
    {
      "inputs": [
        {
          "internalType": "bytes4",
          "name": "interfaceId",
          "type": "bytes4"
        }
      ],
      "name": "supportsInterface",
      "outputs": [
        {
          "internalType": "bool",
          "name": "",
          "type": "bool"
        }
      ],
      "stateMutability": "view",
      "type": "function",
      "constant": true
    },
    {
      "inputs": [
        {
          "internalType": "uint256",
          "name": "tokenId",
          "type": "uint256"
        },
        {
          "internalType": "bytes",
          "name": "data",
          "type": "bytes"
        }
      ],
      "name": "submitClaim",
      "outputs": [
        {
          "internalType": "uint256",
          "name": "",
          "type": "uint256"
        }
      ],
      "stateMutability": "nonpayable",
      "type": "function"
    },
    {
      "inputs": [
        {
          "internalType": "uint256",
          "name": "tokenId",
          "type": "uint256"
        },
        {
          "internalType": "uint256",
          "name": "incidentId",
          "type": "uint256"
        },
        {
          "internalType": "uint256",
          "name": "coveredTokenAmount",
          "type": "uint256"
        },
        {
          "internalType": "address",
          "name": "coverAsset",
          "type": "address"
        }
      ],
      "name": "claimTokens",
      "outputs": [
        {
          "internalType": "uint256",
          "name": "claimId",
          "type": "uint256"
        },
        {
          "internalType": "uint256",
          "name": "payoutAmount",
          "type": "uint256"
        },
        {
          "internalType": "address",
          "name": "payoutToken",
          "type": "address"
        }
      ],
      "stateMutability": "nonpayable",
      "type": "function"
    },
    {
      "inputs": [
        {
          "internalType": "uint256",
          "name": "tokenId",
          "type": "uint256"
        },
        {
          "internalType": "uint256",
          "name": "claimId",
          "type": "uint256"
        }
      ],
      "name": "redeemClaim",
      "outputs": [],
      "stateMutability": "nonpayable",
      "type": "function"
    },
    {
      "inputs": [
        {
          "internalType": "uint256",
          "name": "tokenId",
          "type": "uint256"
        },
        {
          "internalType": "uint256",
          "name": "assetAmount",
          "type": "uint256"
        },
        {
          "internalType": "address",
          "name": "asset",
          "type": "address"
        },
        {
          "internalType": "uint8",
          "name": "action",
          "type": "uint8"
        },
        {
          "internalType": "bytes",
          "name": "data",
          "type": "bytes"
        }
      ],
      "name": "executeCoverAction",
      "outputs": [
        {
          "internalType": "bytes",
          "name": "response",
          "type": "bytes"
        },
        {
          "internalType": "uint256",
          "name": "withheldAmount",
          "type": "uint256"
        }
      ],
      "stateMutability": "payable",
      "type": "function",
      "payable": true
    },
    {
      "inputs": [
        {
          "internalType": "address",
          "name": "_owner",
          "type": "address"
        },
        {
          "internalType": "uint256",
          "name": "_coverId",
          "type": "uint256"
        },
        {
          "internalType": "bool",
          "name": "_isActive",
          "type": "bool"
        },
        {
          "internalType": "uint256",
          "name": "_loopLimit",
          "type": "uint256"
        }
      ],
      "name": "getCover",
      "outputs": [
        {
          "components": [
            {
              "internalType": "bytes32",
              "name": "coverType",
              "type": "bytes32"
            },
            {
              "internalType": "uint256",
              "name": "productId",
              "type": "uint256"
            },
            {
              "internalType": "bytes32",
              "name": "contractName",
              "type": "bytes32"
            },
            {
              "internalType": "uint256",
              "name": "coverAmount",
              "type": "uint256"
            },
            {
              "internalType": "uint256",
              "name": "premium",
              "type": "uint256"
            },
            {
              "internalType": "address",
              "name": "currency",
              "type": "address"
            },
            {
              "internalType": "address",
              "name": "contractAddress",
              "type": "address"
            },
            {
              "internalType": "uint256",
              "name": "expiration",
              "type": "uint256"
            },
            {
              "internalType": "uint256",
              "name": "status",
              "type": "uint256"
            },
            {
              "internalType": "address",
              "name": "refAddress",
              "type": "address"
            }
          ],
          "internalType": "struct IDistributor.Cover",
          "name": "",
          "type": "tuple"
        }
      ],
      "stateMutability": "view",
      "type": "function",
      "constant": true
    },
    {
      "inputs": [
        {
          "internalType": "uint256",
          "name": "tokenId",
          "type": "uint256"
        }
      ],
      "name": "getCover",
      "outputs": [
        {
          "internalType": "uint8",
          "name": "status",
          "type": "uint8"
        },
        {
          "internalType": "uint256",
          "name": "sumAssured",
          "type": "uint256"
        },
        {
          "internalType": "uint16",
          "name": "coverPeriod",
          "type": "uint16"
        },
        {
          "internalType": "uint256",
          "name": "validUntil",
          "type": "uint256"
        },
        {
          "internalType": "address",
          "name": "contractAddress",
          "type": "address"
        },
        {
          "internalType": "address",
          "name": "coverAsset",
          "type": "address"
        },
        {
          "internalType": "uint256",
          "name": "premiumInNXM",
          "type": "uint256"
        },
        {
          "internalType": "address",
          "name": "memberAddress",
          "type": "address"
        }
      ],
      "stateMutability": "view",
      "type": "function",
      "constant": true
    },
    {
      "inputs": [
        {
          "internalType": "uint256",
          "name": "claimId",
          "type": "uint256"
        }
      ],
      "name": "getPayoutOutcome",
      "outputs": [
        {
          "internalType": "enum IGateway.ClaimStatus",
          "name": "status",
          "type": "uint8"
        },
        {
          "internalType": "uint256",
          "name": "amountPaid",
          "type": "uint256"
        },
        {
          "internalType": "address",
          "name": "coverAsset",
          "type": "address"
        }
      ],
      "stateMutability": "view",
      "type": "function",
      "constant": true
    },
    {
      "inputs": [
        {
          "internalType": "address",
          "name": "spender",
          "type": "address"
        },
        {
          "internalType": "uint256",
          "name": "amount",
          "type": "uint256"
        }
      ],
      "name": "approveNXM",
      "outputs": [],
      "stateMutability": "nonpayable",
      "type": "function"
    },
    {
      "inputs": [
        {
          "internalType": "address",
          "name": "recipient",
          "type": "address"
        },
        {
          "internalType": "uint256",
          "name": "amount",
          "type": "uint256"
        }
      ],
      "name": "withdrawNXM",
      "outputs": [],
      "stateMutability": "nonpayable",
      "type": "function"
    },
    {
      "inputs": [
        {
          "internalType": "address",
          "name": "newAddress",
          "type": "address"
        }
      ],
      "name": "switchMembership",
      "outputs": [],
      "stateMutability": "nonpayable",
      "type": "function"
    },
    {
      "inputs": [
        {
          "internalType": "uint256",
          "name": "nxmIn",
          "type": "uint256"
        },
        {
          "internalType": "uint256",
          "name": "minEthOut",
          "type": "uint256"
        }
      ],
      "name": "sellNXM",
      "outputs": [],
      "stateMutability": "nonpayable",
      "type": "function"
    },
    {
      "inputs": [
        {
          "internalType": "bool",
          "name": "_buysAllowed",
          "type": "bool"
        }
      ],
      "name": "setBuysAllowed",
      "outputs": [],
      "stateMutability": "nonpayable",
      "type": "function"
    },
    {
      "inputs": [
        {
          "internalType": "address payable",
          "name": "_treasury",
          "type": "address"
        }
      ],
      "name": "setTreasury",
      "outputs": [],
      "stateMutability": "nonpayable",
      "type": "function"
    },
    {
      "inputs": [
        {
          "internalType": "uint256",
          "name": "_feePercentage",
          "type": "uint256"
        }
      ],
      "name": "setFeePercentage",
      "outputs": [],
      "stateMutability": "nonpayable",
      "type": "function"
    },
    {
      "inputs": [
        {
          "internalType": "string",
          "name": "baseURI_",
          "type": "string"
        }
      ],
      "name": "setBaseURI",
      "outputs": [],
      "stateMutability": "nonpayable",
      "type": "function"
    }
  ],
  "bytecode": "0x608060405234801561001057600080fd5b50615e9f80620000216000396000f3fe60806040526004361061028b5760003560e01c806370a082311161015a578063b1c36ebe116100c1578063e967eb1a1161007a578063e967eb1a1461079c578063e985e9c5146107b1578063ee97f7f3146107d1578063f0f44260146107e6578063f2fde38b14610806578063fd7b68a21461082657610292565b8063b1c36ebe146106e7578063b88d4fde14610714578063c87b56dd14610734578063d8a856ee14610754578063db32749114610767578063e1817a8b1461078757610292565b8063a001ecdd11610113578063a001ecdd14610630578063a22cb46514610645578063a497325b14610665578063ac496c7b1461067a578063ae06c1b7146106a7578063b194270f146106c757610292565b806370a0823114610591578063715018a6146105b157806386a15637146105c65780638da5cb5b146105e657806395d89b41146105fb5780639f1cafa41461061057610292565b806342842e0e116101fe5780634f6ccce7116101b75780634f6ccce7146104d857806352799e4d146104f857806355f804b31461052757806361d027b3146105475780636352211e1461055c5780636c0360eb1461057c57610292565b806342842e0e1461042457806348d83b9d1461044457806348dd50b6146104575780634c285151146104775780634d776735146104985780634ed75d47146104b857610292565b8063116191b611610250578063116191b61461035e57806318160ddd1461037357806323b872dd1461039557806328dd3773146103b55780632f745c59146103d557806335a56e51146103f557610292565b80629697171461029757806301ffc9a7146102b957806306fdde03146102ef578063081812fc14610311578063095ea7b31461033e57610292565b3661029257005b600080fd5b3480156102a357600080fd5b506102b76102b23660046151c3565b61085a565b005b3480156102c557600080fd5b506102d96102d4366004614e8c565b610b48565b6040516102e691906154d3565b60405180910390f35b3480156102fb57600080fd5b50610304610b62565b6040516102e6919061552b565b34801561031d57600080fd5b5061033161032c36600461514a565b610bf8565b6040516102e6919061544d565b34801561034a57600080fd5b506102b7610359366004614d53565b610c5a565b34801561036a57600080fd5b50610331610d30565b34801561037f57600080fd5b50610388610d3f565b6040516102e69190615927565b3480156103a157600080fd5b506102b76103b0366004614bdf565b610d50565b3480156103c157600080fd5b506102b76103d03660046151c3565b610da7565b3480156103e157600080fd5b506103886103f0366004614d53565b610fa1565b34801561040157600080fd5b50610415610410366004615316565b610fcc565b6040516102e693929190615978565b34801561043057600080fd5b506102b761043f366004614bdf565b611223565b6102b7610452366004614fa7565b61123e565b34801561046357600080fd5b506102b7610472366004614b2b565b6112a1565b61048a61048536600461529d565b6113ec565b6040516102e69291906154de565b3480156104a457600080fd5b506102b76104b3366004614d53565b6117cb565b3480156104c457600080fd5b506102b76104d3366004614abb565b6118b1565b3480156104e457600080fd5b506103886104f336600461514a565b6119fc565b34801561050457600080fd5b5061051861051336600461514a565b611a12565b6040516102e693929190615500565b34801561053357600080fd5b506102b7610542366004614f75565b611aa4565b34801561055357600080fd5b50610331611b12565b34801561056857600080fd5b5061033161057736600461514a565b611b26565b34801561058857600080fd5b50610304611b4e565b34801561059d57600080fd5b506103886105ac366004614abb565b611baf565b3480156105bd57600080fd5b506102b7611c17565b3480156105d257600080fd5b506102b76105e1366004614e54565b611cc3565b3480156105f257600080fd5b50610331611d38565b34801561060757600080fd5b50610304611d47565b34801561061c57600080fd5b506102b761062b366004614d53565b611da8565b34801561063c57600080fd5b50610388611e25565b34801561065157600080fd5b506102b7610660366004614d26565b611e2b565b34801561067157600080fd5b50610304611f30565b34801561068657600080fd5b5061069a610695366004614d7e565b611f4c565b6040516102e6919061589b565b3480156106b357600080fd5b506102b76106c236600461514a565b611f92565b3480156106d357600080fd5b506103886106e2366004614d26565b611ff9565b3480156106f357600080fd5b50610707610702366004615211565b612004565b6040516102e6919061584d565b34801561072057600080fd5b506102b761072f366004614c1f565b612134565b34801561074057600080fd5b5061030461074f36600461514a565b612192565b6102b7610762366004614c88565b612415565b34801561077357600080fd5b5061038861078236600461517a565b612809565b34801561079357600080fd5b506102d96128f4565b3480156107a857600080fd5b506103316128fd565b3480156107bd57600080fd5b506102d96107cc366004614af3565b61290c565b3480156107dd57600080fd5b5061033161293a565b3480156107f257600080fd5b506102b7610801366004614abb565b612949565b34801561081257600080fd5b506102b7610821366004614abb565b6129d3565b34801561083257600080fd5b5061084661084136600461514a565b612ad6565b6040516102e69897969594939291906159e8565b816108653382612b83565b61088a5760405162461bcd60e51b815260040161088190615752565b60405180910390fd5b600260c95414156108d0576040805162461bcd60e51b815260206004820152601f6024820152600080516020615b2b833981519152604482015290519081900360640190fd5b600260c95560fd546040516396ff592f60e01b81526000916001600160a01b0316906396ff592f90610906908690600401615927565b60206040518083038186803b15801561091e57600080fd5b505afa158015610932573d6000803e3d6000fd5b505050506040513d601f19601f820116820180604052508101906109569190615162565b90508381146109775760405162461bcd60e51b8152600401610881906157a2565b60fd546040516352799e4d60e01b8152600091829182916001600160a01b0316906352799e4d906109ac908990600401615927565b60606040518083038186803b1580156109c457600080fd5b505afa1580156109d8573d6000803e3d6000fd5b505050506040513d601f19601f820116820180604052508101906109fc9190614f30565b919450925090506001836002811115610a1157fe5b14610a2e5760405162461bcd60e51b815260040161088190615816565b610a3787612c1f565b6001600160a01b03811673eeeeeeeeeeeeeeeeeeeeeeeeeeeeeeeeeeeeeeee1415610ade576000336001600160a01b031683604051610a759061544a565b60006040518083038185875af1925050503d8060008114610ab2576040519150601f19603f3d011682016040523d82523d6000602084013e610ab7565b606091505b5050905080610ad85760405162461bcd60e51b8152600401610881906156c7565b50610af5565b80610af36001600160a01b0382163385612cec565b505b336001600160a01b031686887f34fca3c3e347457684d11c6311e01dc77fc4d158b9fb5902af19c6b9fae603a98585604051610b32929190615930565b60405180910390a45050600160c9555050505050565b6001600160e01b03198116633c6e48b960e01b145b919050565b606a8054604080516020601f6002600019610100600188161502019095169490940493840181900481028201810190925282815260609390929091830182828015610bee5780601f10610bc357610100808354040283529160200191610bee565b820191906000526020600020905b815481529060010190602001808311610bd157829003601f168201915b5050505050905090565b6000610c0382612d3e565b610c3e5760405162461bcd60e51b815260040180806020018281038252602c815260200180615d15602c913960400191505060405180910390fd5b506000908152606860205260409020546001600160a01b031690565b6000610c6582611b26565b9050806001600160a01b0316836001600160a01b03161415610cb85760405162461bcd60e51b8152600401808060200182810382526021815260200180615db96021913960400191505060405180910390fd5b806001600160a01b0316610cca612d4b565b6001600160a01b03161480610ce65750610ce6816107cc612d4b565b610d215760405162461bcd60e51b8152600401808060200182810382526038815260200180615c196038913960400191505060405180910390fd5b610d2b8383612d4f565b505050565b60fd546001600160a01b031681565b6000610d4b6066612dbd565b905090565b610d61610d5b612d4b565b82612b83565b610d9c5760405162461bcd60e51b8152600401808060200182810382526031815260200180615e0f6031913960400191505060405180910390fd5b610d2b838383612dc8565b610daf612d4b565b6001600160a01b0316610dc0611d38565b6001600160a01b031614610e09576040805162461bcd60e51b81526020600482018190526024820152600080516020615d41833981519152604482015290519081900360640190fd5b60ff546040516227050b60e31b81526000916001600160a01b031690630138285890610e379060040161566e565b60206040518083038186803b158015610e4f57600080fd5b505afa158015610e63573d6000803e3d6000fd5b505050506040513d601f19601f82011682018060405250810190610e879190614ad7565b60fe5460405163095ea7b360e01b81529192506001600160a01b03169063095ea7b390610eba90849087906004016154ba565b602060405180830381600087803b158015610ed457600080fd5b505af1158015610ee8573d6000803e3d6000fd5b505050506040513d601f19601f82011682018060405250810190610f0c9190614e70565b506040516328dd377360e01b815247906001600160a01b038316906328dd377390610f3d908790879060040161596a565b600060405180830381600087803b158015610f5757600080fd5b505af1158015610f6b573d6000803e3d6000fd5b50479250610f9a9150610f8090508284612f14565b73eeeeeeeeeeeeeeeeeeeeeeeeeeeeeeeeeeeeeeee612f71565b5050505050565b6001600160a01b0382166000908152606560205260408120610fc39083613043565b90505b92915050565b600080600086610fdc3382612b83565b610ff85760405162461bcd60e51b815260040161088190615752565b8461100e6001600160a01b03821633308a61304f565b60fd5460405163095ea7b360e01b81526001600160a01b038381169263095ea7b39261104292909116908b906004016154ba565b602060405180830381600087803b15801561105c57600080fd5b505af1158015611070573d6000803e3d6000fd5b505050506040513d601f19601f820116820180604052508101906110949190614e70565b5060fd546040516335a56e5160e01b81526001600160a01b03909116906335a56e51906110cb908c908c908c908c90600401615997565b606060405180830381600087803b1580156110e557600080fd5b505af11580156110f9573d6000803e3d6000fd5b505050506040513d601f19601f8201168201806040525081019061111d91906151e4565b9196509450925061112d89612c1f565b6001600160a01b03831673eeeeeeeeeeeeeeeeeeeeeeeeeeeeeeeeeeeeeeee14156111d4576000336001600160a01b03168560405161116b9061544a565b60006040518083038185875af1925050503d80600081146111a8576040519150601f19603f3d011682016040523d82523d6000602084013e6111ad565b606091505b50509050806111ce5760405162461bcd60e51b81526004016108819061567c565b506111e8565b6111e86001600160a01b0384163386612cec565b604051339086908b907f9fe11e531030a058803617055e27f9f4768236e4322e13b9c4c09f4338e23a6890600090a450509450945094915050565b610d2b83838360405180602001604052806000815250612134565b600260c9541415611284576040805162461bcd60e51b815260206004820152601f6024820152600080516020615b2b833981519152604482015290519081900360640190fd5b600260c95560405162461bcd60e51b8152610881906004016157e7565b600054610100900460ff16806112ba57506112ba6130a9565b806112c8575060005460ff16155b6113035760405162461bcd60e51b815260040180806020018281038252602e815260200180615ca4602e913960400191505060405180910390fd5b600054610100900460ff1615801561132e576000805460ff1961ff0019909116610100171660011790555b6113366130ba565b61133e61316b565b6113488383613200565b611369604051806060016040528060358152602001615dda603591396132bd565b60fc805460fb87905560ff1916600117610100600160a81b0319166101006001600160a01b03878116919091029190911790915560fd80546001600160a01b03199081168b84161790915560fe805482168a841617905560ff805490911691881691909117905580156113e2576000805461ff00191690555b5050505050505050565b60606000876113fb3382612b83565b6114175760405162461bcd60e51b815260040161088190615752565b600260c954141561145d576040805162461bcd60e51b815260206004820152601f6024820152600080516020615b2b833981519152604482015290519081900360640190fd5b600260c955876114fc5760fd54604051630c249ab360e21b81526001600160a01b03909116906330926acc9061149d908c908a908a908a906004016159bb565b600060405180830381600087803b1580156114b757600080fd5b505af11580156114cb573d6000803e3d6000fd5b505050506040513d6000823e601f3d908101601f191682016040526114f39190810190614eb4565b925092506117b8565b6001600160a01b03871673eeeeeeeeeeeeeeeeeeeeeeeeeeeeeeeeeeeeeeee141561166557873410156115415760405162461bcd60e51b815260040161088190615710565b60fd54604051630c249ab360e21b81526001600160a01b03909116906330926acc903490611579908d908b908b908b906004016159bb565b6000604051808303818588803b15801561159257600080fd5b505af11580156115a6573d6000803e3d6000fd5b50505050506040513d6000823e601f3d908101601f191682016040526115cf9190810190614eb4565b909350915060006115e08984612f14565b90506000336001600160a01b0316826040516115fb9061544a565b60006040518083038185875af1925050503d8060008114611638576040519150601f19603f3d011682016040523d82523d6000602084013e61163d565b606091505b505090508061165e5760405162461bcd60e51b815260040161088190615618565b50506117b8565b8661167b6001600160a01b03821633308c61304f565b60fd5460405163095ea7b360e01b81526001600160a01b038381169263095ea7b3926116af92909116908d906004016154ba565b602060405180830381600087803b1580156116c957600080fd5b505af11580156116dd573d6000803e3d6000fd5b505050506040513d601f19601f820116820180604052508101906117019190614e70565b5060fd54604051630c249ab360e21b81526001600160a01b03909116906330926acc90611738908d908b908b908b906004016159bb565b600060405180830381600087803b15801561175257600080fd5b505af1158015611766573d6000803e3d6000fd5b505050506040513d6000823e601f3d908101601f1916820160405261178e9190810190614eb4565b9094509250600061179f8a85612f14565b90506117b56001600160a01b0383163383612cec565b50505b50600160c9559097909650945050505050565b6117d3612d4b565b6001600160a01b03166117e4611d38565b6001600160a01b03161461182d576040805162461bcd60e51b81526020600482018190526024820152600080516020615d41833981519152604482015290519081900360640190fd5b60fe5460405163095ea7b360e01b81526001600160a01b039091169063095ea7b39061185f90859085906004016154ba565b602060405180830381600087803b15801561187957600080fd5b505af115801561188d573d6000803e3d6000fd5b505050506040513d601f19601f82011682018060405250810190610d2b9190614e70565b6118b9612d4b565b6001600160a01b03166118ca611d38565b6001600160a01b031614611913576040805162461bcd60e51b81526020600482018190526024820152600080516020615d41833981519152604482015290519081900360640190fd5b60fe5460fd5460405163095ea7b360e01b81526001600160a01b039283169263095ea7b39261194b92911690600019906004016154ba565b602060405180830381600087803b15801561196557600080fd5b505af1158015611979573d6000803e3d6000fd5b505050506040513d601f19601f8201168201806040525081019061199d9190614e70565b5060fd54604051634ed75d4760e01b81526001600160a01b0390911690634ed75d47906119ce90849060040161544d565b600060405180830381600087803b1580156119e857600080fd5b505af1158015610f9a573d6000803e3d6000fd5b600080611a0a6066846132d0565b509392505050565b60fd546040516352799e4d60e01b8152600091829182916001600160a01b0316906352799e4d90611a47908790600401615927565b60606040518083038186803b158015611a5f57600080fd5b505afa158015611a73573d6000803e3d6000fd5b505050506040513d601f19601f82011682018060405250810190611a979190614f30565b9196909550909350915050565b611aac612d4b565b6001600160a01b0316611abd611d38565b6001600160a01b031614611b06576040805162461bcd60e51b81526020600482018190526024820152600080516020615d41833981519152604482015290519081900360640190fd5b611b0f816132bd565b50565b60fc5461010090046001600160a01b031681565b6000610fc682604051806060016040528060298152602001615c7b60299139606691906132ee565b606d8054604080516020601f6002600019610100600188161502019095169490940493840181900481028201810190925282815260609390929091830182828015610bee5780601f10610bc357610100808354040283529160200191610bee565b60006001600160a01b038216611bf65760405162461bcd60e51b815260040180806020018281038252602a815260200180615c51602a913960400191505060405180910390fd5b6001600160a01b0382166000908152606560205260409020610fc690612dbd565b611c1f612d4b565b6001600160a01b0316611c30611d38565b6001600160a01b031614611c79576040805162461bcd60e51b81526020600482018190526024820152600080516020615d41833981519152604482015290519081900360640190fd5b6097546040516000916001600160a01b0316907f8be0079c531659141344cd1fd0a4f28419497f9722a3daafe3b4186f6b6457e0908390a3609780546001600160a01b0319169055565b611ccb612d4b565b6001600160a01b0316611cdc611d38565b6001600160a01b031614611d25576040805162461bcd60e51b81526020600482018190526024820152600080516020615d41833981519152604482015290519081900360640190fd5b60fc805460ff1916911515919091179055565b6097546001600160a01b031690565b606b8054604080516020601f6002600019610100600188161502019095169490940493840181900481028201810190925282815260609390929091830182828015610bee5780601f10610bc357610100808354040283529160200191610bee565b611db0612d4b565b6001600160a01b0316611dc1611d38565b6001600160a01b031614611e0a576040805162461bcd60e51b81526020600482018190526024820152600080516020615d41833981519152604482015290519081900360640190fd5b60fe54611e21906001600160a01b03168383612cec565b5050565b60fb5481565b611e33612d4b565b6001600160a01b0316826001600160a01b03161415611e99576040805162461bcd60e51b815260206004820152601960248201527f4552433732313a20617070726f766520746f2063616c6c657200000000000000604482015290519081900360640190fd5b8060696000611ea6612d4b565b6001600160a01b03908116825260208083019390935260409182016000908120918716808252919093529120805460ff191692151592909217909155611eea612d4b565b6001600160a01b03167f17307eab39ab6107e8899845ad3d59bd9653f200f220920489ca2b5937696c318360405180821515815260200191505060405180910390a35050565b604051806060016040528060358152602001615dda6035913981565b611f54614771565b611f5c614771565b60018415151415611f7957611f72868685613305565b9050611f87565b611f848686856134a4565b90505b90505b949350505050565b611f9a612d4b565b6001600160a01b0316611fab611d38565b6001600160a01b031614611ff4576040805162461bcd60e51b81526020600482018190526024820152600080516020615d41833981519152604482015290519081900360640190fd5b60fb55565b6000610fc383611baf565b61200c6147c5565b60ff546040516227050b60e31b81526000916001600160a01b03169063013828589061203a90600401615794565b60206040518083038186803b15801561205257600080fd5b505afa158015612066573d6000803e3d6000fd5b505050506040513d601f19601f8201168201806040525081019061208a9190614ad7565b60ff546040516227050b60e31b81529192506000916001600160a01b03909116906301382858906120bd9060040161560a565b60206040518083038186803b1580156120d557600080fd5b505afa1580156120e9573d6000803e3d6000fd5b505050506040513d601f19601f8201168201806040525081019061210d9190614ad7565b905060006001600160a01b038316635caca7b48a8a8e8e6001fe5b9061367f565b906136e6565b61214561213f612d4b565b83612b83565b6121805760405162461bcd60e51b8152600401808060200182810382526031815260200180615e0f6031913960400191505060405180910390fd5b61218c84848484613740565b50505050565b606061219d82612d3e565b6121d85760405162461bcd60e51b815260040180806020018281038252602f815260200180615d8a602f913960400191505060405180910390fd5b6000828152606c602090815260409182902080548351601f600260001961010060018616150201909316929092049182018490048402810184019094528084526060939283018282801561226d5780601f106122425761010080835404028352916020019161226d565b820191906000526020600020905b81548152906001019060200180831161225057829003601f168201915b50505050509050606061227e611b4e565b905080516000141561229257509050610b5d565b8151156123535780826040516020018083805190602001908083835b602083106122cd5780518252601f1990920191602091820191016122ae565b51815160209384036101000a600019018019909216911617905285519190930192850191508083835b602083106123155780518252601f1990920191602091820191016122f6565b6001836020036101000a0380198251168184511680821785525050505050509050019250505060405160208183030381529060405292505050610b5d565b8061235d85613792565b6040516020018083805190602001908083835b6020831061238f5780518252601f199092019160209182019101612370565b51815160209384036101000a600019018019909216911617905285519190930192850191508083835b602083106123d75780518252601f1990920191602091820191016123b8565b6001836020036101000a0380198251168184511680821785525050505050509050019250505060405160208183030381529060405292505050919050565b600260c954141561245b576040805162461bcd60e51b815260206004820152601f6024820152600080516020615b2b833981519152604482015290519081900360640190fd5b600260c95560fc5460ff166124825760405162461bcd60e51b8152600401610881906155d3565b60fd546000906001600160a01b0316635caca7b48a8a8a8a60ff8b1680156124a657fe5b89896040518863ffffffff1660e01b81526004016124ca9796959493929190615461565b60206040518083038186803b1580156124e257600080fd5b505afa1580156124f6573d6000803e3d6000fd5b505050506040513d601f19601f8201168201806040525081019061251a9190615162565b9050600061253d8261212e6127106121288660fb5461362690919063ffffffff16565b90508481111561255f5760405162461bcd60e51b815260040161088190615586565b60006001600160a01b038a1673eeeeeeeeeeeeeeeeeeeeeeeeeeeeeeeeeeeeeeee141561264157813410156125a65760405162461bcd60e51b815260040161088190615710565b60006125b23484612f14565b90508015612638576000336001600160a01b0316826040516125d39061544a565b60006040518083038185875af1925050503d8060008114612610576040519150601f19603f3d011682016040523d82523d6000602084013e612615565b606091505b50509050806126365760405162461bcd60e51b815260040161088190615618565b505b839150506126e0565b896126576001600160a01b03821633308661304f565b60fd5460405163095ea7b360e01b81526001600160a01b038381169263095ea7b39261268b929091169088906004016154ba565b602060405180830381600087803b1580156126a557600080fd5b505af11580156126b9573d6000803e3d6000fd5b505050506040513d601f19601f820116820180604052508101906126dd9190614e70565b50505b60fd546000906001600160a01b03166304836c4a838e8e8e8e60ff8f16801561270557fe5b8d8d6040518963ffffffff1660e01b81526004016127299796959493929190615461565b6020604051808303818588803b15801561274257600080fd5b505af1158015612756573d6000803e3d6000fd5b50505050506040513d601f19601f8201168201806040525081019061277b9190615162565b905060006127898486612f14565b9050801561279b5761279b818d612f71565b6127a5338361386c565b8c6001600160a01b0316336001600160a01b0316837fa0105afc48bbd0c43e1c71d83dc1e02ae58388f3109943595b89e24a5ee1c36560fb54896040516127ed92919061596a565b60405180910390a45050600160c9555050505050505050505050565b6000836128163382612b83565b6128325760405162461bcd60e51b815260040161088190615752565b60fd5460405163db32749160e01b81526000916001600160a01b03169063db3274919061286790899089908990600401615947565b602060405180830381600087803b15801561288157600080fd5b505af1158015612895573d6000803e3d6000fd5b505050506040513d601f19601f820116820180604052508101906128b99190615162565b6040519091503390829088907f9fe11e531030a058803617055e27f9f4768236e4322e13b9c4c09f4338e23a6890600090a495945050505050565b60fc5460ff1681565b60fe546001600160a01b031681565b6001600160a01b03918216600090815260696020908152604080832093909416825291909152205460ff1690565b60ff546001600160a01b031681565b612951612d4b565b6001600160a01b0316612962611d38565b6001600160a01b0316146129ab576040805162461bcd60e51b81526020600482018190526024820152600080516020615d41833981519152604482015290519081900360640190fd5b60fc80546001600160a01b0390921661010002610100600160a81b0319909216919091179055565b6129db612d4b565b6001600160a01b03166129ec611d38565b6001600160a01b031614612a35576040805162461bcd60e51b81526020600482018190526024820152600080516020615d41833981519152604482015290519081900360640190fd5b6001600160a01b038116612a7a5760405162461bcd60e51b8152600401808060200182810382526026815260200180615b7d6026913960400191505060405180910390fd5b6097546040516001600160a01b038084169216907f8be0079c531659141344cd1fd0a4f28419497f9722a3daafe3b4186f6b6457e090600090a3609780546001600160a01b0319166001600160a01b0392909216919091179055565b60fd54604051637ebdb45160e11b815260009182918291829182918291829182916001600160a01b039091169063fd7b68a290612b17908c90600401615927565b6101006040518083038186803b158015612b3057600080fd5b505afa158015612b44573d6000803e3d6000fd5b505050506040513d601f19601f82011682018060405250810190612b689190615356565b97509750975097509750975097509750919395975091939597565b6000612b8e82612d3e565b612bc95760405162461bcd60e51b815260040180806020018281038252602c815260200180615bed602c913960400191505060405180910390fd5b6000612bd483611b26565b9050806001600160a01b0316846001600160a01b03161480612c0f5750836001600160a01b0316612c0484610bf8565b6001600160a01b0316145b80611f8a5750611f8a818561290c565b6000612c2a82611b26565b9050612c3881600084610d2b565b612c43600083612d4f565b6000828152606c60205260409020546002600019610100600184161502019091160415612c81576000828152606c60205260408120612c8191614802565b6001600160a01b0381166000908152606560205260409020612ca3908361399a565b50612caf6066836139a6565b5060405182906000906001600160a01b038416907fddf252ad1be2c89b69c2b068fc378daa952ba7f163c4a11628f55a4df523b3ef908390a45050565b604080516001600160a01b038416602482015260448082018490528251808303909101815260649091019091526020810180516001600160e01b031663a9059cbb60e01b179052610d2b9084906139b2565b6000610fc6606683613a63565b3390565b600081815260686020526040902080546001600160a01b0319166001600160a01b0384169081179091558190612d8482611b26565b6001600160a01b03167f8c5be1e5ebec7d5bd14f71427d1e84f3dd0314c0f7b2291e5b200ac8c7c3b92560405160405180910390a45050565b6000610fc682613a6f565b826001600160a01b0316612ddb82611b26565b6001600160a01b031614612e205760405162461bcd60e51b8152600401808060200182810382526029815260200180615d616029913960400191505060405180910390fd5b6001600160a01b038216612e655760405162461bcd60e51b8152600401808060200182810382526024815260200180615ba36024913960400191505060405180910390fd5b612e70838383610d2b565b612e7b600082612d4f565b6001600160a01b0383166000908152606560205260409020612e9d908261399a565b506001600160a01b0382166000908152606560205260409020612ec09082613a73565b50612ecd60668284613a7f565b5080826001600160a01b0316846001600160a01b03167fddf252ad1be2c89b69c2b068fc378daa952ba7f163c4a11628f55a4df523b3ef60405160405180910390a4505050565b600082821115612f6b576040805162461bcd60e51b815260206004820152601e60248201527f536166654d6174683a207375627472616374696f6e206f766572666c6f770000604482015290519081900360640190fd5b50900390565b6001600160a01b03811673eeeeeeeeeeeeeeeeeeeeeeeeeeeeeeeeeeeeeeee14156130225760fc5460405160009161010090046001600160a01b0316908490612fb99061544a565b60006040518083038185875af1925050503d8060008114612ff6576040519150601f19603f3d011682016040523d82523d6000602084013e612ffb565b606091505b505090508061301c5760405162461bcd60e51b81526004016108819061553e565b50611e21565b60fc548190610d2b906001600160a01b038084169161010090041685612cec565b6000610fc38383613a95565b604080516001600160a01b0380861660248301528416604482015260648082018490528251808303909101815260849091019091526020810180516001600160e01b03166323b872dd60e01b17905261218c9085906139b2565b60006130b430613af9565b15905090565b600054610100900460ff16806130d357506130d36130a9565b806130e1575060005460ff16155b61311c5760405162461bcd60e51b815260040180806020018281038252602e815260200180615ca4602e913960400191505060405180910390fd5b600054610100900460ff16158015613147576000805460ff1961ff0019909116610100171660011790555b61314f613aff565b613157613b9f565b8015611b0f576000805461ff001916905550565b600054610100900460ff168061318457506131846130a9565b80613192575060005460ff16155b6131cd5760405162461bcd60e51b815260040180806020018281038252602e815260200180615ca4602e913960400191505060405180910390fd5b600054610100900460ff161580156131f8576000805460ff1961ff0019909116610100171660011790555b613157613c98565b600054610100900460ff168061321957506132196130a9565b80613227575060005460ff16155b6132625760405162461bcd60e51b815260040180806020018281038252602e815260200180615ca4602e913960400191505060405180910390fd5b600054610100900460ff1615801561328d576000805460ff1961ff0019909116610100171660011790555b613295613aff565b61329d613d3e565b6132a78383613ddb565b8015610d2b576000805461ff0019169055505050565b8051611e2190606d906020840190614846565b60008080806132df8686613ec0565b909450925050505b9250929050565b60006132fb848484613f3b565b90505b9392505050565b61330d614771565b606061331885614005565b9050600061333084835161410b90919063ffffffff16565b9050606082516001600160401b038111801561334b57600080fd5b5060405190808252806020026020018201604052801561338557816020015b613372614771565b81526020019060019003908161336a5790505b50905060005b828110156134835761339b614771565b6000806000806000806000806133b08a612ad6565b975097509750975097509750975097508760ff1689610100018181525050868960600181815250508561ffff16896020018181525050848960e0018181525050838960c001906001600160a01b031690816001600160a01b031681525050828960a001906001600160a01b031690816001600160a01b03168152505081896080018181525050808961012001906001600160a01b031690816001600160a01b031681525050888b8b8151811061346257fe5b6020026020010181905250505050505050505050808060010191505061338b565b5080868151811061349057fe5b602002602001015193505050509392505050565b6134ac614771565b60006134b785611baf565b905060006134c5828561410b565b90506060826001600160401b03811180156134df57600080fd5b5060405190808252806020026020018201604052801561351957816020015b613506614771565b8152602001906001900390816134fe5790505b50905060005b828110156134835760006135338983610fa1565b905061353d614771565b6000806000806000806000806135528a612ad6565b975097509750975097509750975097508760ff1689610100018181525050868960600181815250508561ffff16896020018181525050848960e0018181525050838960c001906001600160a01b031690816001600160a01b031681525050828960a001906001600160a01b031690816001600160a01b03168152505081896080018181525050808961012001906001600160a01b031690816001600160a01b031681525050888c8c8151811061360457fe5b602002602001018190525050505050505050505050808060010191505061351f565b60008261363557506000610fc6565b8282028284828161364257fe5b0414610fc35760405162461bcd60e51b8152600401808060200182810382526021815260200180615cf46021913960400191505060405180910390fd5b60008082116136d5576040805162461bcd60e51b815260206004820152601a60248201527f536166654d6174683a206469766973696f6e206279207a65726f000000000000604482015290519081900360640190fd5b8183816136de57fe5b049392505050565b600082820183811015610fc3576040805162461bcd60e51b815260206004820152601b60248201527f536166654d6174683a206164646974696f6e206f766572666c6f770000000000604482015290519081900360640190fd5b61374b848484612dc8565b61375784848484614121565b61218c5760405162461bcd60e51b8152600401808060200182810382526032815260200180615b4b6032913960400191505060405180910390fd5b6060816137b757506040805180820190915260018152600360fc1b6020820152610b5d565b8160005b81156137cf57600101600a820491506137bb565b6060816001600160401b03811180156137e757600080fd5b506040519080825280601f01601f191660200182016040528015613812576020820181803683370190505b50859350905060001982015b831561386357600a840660300160f81b8282806001900393508151811061384157fe5b60200101906001600160f81b031916908160001a905350600a8404935061381e565b50949350505050565b6001600160a01b0382166138c7576040805162461bcd60e51b815260206004820181905260248201527f4552433732313a206d696e7420746f20746865207a65726f2061646472657373604482015290519081900360640190fd5b6138d081612d3e565b15613922576040805162461bcd60e51b815260206004820152601c60248201527f4552433732313a20746f6b656e20616c7265616479206d696e74656400000000604482015290519081900360640190fd5b61392e60008383610d2b565b6001600160a01b03821660009081526065602052604090206139509082613a73565b5061395d60668284613a7f565b5060405181906001600160a01b038416906000907fddf252ad1be2c89b69c2b068fc378daa952ba7f163c4a11628f55a4df523b3ef908290a45050565b6000610fc38383614289565b6000610fc3838361434f565b6060613a07826040518060400160405280602081526020017f5361666545524332303a206c6f772d6c6576656c2063616c6c206661696c6564815250856001600160a01b03166144239092919063ffffffff16565b805190915015610d2b57808060200190516020811015613a2657600080fd5b5051610d2b5760405162461bcd60e51b815260040180806020018281038252602a815260200180615e40602a913960400191505060405180910390fd5b6000610fc38383614432565b5490565b6000610fc3838361444a565b60006132fb84846001600160a01b038516614494565b81546000908210613ad75760405162461bcd60e51b8152600401808060200182810382526022815260200180615b096022913960400191505060405180910390fd5b826000018281548110613ae657fe5b9060005260206000200154905092915050565b3b151590565b600054610100900460ff1680613b185750613b186130a9565b80613b26575060005460ff16155b613b615760405162461bcd60e51b815260040180806020018281038252602e815260200180615ca4602e913960400191505060405180910390fd5b600054610100900460ff16158015613157576000805460ff1961ff0019909116610100171660011790558015611b0f576000805461ff001916905550565b600054610100900460ff1680613bb85750613bb86130a9565b80613bc6575060005460ff16155b613c015760405162461bcd60e51b815260040180806020018281038252602e815260200180615ca4602e913960400191505060405180910390fd5b600054610100900460ff16158015613c2c576000805460ff1961ff0019909116610100171660011790555b6000613c36612d4b565b609780546001600160a01b0319166001600160a01b038316908117909155604051919250906000907f8be0079c531659141344cd1fd0a4f28419497f9722a3daafe3b4186f6b6457e0908290a3508015611b0f576000805461ff001916905550565b600054610100900460ff1680613cb15750613cb16130a9565b80613cbf575060005460ff16155b613cfa5760405162461bcd60e51b815260040180806020018281038252602e815260200180615ca4602e913960400191505060405180910390fd5b600054610100900460ff16158015613d25576000805460ff1961ff0019909116610100171660011790555b600160c9558015611b0f576000805461ff001916905550565b600054610100900460ff1680613d575750613d576130a9565b80613d65575060005460ff16155b613da05760405162461bcd60e51b815260040180806020018281038252602e815260200180615ca4602e913960400191505060405180910390fd5b600054610100900460ff16158015613dcb576000805460ff1961ff0019909116610100171660011790555b6131576301ffc9a760e01b61452b565b600054610100900460ff1680613df45750613df46130a9565b80613e02575060005460ff16155b613e3d5760405162461bcd60e51b815260040180806020018281038252602e815260200180615ca4602e913960400191505060405180910390fd5b600054610100900460ff16158015613e68576000805460ff1961ff0019909116610100171660011790555b8251613e7b90606a906020860190614846565b508151613e8f90606b906020850190614846565b50613ea06380ac58cd60e01b61452b565b613eb0635b5e139f60e01b61452b565b6132a763780e9d6360e01b61452b565b815460009081908310613f045760405162461bcd60e51b8152600401808060200182810382526022815260200180615cd26022913960400191505060405180910390fd5b6000846000018481548110613f1557fe5b906000526020600020906002020190508060000154816001015492509250509250929050565b60008281526001840160205260408120548281613fd65760405162461bcd60e51b81526004018080602001828103825283818151815260200191508051906020019080838360005b83811015613f9b578181015183820152602001613f83565b50505050905090810190601f168015613fc85780820380516001836020036101000a031916815260200191505b509250505060405180910390fd5b50846000016001820381548110613fe957fe5b9060005260206000209060020201600101549150509392505050565b60ff546040516227050b60e31b81526060916000916001600160a01b03909116906301382858906140389060040161560a565b60206040518083038186803b15801561405057600080fd5b505afa158015614064573d6000803e3d6000fd5b505050506040513d601f19601f820116820180604052508101906140889190614ad7565b604051633f9f3eff60e21b81529091506001600160a01b0382169063fe7cfbfc906140b790869060040161544d565b60006040518083038186803b1580156140cf57600080fd5b505afa1580156140e3573d6000803e3d6000fd5b505050506040513d6000823e601f3d908101601f191682016040526132fe9190810190614dc5565b600081831061411a5781610fc3565b5090919050565b6000614135846001600160a01b0316613af9565b61414157506001611f8a565b606061424f630a85bd0160e11b614156612d4b565b88878760405160240180856001600160a01b03168152602001846001600160a01b0316815260200183815260200180602001828103825283818151815260200191508051906020019080838360005b838110156141bd5781810151838201526020016141a5565b50505050905090810190601f1680156141ea5780820380516001836020036101000a031916815260200191505b5095505050505050604051602081830303815290604052906001600160e01b0319166020820180516001600160e01b038381831617835250505050604051806060016040528060328152602001615b4b603291396001600160a01b0388169190614423565b9050600081806020019051602081101561426857600080fd5b50516001600160e01b031916630a85bd0160e11b1492505050949350505050565b6000818152600183016020526040812054801561434557835460001980830191908101906000908790839081106142bc57fe5b90600052602060002001549050808760000184815481106142d957fe5b60009182526020808320909101929092558281526001898101909252604090209084019055865487908061430957fe5b60019003818190600052602060002001600090559055866001016000878152602001908152602001600020600090556001945050505050610fc6565b6000915050610fc6565b60008181526001830160205260408120548015614345578354600019808301919081019060009087908390811061438257fe5b90600052602060002090600202019050808760000184815481106143a257fe5b6000918252602080832084546002909302019182556001938401549184019190915583548252898301905260409020908401905586548790806143e157fe5b6000828152602080822060026000199094019384020182815560019081018390559290935588815289820190925260408220919091559450610fc69350505050565b60606132fb84846000856145af565b60009081526001919091016020526040902054151590565b60006144568383614432565b61448c57508154600181810184556000848152602080822090930184905584548482528286019093526040902091909155610fc6565b506000610fc6565b6000828152600184016020526040812054806144f95750506040805180820182528381526020808201848152865460018181018955600089815284812095516002909302909501918255915190820155865486845281880190925292909120556132fe565b8285600001600183038154811061450c57fe5b90600052602060002090600202016001018190555060009150506132fe565b6001600160e01b0319808216141561458a576040805162461bcd60e51b815260206004820152601c60248201527f4552433136353a20696e76616c696420696e7465726661636520696400000000604482015290519081900360640190fd5b6001600160e01b0319166000908152603360205260409020805460ff19166001179055565b6060824710156145f05760405162461bcd60e51b8152600401808060200182810382526026815260200180615bc76026913960400191505060405180910390fd5b6145f985613af9565b61464a576040805162461bcd60e51b815260206004820152601d60248201527f416464726573733a2063616c6c20746f206e6f6e2d636f6e7472616374000000604482015290519081900360640190fd5b60006060866001600160a01b031685876040518082805190602001908083835b602083106146895780518252601f19909201916020918201910161466a565b6001836020036101000a03801982511681845116808217855250505050505090500191505060006040518083038185875af1925050503d80600081146146eb576040519150601f19603f3d011682016040523d82523d6000602084013e6146f0565b606091505b509150915061470082828661470b565b979650505050505050565b6060831561471a5750816132fe565b82511561472a5782518084602001fd5b60405162461bcd60e51b8152602060048201818152845160248401528451859391928392604401919085019080838360008315613f9b578181015183820152602001613f83565b6040805161014081018252600080825260208201819052918101829052606081018290526080810182905260a0810182905260c0810182905260e08101829052610100810182905261012081019190915290565b6040518060e00160405280600081526020016000815260200160008152602001600081526020016000815260200160008152602001600081525090565b50805460018160011615610100020316600290046000825580601f106148285750611b0f565b601f016020900490600052602060002090810190611b0f91906148d2565b828054600181600116156101000203166002900490600052602060002090601f01602090048101928261487c57600085556148c2565b82601f1061489557805160ff19168380011785556148c2565b828001600101855582156148c2579182015b828111156148c25782518255916020019190600101906148a7565b506148ce9291506148d2565b5090565b5b808211156148ce57600081556001016148d3565b8035610b5d81615ac6565b600082601f830112614902578081fd5b813561491561491082615a5c565b615a39565b81815291506020808301908481018184028601820187101561493657600080fd5b60005b8481101561495557813584529282019290820190600101614939565b505050505092915050565b600082601f830112614970578081fd5b813561497e61491082615a5c565b81815291506020808301908481018184028601820187101561499f57600080fd5b60005b848110156149555781356149b581615ae9565b845292820192908201906001016149a2565b600082601f8301126149d7578081fd5b81356149e561491082615a5c565b818152915060208083019084810181840286018201871015614a0657600080fd5b60005b84811015614955578135614a1c81615af9565b84529282019290820190600101614a09565b60008083601f840112614a3f578182fd5b5081356001600160401b03811115614a55578182fd5b6020830191508360208285010111156132e757600080fd5b600082601f830112614a7d578081fd5b8135614a8b61491082615a79565b9150808252836020828501011115614aa257600080fd5b8060208401602084013760009082016020015292915050565b600060208284031215614acc578081fd5b8135610fc381615ac6565b600060208284031215614ae8578081fd5b8151610fc381615ac6565b60008060408385031215614b05578081fd5b8235614b1081615ac6565b91506020830135614b2081615ac6565b809150509250929050565b600080600080600080600060e0888a031215614b45578283fd5b8735614b5081615ac6565b96506020880135614b6081615ac6565b95506040880135614b7081615ac6565b9450606088013593506080880135614b8781615ac6565b925060a08801356001600160401b0380821115614ba2578384fd5b614bae8b838c01614a6d565b935060c08a0135915080821115614bc3578283fd5b50614bd08a828b01614a6d565b91505092959891949750929550565b600080600060608486031215614bf3578081fd5b8335614bfe81615ac6565b92506020840135614c0e81615ac6565b929592945050506040919091013590565b60008060008060808587031215614c34578182fd5b8435614c3f81615ac6565b93506020850135614c4f81615ac6565b92506040850135915060608501356001600160401b03811115614c70578182fd5b614c7c87828801614a6d565b91505092959194509250565b60008060008060008060008060e0898b031215614ca3578182fd5b8835614cae81615ac6565b97506020890135614cbe81615ac6565b9650604089013595506060890135614cd581615ae9565b94506080890135614ce581615af9565b935060a0890135925060c08901356001600160401b03811115614d06578283fd5b614d128b828c01614a2e565b999c989b5096995094979396929594505050565b60008060408385031215614d38578182fd5b8235614d4381615ac6565b91506020830135614b2081615adb565b60008060408385031215614d65578182fd5b8235614d7081615ac6565b946020939093013593505050565b60008060008060808587031215614d93578182fd5b8435614d9e81615ac6565b9350602085013592506040850135614db581615adb565b9396929550929360600135925050565b60006020808385031215614dd7578182fd5b82516001600160401b03811115614dec578283fd5b8301601f81018513614dfc578283fd5b8051614e0a61491082615a5c565b8181528381019083850185840285018601891015614e26578687fd5b8694505b83851015614e48578051835260019490940193918501918501614e2a565b50979650505050505050565b600060208284031215614e65578081fd5b8135610fc381615adb565b600060208284031215614e81578081fd5b8151610fc381615adb565b600060208284031215614e9d578081fd5b81356001600160e01b031981168114610fc3578182fd5b60008060408385031215614ec6578182fd5b82516001600160401b03811115614edb578283fd5b8301601f81018513614eeb578283fd5b8051614ef961491082615a79565b818152866020838501011115614f0d578485fd5b614f1e826020830160208601615a9a565b60209590950151949694955050505050565b600080600060608486031215614f44578081fd5b835160038110614f52578182fd5b602085015160408601519194509250614f6a81615ac6565b809150509250925092565b600060208284031215614f86578081fd5b81356001600160401b03811115614f9b578182fd5b611f8a84828501614a6d565b600060208284031215614fb8578081fd5b81356001600160401b0380821115614fce578283fd5b8184019150610180808387031215614fe4578384fd5b614fed81615a39565b9050823582811115614ffd578485fd5b61500987828601614960565b82525060208301358281111561501d578485fd5b61502987828601614960565b602083015250604083013582811115615040578485fd5b61504c878286016148f2565b60408301525061505e606084016148e7565b60608201526080830135608082015261507960a084016148e7565b60a082015260c083013560c082015260e083013582811115615099578485fd5b6150a5878286016148f2565b60e08301525061010080840135838111156150be578586fd5b6150ca888287016148f2565b82840152505061012080840135838111156150e3578586fd5b6150ef888287016149c7565b8284015250506101408084013583811115615108578586fd5b615114888287016148f2565b828401525050610160808401358381111561512d578586fd5b615139888287016148f2565b918301919091525095945050505050565b60006020828403121561515b578081fd5b5035919050565b600060208284031215615173578081fd5b5051919050565b60008060006040848603121561518e578081fd5b8335925060208401356001600160401b038111156151aa578182fd5b6151b686828701614a2e565b9497909650939450505050565b600080604083850312156151d5578182fd5b50508035926020909101359150565b6000806000606084860312156151f8578081fd5b83519250602084015191506040840151614f6a81615ac6565b600080600080600080600060c0888a03121561522b578081fd5b8735965060208801359550604088013561524481615ac6565b9450606088013561525481615ac6565b9350608088013561526481615ac6565b925060a08801356001600160401b0381111561527e578182fd5b61528a8a828b01614a2e565b989b979a50959850939692959293505050565b60008060008060008060a087890312156152b5578384fd5b863595506020870135945060408701356152ce81615ac6565b935060608701356152de81615af9565b925060808701356001600160401b038111156152f8578283fd5b61530489828a01614a2e565b979a9699509497509295939492505050565b6000806000806080858703121561532b578182fd5b843593506020850135925060408501359150606085013561534b81615ac6565b939692955090935050565b600080600080600080600080610100898b031215615372578182fd5b885161537d81615af9565b60208a015160408b0151919950975061539581615ae9565b60608a015160808b015191975095506153ad81615ac6565b60a08a01519094506153be81615ac6565b60c08a015160e08b015191945092506153d681615ac6565b809150509295985092959890939650565b6001600160a01b03169052565b60008284528282602086013780602084860101526020601f19601f85011685010190509392505050565b60008151808452615436816020860160208601615a9a565b601f01601f19169290920160200192915050565b90565b6001600160a01b0391909116815260200190565b6001600160a01b038881168252871660208201526040810186905261ffff8516606082015260006001851061549257fe5b84608083015260c060a08301526154ad60c0830184866153f4565b9998505050505050505050565b6001600160a01b03929092168252602082015260400190565b901515815260200190565b6000604082526154f1604083018561541e565b90508260208301529392505050565b606081016003851061550e57fe5b93815260208101929092526001600160a01b031660409091015290565b600060208252610fc3602083018461541e565b60208082526028908201527f4469737472696275746f723a205472616e7366657220746f20747265617375726040820152671e4819985a5b195960c21b606082015260800190565b6020808252602d908201527f4469737472696275746f723a20636f766572207072696365207769746820666560408201526c0ca40caf0c6cacac8e640dac2f609b1b606082015260800190565b6020808252601d908201527f4469737472696275746f723a2062757973206e6f7420616c6c6f776564000000604082015260600190565b61145160f21b815260200190565b60208082526036908201527f4469737472696275746f723a2052657475726e696e67204554482072656d6169604082015275373232b9103a379039b2b73232b9103330b4b632b21760511b606082015260800190565b61503160f01b815260200190565b6020808252602b908201527f4469737472696275746f723a20455448207472616e7366657220746f2073656e60408201526a3232b9103330b4b632b21760a91b606082015260800190565b60208082526029908201527f4469737472696275746f723a205472616e7366657220746f204e4654206f776e604082015268195c8819985a5b195960ba1b606082015260800190565b60208082526022908201527f4469737472696275746f723a20496e73756666696369656e74204554482073656040820152611b9d60f21b606082015260800190565b60208082526022908201527f4469737472696275746f723a204e6f7420617070726f766564206f72206f776e60408201526132b960f11b606082015260800190565b61475760f01b815260200190565b60208082526025908201527f4469737472696275746f723a20636f766572496420636c61696d4964206d69736040820152640dac2e8c6d60db1b606082015260800190565b6020808252601590820152742ab739bab83837b93a32b21037b832b930ba34b7b760591b604082015260600190565b6020808252601f908201527f4469737472696275746f723a20436c61696d206e6f7420616363657074656400604082015260600190565b600060e082019050825182526020830151602083015260408301516040830152606083015160608301526080830151608083015260a083015160a083015260c083015160c083015292915050565b600061014082019050825182526020830151602083015260408301516040830152606083015160608301526080830151608083015260a08301516158e260a08401826153e7565b5060c08301516158f560c08401826153e7565b5060e083015160e08301526101008084015181840152506101208084015161591f828501826153e7565b505092915050565b90815260200190565b9182526001600160a01b0316602082015260400190565b6000848252604060208301526159616040830184866153f4565b95945050505050565b918252602082015260400190565b92835260208301919091526001600160a01b0316604082015260600190565b938452602084019290925260408301526001600160a01b0316606082015260800190565b600085825260ff85166020830152606060408301526159de6060830184866153f4565b9695505050505050565b60ff989098168852602088019690965261ffff94909416604087015260608601929092526001600160a01b03908116608086015290811660a085015260c08401919091521660e08201526101000190565b6040518181016001600160401b0381118282101715615a5457fe5b604052919050565b60006001600160401b03821115615a6f57fe5b5060209081020190565b60006001600160401b03821115615a8c57fe5b50601f01601f191660200190565b60005b83811015615ab5578181015183820152602001615a9d565b8381111561218c5750506000910152565b6001600160a01b0381168114611b0f57600080fd5b8015158114611b0f57600080fd5b61ffff81168114611b0f57600080fd5b60ff81168114611b0f57600080fdfe456e756d657261626c655365743a20696e646578206f7574206f6620626f756e64735265656e7472616e637947756172643a207265656e7472616e742063616c6c004552433732313a207472616e7366657220746f206e6f6e20455243373231526563656976657220696d706c656d656e7465724f776e61626c653a206e6577206f776e657220697320746865207a65726f20616464726573734552433732313a207472616e7366657220746f20746865207a65726f2061646472657373416464726573733a20696e73756666696369656e742062616c616e636520666f722063616c6c4552433732313a206f70657261746f7220717565727920666f72206e6f6e6578697374656e7420746f6b656e4552433732313a20617070726f76652063616c6c6572206973206e6f74206f776e6572206e6f7220617070726f76656420666f7220616c6c4552433732313a2062616c616e636520717565727920666f7220746865207a65726f20616464726573734552433732313a206f776e657220717565727920666f72206e6f6e6578697374656e7420746f6b656e496e697469616c697a61626c653a20636f6e747261637420697320616c726561647920696e697469616c697a6564456e756d657261626c654d61703a20696e646578206f7574206f6620626f756e6473536166654d6174683a206d756c7469706c69636174696f6e206f766572666c6f774552433732313a20617070726f76656420717565727920666f72206e6f6e6578697374656e7420746f6b656e4f776e61626c653a2063616c6c6572206973206e6f7420746865206f776e65724552433732313a207472616e73666572206f6620746f6b656e2074686174206973206e6f74206f776e4552433732314d657461646174613a2055524920717565727920666f72206e6f6e6578697374656e7420746f6b656e4552433732313a20617070726f76616c20746f2063757272656e74206f776e657268747470733a2f2f627269676874756e696f6e2e696f2f646f63756d656e74732f6e6674732f6e657875732f636f7665722e706e674552433732313a207472616e736665722063616c6c6572206973206e6f74206f776e6572206e6f7220617070726f7665645361666545524332303a204552433230206f7065726174696f6e20646964206e6f742073756363656564a2646970667358221220780478a7448587ceb68a3b10c6d723b98f634b26f472f97a8e055eb83d6709af64736f6c63430007040033",
  "immutableReferences": {},
  "source": "/* Copyright (C) 2021 NexusMutual.io\n\n  This program is free software: you can redistribute it and/or modify\n    it under the terms of the GNU General Public License as published by\n    the Free Software Foundation, either version 3 of the License, or\n    (at your option) any later version.\n\n  This program is distributed in the hope that it will be useful,\n    but WITHOUT ANY WARRANTY; without even the implied warranty of\n    MERCHANTABILITY or FITNESS FOR A PARTICULAR PURPOSE.  See the\n    GNU General Public License for more details.\n\n  You should have received a copy of the GNU General Public License\n    along with this program.  If not, see http://www.gnu.org/licenses/ */\n\npragma solidity ^0.7.4;\npragma experimental ABIEncoderV2;\n\nimport \"@openzeppelin/contracts-upgradeable/token/ERC721/ERC721Upgradeable.sol\";\nimport \"@openzeppelin/contracts-upgradeable/token/ERC20/IERC20Upgradeable.sol\";\nimport \"@openzeppelin/contracts-upgradeable/token/ERC20/SafeERC20Upgradeable.sol\";\nimport \"@openzeppelin/contracts-upgradeable/access/OwnableUpgradeable.sol\";\nimport \"@openzeppelin/contracts-upgradeable/utils/ReentrancyGuardUpgradeable.sol\";\nimport \"@openzeppelin/contracts-upgradeable/math/SafeMathUpgradeable.sol\";\nimport \"@openzeppelin/contracts/math/Math.sol\";\nimport \"./interfaces/IGateway.sol\";\nimport \"./interfaces/IPool.sol\";\nimport \"./interfaces/INXMaster.sol\";\nimport \"../../IDistributor.sol\";\nimport \"./interfaces/IQuotationData.sol\";\nimport \"../AbstractDistributor.sol\";\n\ncontract NexusDistributor is AbstractDistributor,\n    ERC721Upgradeable,\n    OwnableUpgradeable,\n    ReentrancyGuardUpgradeable,\n    IDistributor\n{\n    using SafeMathUpgradeable for uint256;\n    using SafeERC20Upgradeable for IERC20Upgradeable;\n    using Math for uint256;\n\n    string public constant DEFAULT_BASE_URI =\n        \"https://brightunion.io/documents/nfts/nexus/cover.png\";\n\n    event ClaimPayoutRedeemed(\n        uint256 indexed coverId,\n        uint256 indexed claimId,\n        address indexed receiver,\n        uint256 amountPaid,\n        address coverAsset\n    );\n\n    event ClaimSubmitted(\n        uint256 indexed coverId,\n        uint256 indexed claimId,\n        address indexed submitter\n    );\n\n    event CoverBought(\n        uint256 indexed coverId,\n        address indexed buyer,\n        address indexed contractAddress,\n        uint256 feePercentage,\n        uint256 coverPrice\n    );\n\n    /*\n   feePercentage applied to every cover premium. has 2 decimals. eg.: 10.00% stored as 1000\n  */\n    uint256 public feePercentage;\n    bool public buysAllowed;\n    /*\n    address where `buyCover` distributor fees and `ethOut` from `sellNXM` are sent. Controlled by Owner.\n  */\n    address payable public treasury;\n\n    /*\n    NexusMutual contracts\n  */\n    IGateway public gateway;\n    IERC20Upgradeable public nxmToken;\n    INXMaster public master;\n\n    modifier onlyTokenApprovedOrOwner(uint256 tokenId) {\n        require(\n            _isApprovedOrOwner(msg.sender, tokenId),\n            \"Distributor: Not approved or owner\"\n        );\n        _;\n    }\n\n    /**\n     * @dev Standard pattern of constructing proxy contracts with the same signature as the constructor.\n     */\n    function __NexusDistributor_init (\n        address gatewayAddress,\n        address nxmTokenAddress,\n        address masterAddress,\n        uint256 _feePercentage,\n        address payable _treasury,\n        string memory tokenName,\n        string memory tokenSymbol\n    ) public initializer {\n        __Ownable_init();\n        __ReentrancyGuard_init();\n        __ERC721_init(tokenName, tokenSymbol);\n\n        _setBaseURI(DEFAULT_BASE_URI);\n        buysAllowed = true;\n        feePercentage = _feePercentage;\n        treasury = _treasury;\n        gateway = IGateway(gatewayAddress);\n        nxmToken = IERC20Upgradeable(nxmTokenAddress);\n        master = INXMaster(masterAddress);\n    }\n\n    function getCoverCount(address _owner, bool _isActive) external view override returns (uint256){\n        //TODO filter out inactive\n        return balanceOf(_owner);\n    }\n\n    function getCover(\n        address _owner,\n        uint256 _coverId,\n        bool _isActive,\n        uint256 _loopLimit\n    ) external view override returns (IDistributor.Cover memory){\n        IDistributor.Cover memory cover;\n        if (_isActive == true) {\n            cover = _nexusGetCoversBoughtFromNexusDirectly(_owner, _coverId, _loopLimit);\n        } else {\n            cover = _nexusGetCoversBoughtFromNexusDistributor(_owner, _coverId, _loopLimit);\n        }\n        return cover;\n    }\n\n    function _nexusGetCoversBoughtFromNexusDirectly(\n        address _owner,\n        uint256 _coverId,\n        uint256 _loopLimit\n    ) internal view returns (Cover memory) {\n        uint[] memory userCovers = _nexusGetAllCoversOfUser(_owner);\n        uint limit = userCovers.length.min(_loopLimit);\n\n        Cover[] memory covers = new Cover[](userCovers.length);\n\n        for (uint id = 0; id < limit; id++) {\n            Cover memory cover;\n            (uint8 status,\n            uint256 sumAssured,\n            uint16 coverPeriod,\n            uint256 validUntil,\n            address contractAddress,\n            address coverAsset,\n            uint256 premiumInNXM,\n            address memberAddress) = getCover(id);\n\n            cover.status = status;\n            cover.coverAmount = sumAssured;\n            cover.productId = coverPeriod;\n            cover.expiration = validUntil;\n            cover.contractAddress = contractAddress;\n            cover.currency = coverAsset;\n            cover.premium = premiumInNXM;\n            cover.refAddress = memberAddress;\n\n            covers[id] = cover;\n        }\n        return covers[_coverId];\n    }\n\n    function _nexusGetCoversBoughtFromNexusDistributor(\n        address _owner,\n        uint256 _coverId,\n        uint256 _loopLimit\n    ) internal view returns (Cover memory) {\n        uint ownerBalance = balanceOf(_owner);\n        uint limit = ownerBalance.min(_loopLimit);\n\n        Cover[] memory covers = new Cover[](ownerBalance);\n\n        for (uint i = 0; i < limit; i++) {\n            uint256 tokenId = tokenOfOwnerByIndex(_owner, i);\n\n            Cover memory cover;\n\n            (uint8 status,\n            uint256 sumAssured,\n            uint16 coverPeriod,\n            uint256 validUntil,\n            address contractAddress,\n            address coverAsset,\n            uint256 premiumInNXM,\n            address memberAddress) = getCover(tokenId);\n\n            cover.status = status;\n            cover.coverAmount = sumAssured;\n            cover.productId = coverPeriod;\n            cover.expiration = validUntil;\n            cover.contractAddress = contractAddress;\n            cover.currency = coverAsset;\n            cover.premium = premiumInNXM;\n            cover.refAddress = memberAddress;\n            covers[i] = cover;\n        }\n        return covers[_coverId];\n    }\n\n    function _nexusGetAllCoversOfUser(address _add) internal view returns (uint[] memory) {\n        address nexusQuotationDataAddress = master.getLatestAddress(\"QD\");\n        return IQuotationData(nexusQuotationDataAddress).getAllCoversOfUser(_add);\n    }\n\n    function getQuote(\n        uint256 _sumAssured,\n        uint256 _coverPeriod,\n        address _contractAddress,\n        address _coverAsset,\n        address _nexusCoverable,\n        bytes calldata _data\n    ) public view override returns (\n        IDistributor.CoverQuote memory\n    ){\n        address nexusGatewayAddress = master.getLatestAddress(\"GW\");\n        IQuotationData quoteData = IQuotationData(master.getLatestAddress(\"QD\"));\n\n\n        uint256 coverPrice = IGateway(nexusGatewayAddress).getCoverPrice(\n            _contractAddress,\n            _coverAsset,\n            _sumAssured,\n            uint16(_coverPeriod),\n            IGateway.CoverType(1),\n            _data\n        );\n\n        CoverQuote memory coverQuote;\n        coverQuote.prop1 = feePercentage;\n        coverQuote.prop2 = coverQuote.prop1.mul(coverPrice)\n        .div(10000)\n        .add(coverPrice);\n        coverQuote.prop3 = quoteData.getCoverLength();\n        coverQuote.prop4 = quoteData.getTotalSumAssuredSC(_nexusCoverable, \"DAI\");\n        coverQuote.prop5 = quoteData.getTotalSumAssuredSC(_nexusCoverable, \"ETH\");\n        coverQuote.prop6 = quoteData.getTotalSumAssured(\"DAI\");\n        coverQuote.prop7 = quoteData.getTotalSumAssured(\"ETH\");\n\n        return coverQuote;\n    }\n\n    /**\n     * @dev buy cover for a coverable identified by its contractAddress\n     * @param contractAddress contract address of coverable\n     * @param coverAsset asset of the premium and of the sum assured.\n     * @param sumAssured amount payable if claim is submitted and considered valid\n     * @param coverType cover type dermining how the data parameter is decoded\n     * @param maxPriceWithFee max price (including fee) to be spent on the cover.\n     * @param data abi-encoded field with additional cover data fields\n     */\n   function buyCover(\n        address contractAddress,\n        address coverAsset,\n        uint256 sumAssured,\n        uint16 coverPeriod,\n        uint8 coverType,\n        uint256 maxPriceWithFee,\n        bytes calldata data\n    ) external payable nonReentrant override  {\n        require(buysAllowed, \"Distributor: buys not allowed\");\n\n        uint256 coverPrice = gateway.getCoverPrice(\n            contractAddress,\n            coverAsset,\n            sumAssured,\n            coverPeriod,\n            IGateway.CoverType(coverType),\n            data\n        );\n        uint256 coverPriceWithFee = feePercentage\n            .mul(coverPrice)\n            .div(10000)\n            .add(coverPrice);\n        require(\n            coverPriceWithFee <= maxPriceWithFee,\n            \"Distributor: cover price with fee exceeds max\"\n        );\n\n        uint256 buyCoverValue = 0;\n        if (coverAsset == ETH) {\n            require(msg.value >= coverPriceWithFee, \"Distributor: Insufficient ETH sent\");\n            uint256 remainder = msg.value.sub(coverPriceWithFee);\n\n            if (remainder > 0) {\n                // solhint-disable-next-line avoid-low-level-calls\n                (\n                    bool ok, /* data */\n\n                ) = address(msg.sender).call{value: remainder}(\"\");\n                require(\n                    ok,\n                    \"Distributor: Returning ETH remainder to sender failed.\"\n                );\n            }\n\n            buyCoverValue = coverPrice;\n        } else {\n            IERC20Upgradeable token = IERC20Upgradeable(coverAsset);\n            token.safeTransferFrom(\n                msg.sender,\n                address(this),\n                coverPriceWithFee\n            );\n            token.approve(address(gateway), coverPrice);\n        }\n\n        uint256 coverId = gateway.buyCover{value: buyCoverValue}(\n            contractAddress,\n            coverAsset,\n            sumAssured,\n            coverPeriod,\n            IGateway.CoverType(coverType),\n            data\n        );\n\n        uint256 fee = coverPriceWithFee.sub(coverPrice);\n        if (fee > 0) {\n            transferToTreasury(fee, coverAsset);\n        }\n\n        // mint token using the coverId as a tokenId (guaranteed unique)\n        _mint(msg.sender, coverId);\n\n        emit CoverBought(\n            coverId,\n            msg.sender,\n            contractAddress,\n            feePercentage,\n            coverPrice\n        );\n\n    }\n\n    function buyCoverInsurace(IDistributor.BuyInsuraceQuote memory) external payable override nonReentrant {\n        revert(\"Unsupported operation\");\n    }\n\n    function supportsInterface(bytes4 interfaceId) public view override (IERC165Upgradeable,ERC165Upgradeable) returns (bool) {\n        return interfaceId == type(IDistributor).interfaceId;\n    }\n\n    /**\n     * @notice Submit a claim for the cover\n     * @param tokenId cover token id\n     * @param data abi-encoded field with additional claim data fields\n     */\n    function submitClaim(uint256 tokenId, bytes calldata data)\n        external\n        onlyTokenApprovedOrOwner(tokenId)\n        returns (uint256)\n    {\n        // coverId = tokenId\n        uint256 claimId = gateway.submitClaim(tokenId, data);\n        emit ClaimSubmitted(tokenId, claimId, msg.sender);\n        return claimId;\n    }\n\n    /**\n     * @notice Submit a claim for the cover\n     * @param tokenId cover token id\n     * @param incidentId id of the incident\n     * @param coveredTokenAmount amount of yield tokens covered\n     * @param coverAsset yield token that is covered\n     */\n    function claimTokens(\n        uint256 tokenId,\n        uint256 incidentId,\n        uint256 coveredTokenAmount,\n        address coverAsset\n    )\n        external\n        onlyTokenApprovedOrOwner(tokenId)\n        returns (\n            uint256 claimId,\n            uint256 payoutAmount,\n            address payoutToken\n        )\n    {\n        IERC20Upgradeable token = IERC20Upgradeable(coverAsset);\n        token.safeTransferFrom(msg.sender, address(this), coveredTokenAmount);\n        token.approve(address(gateway), coveredTokenAmount);\n        // coverId = tokenId\n        (claimId, payoutAmount, payoutToken) = gateway.claimTokens(\n            tokenId,\n            incidentId,\n            coveredTokenAmount,\n            coverAsset\n        );\n        _burn(tokenId);\n        if (payoutToken == ETH) {\n            (\n                bool ok, /* data */\n\n            ) = address(msg.sender).call{value: payoutAmount}(\"\");\n            require(ok, \"Distributor: ETH transfer to sender failed.\");\n        } else {\n            IERC20Upgradeable(payoutToken).safeTransfer(\n                msg.sender,\n                payoutAmount\n            );\n        }\n        emit ClaimSubmitted(tokenId, claimId, msg.sender);\n    }\n\n    /**\n     * @notice Redeem the claim to the cover. Requires that the payout is completed.\n     * @param tokenId cover token id\n     */\n    function redeemClaim(uint256 tokenId, uint256 claimId)\n        public\n        onlyTokenApprovedOrOwner(tokenId)\n        nonReentrant\n    {\n        uint256 coverId = gateway.getClaimCoverId(claimId);\n        require(coverId == tokenId, \"Distributor: coverId claimId mismatch\");\n        (\n            IGateway.ClaimStatus status,\n            uint256 amountPaid,\n            address coverAsset\n        ) = gateway.getPayoutOutcome(claimId);\n        require(\n            status == IGateway.ClaimStatus.ACCEPTED,\n            \"Distributor: Claim not accepted\"\n        );\n\n        _burn(tokenId);\n        if (coverAsset == ETH) {\n            (\n                bool ok, /* data */\n\n            ) = msg.sender.call{value: amountPaid}(\"\");\n            require(ok, \"Distributor: Transfer to NFT owner failed\");\n        } else {\n            IERC20Upgradeable erc20 = IERC20Upgradeable(coverAsset);\n            erc20.safeTransfer(msg.sender, amountPaid);\n        }\n\n        emit ClaimPayoutRedeemed(\n            tokenId,\n            claimId,\n            msg.sender,\n            amountPaid,\n            coverAsset\n        );\n    }\n\n    /**\n  * @notice Execute an action on specific cover token. The action is identified by an `action` id.\n      Allows for an ETH transfer or an ERC20 transfer.\n      If less than the supplied assetAmount is needed, it is returned to `msg.sender`.\n  * @dev The purpose of this function is future-proofing for updates to the cover buy->claim cycle.\n  * @param tokenId id of the cover token\n  * @param assetAmount optional asset amount to be transferred along with the action executed\n  * @param asset optional asset to be transferred along with the action executed\n  * @param action action identifier\n  * @param data abi-encoded field with action parameters\n  * @return response (abi-encoded response, amount withheld from the original asset amount supplied)\n  */\n    function executeCoverAction(\n        uint256 tokenId,\n        uint256 assetAmount,\n        address asset,\n        uint8 action,\n        bytes calldata data\n    )\n        external\n        payable\n        onlyTokenApprovedOrOwner(tokenId)\n        nonReentrant\n        returns (bytes memory response, uint256 withheldAmount)\n    {\n        if (assetAmount == 0) {\n            return gateway.executeCoverAction(tokenId, action, data);\n        }\n        if (asset == ETH) {\n            require(\n                msg.value >= assetAmount,\n                \"Distributor: Insufficient ETH sent\"\n            );\n            (response, withheldAmount) = gateway.executeCoverAction{\n                value: msg.value\n            }(tokenId, action, data);\n            uint256 ethRemainder = assetAmount.sub(withheldAmount);\n            (\n                bool ok, /* data */\n\n            ) = address(msg.sender).call{value: ethRemainder}(\"\");\n            require(\n                ok,\n                \"Distributor: Returning ETH remainder to sender failed.\"\n            );\n            return (response, withheldAmount);\n        }\n\n        IERC20Upgradeable token = IERC20Upgradeable(asset);\n        token.safeTransferFrom(msg.sender, address(this), assetAmount);\n        token.approve(address(gateway), assetAmount);\n        (response, withheldAmount) = gateway.executeCoverAction(\n            tokenId,\n            action,\n            data\n        );\n        uint256 remainder = assetAmount.sub(withheldAmount);\n        token.safeTransfer(msg.sender, remainder);\n        return (response, withheldAmount);\n    }\n\n    /**\n     * @notice get cover data\n     * @param tokenId cover token id\n     */\n    function getCover(uint256 tokenId)\n        public\n        view\n        returns (\n            uint8 status,\n            uint256 sumAssured,\n            uint16 coverPeriod,\n            uint256 validUntil,\n            address contractAddress,\n            address coverAsset,\n            uint256 premiumInNXM,\n            address memberAddress\n        )\n    {\n        return gateway.getCover(tokenId);\n    }\n\n    /**\n     * @notice get state of a claim payout. Returns\n     * status of cover,  amount paid as part of the payout, address of the cover asset)\n     * @param claimId id of claim\n     */\n    function getPayoutOutcome(uint256 claimId)\n        public\n        view\n        returns (\n            IGateway.ClaimStatus status,\n            uint256 amountPaid,\n            address coverAsset\n        )\n    {\n        (status, amountPaid, coverAsset) = gateway.getPayoutOutcome(claimId);\n    }\n\n    /**\n     * @notice Set `amount` as the allowance of `spender` over the distributor's NXM tokens.\n     * @param spender approved spender\n     * @param amount amount approved\n     */\n    function approveNXM(address spender, uint256 amount) public onlyOwner {\n        nxmToken.approve(spender, amount);\n    }\n\n    /**\n     * @notice Moves `amount` tokens from the distributor to `recipient`.\n     * @param recipient recipient of NXM\n     * @param amount amount of NXM\n     */\n    function withdrawNXM(address recipient, uint256 amount) public onlyOwner {\n        nxmToken.safeTransfer(recipient, amount);\n    }\n\n    /**\n     * @notice Switch NexusMutual membership to `newAddress`.\n     * @param newAddress address\n     */\n    function switchMembership(address newAddress) external onlyOwner {\n        nxmToken.approve(address(gateway), uint256(-1));\n        gateway.switchMembership(newAddress);\n    }\n\n    /**\n     * @notice Sell Distributor-owned NXM tokens for ETH\n     * @param nxmIn Amount of NXM to sell\n     * @param minEthOut minimum expected Eth received\n     */\n    function sellNXM(uint256 nxmIn, uint256 minEthOut) external onlyOwner {\n        address poolAddress = master.getLatestAddress(\"P1\");\n        nxmToken.approve(poolAddress, nxmIn);\n        uint256 balanceBefore = address(this).balance;\n        IPool(poolAddress).sellNXM(nxmIn, minEthOut);\n        uint256 balanceAfter = address(this).balance;\n\n        transferToTreasury(balanceAfter.sub(balanceBefore), ETH);\n    }\n\n    /**\n     * @notice Set if buyCover calls are allowed (true) or not (false).\n     * @param _buysAllowed value set for buysAllowed\n     */\n    function setBuysAllowed(bool _buysAllowed) external onlyOwner {\n        buysAllowed = _buysAllowed;\n    }\n\n    /**\n     * @notice Set treasury address where `buyCover` distributor fees and `ethOut` from `sellNXM` are sent.\n     * @param _treasury new treasury address\n     */\n    function setTreasury(address payable _treasury) external onlyOwner {\n        treasury = _treasury;\n    }\n\n    /**\n     * @notice Send `amount` of `asset`  to treasury address\n     * @param amount amount of asset\n     * @param asset ERC20 token address or ETH\n     */\n    function transferToTreasury(uint256 amount, address asset) internal {\n        if (asset == ETH) {\n            (\n                bool ok, /* data */\n\n            ) = treasury.call{value: amount}(\"\");\n            require(ok, \"Distributor: Transfer to treasury failed\");\n        } else {\n            IERC20Upgradeable erc20 = IERC20Upgradeable(asset);\n            erc20.safeTransfer(treasury, amount);\n        }\n    }\n\n    /**\n     * @notice Set fee percentage for buyCover premiums.\n     *  `_feePercentage` has 2 decimals of precision ( 5000 is 50%)\n     * @param _feePercentage fee percentage to be set\n     */\n    function setFeePercentage(uint256 _feePercentage) external onlyOwner {\n        feePercentage = _feePercentage;\n    }\n\n    /**\n     * @dev required to be allow for receiving ETH claim payouts\n     */\n    receive() external payable {}\n\n    /**\n     * @dev Function to set the base URI for all token IDs. It is\n     * automatically added as a prefix to the value returned in {tokenURI},\n     * or to the token ID if {tokenURI} is empty.\n     */\n    function setBaseURI(string memory baseURI_) public onlyOwner {\n        _setBaseURI(baseURI_);\n    }\n}\n",
  "sourcePath": "/Users/kirilivanov/DEV/BrightUnion/distributors/contracts/distributors/nexus/NexusDistributor.sol",
  "compiler": {
    "name": "solc",
    "version": "0.7.4+commit.3f05b770.Emscripten.clang"
  },
  "schemaVersion": "3.4.1",
  "updatedAt": "2021-11-16T13:35:30.198Z",
  "networkType": "ethereum",
  "devdoc": {
    "kind": "dev",
    "methods": {
      "__NexusDistributor_init(address,address,address,uint256,address,string,string)": {
        "details": "Standard pattern of constructing proxy contracts with the same signature as the constructor."
      },
      "approve(address,uint256)": {
        "details": "See {IERC721-approve}."
      },
      "approveNXM(address,uint256)": {
        "params": {
          "amount": "amount approved",
          "spender": "approved spender"
        }
      },
      "balanceOf(address)": {
        "details": "See {IERC721-balanceOf}."
      },
      "baseURI()": {
        "details": "Returns the base URI set via {_setBaseURI}. This will be automatically added as a prefix in {tokenURI} to each token's URI, or to the token ID if no specific URI is set for that token ID."
      },
      "buyCover(address,address,uint256,uint16,uint8,uint256,bytes)": {
        "details": "buy cover for a coverable identified by its contractAddress",
        "params": {
          "contractAddress": "contract address of coverable",
          "coverAsset": "asset of the premium and of the sum assured.",
          "coverType": "cover type dermining how the data parameter is decoded",
          "data": "abi-encoded field with additional cover data fields",
          "maxPriceWithFee": "max price (including fee) to be spent on the cover.",
          "sumAssured": "amount payable if claim is submitted and considered valid"
        }
      },
      "claimTokens(uint256,uint256,uint256,address)": {
        "params": {
          "coverAsset": "yield token that is covered",
          "coveredTokenAmount": "amount of yield tokens covered",
          "incidentId": "id of the incident",
          "tokenId": "cover token id"
        }
      },
      "executeCoverAction(uint256,uint256,address,uint8,bytes)": {
        "details": "The purpose of this function is future-proofing for updates to the cover buy->claim cycle.",
        "params": {
          "action": "action identifier",
          "asset": "optional asset to be transferred along with the action executed",
          "assetAmount": "optional asset amount to be transferred along with the action executed",
          "data": "abi-encoded field with action parameters",
          "tokenId": "id of the cover token"
        },
        "returns": {
          "response": "(abi-encoded response, amount withheld from the original asset amount supplied)"
        }
      },
      "getApproved(uint256)": {
        "details": "See {IERC721-getApproved}."
      },
      "getCover(uint256)": {
        "params": {
          "tokenId": "cover token id"
        }
      },
      "getPayoutOutcome(uint256)": {
        "params": {
          "claimId": "id of claim"
        }
      },
      "isApprovedForAll(address,address)": {
        "details": "See {IERC721-isApprovedForAll}."
      },
      "name()": {
        "details": "See {IERC721Metadata-name}."
      },
      "owner()": {
        "details": "Returns the address of the current owner."
      },
      "ownerOf(uint256)": {
        "details": "See {IERC721-ownerOf}."
      },
      "redeemClaim(uint256,uint256)": {
        "params": {
          "tokenId": "cover token id"
        }
      },
      "renounceOwnership()": {
        "details": "Leaves the contract without owner. It will not be possible to call `onlyOwner` functions anymore. Can only be called by the current owner. NOTE: Renouncing ownership will leave the contract without an owner, thereby removing any functionality that is only available to the owner."
      },
      "safeTransferFrom(address,address,uint256)": {
        "details": "See {IERC721-safeTransferFrom}."
      },
      "safeTransferFrom(address,address,uint256,bytes)": {
        "details": "See {IERC721-safeTransferFrom}."
      },
      "sellNXM(uint256,uint256)": {
        "params": {
          "minEthOut": "minimum expected Eth received",
          "nxmIn": "Amount of NXM to sell"
        }
      },
      "setApprovalForAll(address,bool)": {
        "details": "See {IERC721-setApprovalForAll}."
      },
      "setBaseURI(string)": {
        "details": "Function to set the base URI for all token IDs. It is automatically added as a prefix to the value returned in {tokenURI}, or to the token ID if {tokenURI} is empty."
      },
      "setBuysAllowed(bool)": {
        "params": {
          "_buysAllowed": "value set for buysAllowed"
        }
      },
      "setFeePercentage(uint256)": {
        "params": {
          "_feePercentage": "fee percentage to be set"
        }
      },
      "setTreasury(address)": {
        "params": {
          "_treasury": "new treasury address"
        }
      },
      "submitClaim(uint256,bytes)": {
        "params": {
          "data": "abi-encoded field with additional claim data fields",
          "tokenId": "cover token id"
        }
      },
      "switchMembership(address)": {
        "params": {
          "newAddress": "address"
        }
      },
      "symbol()": {
        "details": "See {IERC721Metadata-symbol}."
      },
      "tokenByIndex(uint256)": {
        "details": "See {IERC721Enumerable-tokenByIndex}."
      },
      "tokenOfOwnerByIndex(address,uint256)": {
        "details": "See {IERC721Enumerable-tokenOfOwnerByIndex}."
      },
      "tokenURI(uint256)": {
        "details": "See {IERC721Metadata-tokenURI}."
      },
      "totalSupply()": {
        "details": "See {IERC721Enumerable-totalSupply}."
      },
      "transferFrom(address,address,uint256)": {
        "details": "See {IERC721-transferFrom}."
      },
      "transferOwnership(address)": {
        "details": "Transfers ownership of the contract to a new account (`newOwner`). Can only be called by the current owner."
      },
      "withdrawNXM(address,uint256)": {
        "params": {
          "amount": "amount of NXM",
          "recipient": "recipient of NXM"
        }
      }
    },
    "version": 1
  },
  "userdoc": {
    "kind": "user",
    "methods": {
      "approveNXM(address,uint256)": {
        "notice": "Set `amount` as the allowance of `spender` over the distributor's NXM tokens."
      },
      "claimTokens(uint256,uint256,uint256,address)": {
        "notice": "Submit a claim for the cover"
      },
      "executeCoverAction(uint256,uint256,address,uint8,bytes)": {
        "notice": "Execute an action on specific cover token. The action is identified by an `action` id. Allows for an ETH transfer or an ERC20 transfer. If less than the supplied assetAmount is needed, it is returned to `msg.sender`."
      },
      "getCover(uint256)": {
        "notice": "get cover data"
      },
      "getPayoutOutcome(uint256)": {
        "notice": "get state of a claim payout. Returns status of cover,  amount paid as part of the payout, address of the cover asset)"
      },
      "redeemClaim(uint256,uint256)": {
        "notice": "Redeem the claim to the cover. Requires that the payout is completed."
      },
      "sellNXM(uint256,uint256)": {
        "notice": "Sell Distributor-owned NXM tokens for ETH"
      },
      "setBuysAllowed(bool)": {
        "notice": "Set if buyCover calls are allowed (true) or not (false)."
      },
      "setFeePercentage(uint256)": {
        "notice": "Set fee percentage for buyCover premiums.  `_feePercentage` has 2 decimals of precision ( 5000 is 50%)"
      },
      "setTreasury(address)": {
        "notice": "Set treasury address where `buyCover` distributor fees and `ethOut` from `sellNXM` are sent."
      },
      "submitClaim(uint256,bytes)": {
        "notice": "Submit a claim for the cover"
      },
      "switchMembership(address)": {
        "notice": "Switch NexusMutual membership to `newAddress`."
      },
      "withdrawNXM(address,uint256)": {
        "notice": "Moves `amount` tokens from the distributor to `recipient`."
      }
    },
    "version": 1
  }
}