{
  "contractName": "InsuraceDistributor",
  "abi": [
    {
      "anonymous": false,
      "inputs": [
        {
          "indexed": true,
          "internalType": "address",
          "name": "previousOwner",
          "type": "address"
        },
        {
          "indexed": true,
          "internalType": "address",
          "name": "newOwner",
          "type": "address"
        }
      ],
      "name": "OwnershipTransferred",
      "type": "event"
    },
    {
      "stateMutability": "payable",
      "type": "fallback"
    },
    {
      "inputs": [],
      "name": "coverData",
      "outputs": [
        {
          "internalType": "contract ICoverData",
          "name": "",
          "type": "address"
        }
      ],
      "stateMutability": "view",
      "type": "function"
    },
    {
      "inputs": [],
      "name": "masterCover",
      "outputs": [
        {
          "internalType": "contract ICover",
          "name": "",
          "type": "address"
        }
      ],
      "stateMutability": "view",
      "type": "function"
    },
    {
      "inputs": [],
      "name": "owner",
      "outputs": [
        {
          "internalType": "address",
          "name": "",
          "type": "address"
        }
      ],
      "stateMutability": "view",
      "type": "function"
    },
    {
      "inputs": [],
      "name": "product",
      "outputs": [
        {
          "internalType": "contract IProduct",
          "name": "",
          "type": "address"
        }
      ],
      "stateMutability": "view",
      "type": "function"
    },
    {
      "inputs": [],
      "name": "renounceOwnership",
      "outputs": [],
      "stateMutability": "nonpayable",
      "type": "function"
    },
    {
      "inputs": [
        {
          "internalType": "address",
          "name": "newOwner",
          "type": "address"
        }
      ],
      "name": "transferOwnership",
      "outputs": [],
      "stateMutability": "nonpayable",
      "type": "function"
    },
    {
      "inputs": [
        {
          "internalType": "address",
          "name": "_masterCover",
          "type": "address"
        }
      ],
      "name": "__InsuraceDistributor_init",
      "outputs": [],
      "stateMutability": "nonpayable",
      "type": "function"
    },
    {
      "inputs": [
        {
          "internalType": "address",
          "name": "_owner",
          "type": "address"
        },
        {
          "internalType": "bool",
          "name": "_isActive",
          "type": "bool"
        }
      ],
      "name": "getCoverCount",
      "outputs": [
        {
          "internalType": "uint256",
          "name": "",
          "type": "uint256"
        }
      ],
      "stateMutability": "view",
      "type": "function"
    },
    {
      "inputs": [
        {
          "internalType": "address",
          "name": "_owner",
          "type": "address"
        },
        {
          "internalType": "uint256",
          "name": "_coverId",
          "type": "uint256"
        },
        {
          "internalType": "bool",
          "name": "_interfaceCompliant",
          "type": "bool"
        },
        {
          "internalType": "uint256",
          "name": "_loopLimit",
          "type": "uint256"
        }
      ],
      "name": "getCover",
      "outputs": [
        {
          "components": [
            {
              "internalType": "bytes32",
              "name": "coverType",
              "type": "bytes32"
            },
            {
              "internalType": "uint256",
              "name": "productId",
              "type": "uint256"
            },
            {
              "internalType": "bytes32",
              "name": "contractName",
              "type": "bytes32"
            },
            {
              "internalType": "uint256",
              "name": "coverAmount",
              "type": "uint256"
            },
            {
              "internalType": "uint256",
              "name": "premium",
              "type": "uint256"
            },
            {
              "internalType": "address",
              "name": "currency",
              "type": "address"
            },
            {
              "internalType": "address",
              "name": "contractAddress",
              "type": "address"
            },
            {
              "internalType": "uint256",
              "name": "expiration",
              "type": "uint256"
            },
            {
              "internalType": "uint256",
              "name": "status",
              "type": "uint256"
            },
            {
              "internalType": "address",
              "name": "refAddress",
              "type": "address"
            }
          ],
          "internalType": "struct IDistributor.Cover",
          "name": "cover",
          "type": "tuple"
        }
      ],
      "stateMutability": "view",
      "type": "function"
    },
    {
      "inputs": [
        {
          "internalType": "address",
          "name": "owner",
          "type": "address"
        },
        {
          "internalType": "address",
          "name": "currency",
          "type": "address"
        }
      ],
      "name": "getAllowance",
      "outputs": [
        {
          "internalType": "uint256",
          "name": "",
          "type": "uint256"
        }
      ],
      "stateMutability": "view",
      "type": "function"
    },
    {
      "inputs": [
        {
          "components": [
            {
              "internalType": "uint16[]",
              "name": "products",
              "type": "uint16[]"
            },
            {
              "internalType": "uint16[]",
              "name": "durationInDays",
              "type": "uint16[]"
            },
            {
              "internalType": "uint256[]",
              "name": "amounts",
              "type": "uint256[]"
            },
            {
              "internalType": "address",
              "name": "currency",
              "type": "address"
            },
            {
              "internalType": "uint256",
              "name": "premium",
              "type": "uint256"
            },
            {
              "internalType": "address",
              "name": "owner",
              "type": "address"
            },
            {
              "internalType": "uint256",
              "name": "refCode",
              "type": "uint256"
            },
            {
              "internalType": "uint256[]",
              "name": "helperParameters",
              "type": "uint256[]"
            },
            {
              "internalType": "uint256[]",
              "name": "securityParameters",
              "type": "uint256[]"
            },
            {
              "internalType": "uint8[]",
              "name": "v",
              "type": "uint8[]"
            },
            {
              "internalType": "bytes32[]",
              "name": "r",
              "type": "bytes32[]"
            },
            {
              "internalType": "bytes32[]",
              "name": "s",
              "type": "bytes32[]"
            }
          ],
          "internalType": "struct IDistributor.BuyInsuraceQuote",
          "name": "quote",
          "type": "tuple"
        }
      ],
      "name": "buyCoverInsurace",
      "outputs": [],
      "stateMutability": "payable",
      "type": "function"
    },
    {
      "inputs": [
        {
          "internalType": "address",
          "name": "contractAddress",
          "type": "address"
        },
        {
          "internalType": "address",
          "name": "coverAsset",
          "type": "address"
        },
        {
          "internalType": "uint256",
          "name": "sumAssured",
          "type": "uint256"
        },
        {
          "internalType": "uint16",
          "name": "coverPeriod",
          "type": "uint16"
        },
        {
          "internalType": "uint8",
          "name": "coverType",
          "type": "uint8"
        },
        {
          "internalType": "uint256",
          "name": "maxPriceWithFee",
          "type": "uint256"
        },
        {
          "internalType": "bytes",
          "name": "data",
          "type": "bytes"
        }
      ],
      "name": "buyCover",
      "outputs": [],
      "stateMutability": "payable",
      "type": "function"
    },
    {
      "inputs": [
        {
          "internalType": "uint256",
          "name": "_sumAssured",
          "type": "uint256"
        },
        {
          "internalType": "uint256",
          "name": "_coverPeriod",
          "type": "uint256"
        },
        {
          "internalType": "address",
          "name": "_contractAddress",
          "type": "address"
        },
        {
          "internalType": "address",
          "name": "_coverAsset",
          "type": "address"
        },
        {
          "internalType": "address",
          "name": "_nexusCoverable",
          "type": "address"
        },
        {
          "internalType": "bytes",
          "name": "_data",
          "type": "bytes"
        }
      ],
      "name": "getQuote",
      "outputs": [
        {
          "components": [
            {
              "internalType": "uint256",
              "name": "prop1",
              "type": "uint256"
            },
            {
              "internalType": "uint256",
              "name": "prop2",
              "type": "uint256"
            },
            {
              "internalType": "uint256",
              "name": "prop3",
              "type": "uint256"
            },
            {
              "internalType": "uint256",
              "name": "prop4",
              "type": "uint256"
            },
            {
              "internalType": "uint256",
              "name": "prop5",
              "type": "uint256"
            },
            {
              "internalType": "uint256",
              "name": "prop6",
              "type": "uint256"
            },
            {
              "internalType": "uint256",
              "name": "prop7",
              "type": "uint256"
            }
          ],
          "internalType": "struct IDistributor.CoverQuote",
          "name": "",
          "type": "tuple"
        }
      ],
      "stateMutability": "view",
      "type": "function"
    },
    {
      "inputs": [
        {
          "internalType": "bytes4",
          "name": "interfaceId",
          "type": "bytes4"
        }
      ],
      "name": "supportsInterface",
      "outputs": [
        {
          "internalType": "bool",
          "name": "",
          "type": "bool"
        }
      ],
      "stateMutability": "view",
      "type": "function"
    }
  ],
  "bytecode": "0x608060405234801561001057600080fd5b506122e2806100206000396000f3fe6080604052600436106100dd5760003560e01c8063b194270f1161007f578063c0bf832511610059578063c0bf832514610251578063d8a856ee14610271578063ddaa119614610284578063f2fde38b14610299576100dd565b8063b194270f146101ef578063b1c36ebe1461020f578063bf9ce9521461023c576100dd565b8063715018a6116100bb578063715018a6146101765780638da5cb5b1461018b578063a7ee6159146101ad578063ac496c7b146101c2576100dd565b806301ffc9a7146100fe5780630af4187d1461013457806348d83b9d14610161575b60405162461bcd60e51b81526004016100f590612068565b60405180910390fd5b34801561010a57600080fd5b5061011e610119366004611b38565b6102b9565b60405161012b9190611f78565b60405180910390f35b34801561014057600080fd5b5061015461014f3660046119ad565b6102e6565b60405161012b9190612172565b61017461016f366004611b60565b61036e565b005b34801561018257600080fd5b50610174610716565b34801561019757600080fd5b506101a06107d4565b60405161012b9190611e55565b3480156101b957600080fd5b506101a06107e3565b3480156101ce57600080fd5b506101e26101dd366004611ab4565b6107f2565b60405161012b91906120e6565b3480156101fb57600080fd5b5061015461020a366004611a80565b610b53565b34801561021b57600080fd5b5061022f61022a366004611d1c565b610b82565b60405161012b9190612098565b34801561024857600080fd5b506101a0610ba2565b34801561025d57600080fd5b5061017461026c366004611975565b610bb1565b61017461027f3660046119e5565b610dad565b34801561029057600080fd5b506101a0610e22565b3480156102a557600080fd5b506101746102b4366004611975565b610e31565b60006001600160e01b03198216633c6e48b960e01b14806102de57506102de826102b9565b90505b919050565b604051636eb1769f60e11b81526000906001600160a01b0383169063dd62ed3e906103179086903090600401611e69565b60206040518083038186803b15801561032f57600080fd5b505afa158015610343573d6000803e3d6000fd5b505050506040513d601f19601f820116820180604052508101906103679190611d04565b9392505050565b600260655414156103c6576040805162461bcd60e51b815260206004820152601f60248201527f5265656e7472616e637947756172643a207265656e7472616e742063616c6c00604482015290519081900360640190fd5b600260655560608101516001600160a01b031673eeeeeeeeeeeeeeeeeeeeeeeeeeeeeeeeeeeeeeee1461062657806080015181606001516001600160a01b031663dd62ed3e610413610f46565b306040518363ffffffff1660e01b8152600401610431929190611e69565b60206040518083038186803b15801561044957600080fd5b505afa15801561045d573d6000803e3d6000fd5b505050506040513d601f19601f820116820180604052508101906104819190611d04565b101561049f5760405162461bcd60e51b81526004016100f590611fec565b6104c66104aa610f46565b608083015160608401516001600160a01b031691903090610f4a565b6060810151609754604051636eb1769f60e11b81526000926001600160a01b039081169263dd62ed3e926105009230921690600401611e69565b60206040518083038186803b15801561051857600080fd5b505afa15801561052c573d6000803e3d6000fd5b505050506040513d601f19601f820116820180604052508101906105509190611d04565b1415610577576097546060820151610577916001600160a01b039182169116600019610faa565b60975481516020830151604080850151606086015160a087015160c0880151608089015160e08a01516101008b01516101208c01516101408d01516101608e01519951636ef596a760e11b81526001600160a01b03909d169c63ddeb2d4e9c6105ef9c909b909a999897969594939291600401611e9c565b600060405180830381600087803b15801561060957600080fd5b505af115801561061d573d6000803e3d6000fd5b5050505061070e565b60608101516001600160a01b031673eeeeeeeeeeeeeeeeeeeeeeeeeeeeeeeeeeeeeeee141561070e57609760009054906101000a90046001600160a01b03166001600160a01b031663ddeb2d4e3483600001518460200151856040015186606001518760a001518860c0015189608001518a60e001518b61010001518c61012001518d61014001518e61016001516040518e63ffffffff1660e01b81526004016106db9c9b9a99989796959493929190611e9c565b6000604051808303818588803b1580156106f457600080fd5b505af1158015610708573d6000803e3d6000fd5b50505050505b506001606555565b61071e610f46565b6001600160a01b031661072f6107d4565b6001600160a01b03161461078a576040805162461bcd60e51b815260206004820181905260248201527f4f776e61626c653a2063616c6c6572206973206e6f7420746865206f776e6572604482015290519081900360640190fd5b6033546040516000916001600160a01b0316907f8be0079c531659141344cd1fd0a4f28419497f9722a3daafe3b4186f6b6457e0908390a3603380546001600160a01b0319169055565b6033546001600160a01b031690565b6097546001600160a01b031681565b6107fa611727565b60985460405163e42dd11560e01b81526001600160a01b039091169063e42dd1159061082c9088908890600401611e83565b60206040518083038186803b15801561084457600080fd5b505afa158015610858573d6000803e3d6000fd5b505050506040513d601f19601f8201168201806040525081019061087c9190611d04565b60208201819052609954604051636813b53b60e01b815260009283926001600160a01b031691636813b53b916108b491600401612172565b60a06040518083038186803b1580156108cc57600080fd5b505afa1580156108e0573d6000803e3d6000fd5b505050506040513d601f19601f820116820180604052508101906109049190611af9565b5050508085526040808601839052609854905163573eedcd60e11b81529294509092506001600160a01b03169063ae7ddb9a90610947908a908a90600401611e83565b60206040518083038186803b15801561095f57600080fd5b505afa158015610973573d6000803e3d6000fd5b505050506040513d601f19601f820116820180604052508101906109979190611d04565b6060840152609854604051633255995760e21b81526001600160a01b039091169063c956655c906109ce908a908a90600401611e83565b60206040518083038186803b1580156109e657600080fd5b505afa1580156109fa573d6000803e3d6000fd5b505050506040513d601f19601f82011682018060405250810190610a1e9190611991565b6001600160a01b0390811660a0850152600060c08501819052610120850152609854604051627c1e9760e91b815291169063f83d2e0090610a65908a908a90600401611e83565b60206040518083038186803b158015610a7d57600080fd5b505afa158015610a91573d6000803e3d6000fd5b505050506040513d601f19601f82011682018060405250810190610ab59190611d04565b610100840152609854604051637c87d32560e11b81526001600160a01b039091169063f90fa64a90610aed908a908a90600401611e83565b60206040518083038186803b158015610b0557600080fd5b505afa158015610b19573d6000803e3d6000fd5b505050506040513d601f19601f82011682018060405250810190610b3d9190611d04565b60e0840152505060006080820152949350505050565b609854604051620a3f6560e21b81526000916001600160a01b0316906228fd9490610317908690600401611e55565b610b8a61177b565b60405162461bcd60e51b81526004016100f590611f83565b6099546001600160a01b031681565b600054610100900460ff1680610bca5750610bca6110c2565b80610bd8575060005460ff16155b610c135760405162461bcd60e51b815260040180806020018281038252602e81526020018061221f602e913960400191505060405180910390fd5b600054610100900460ff16158015610c3e576000805460ff1961ff0019909116610100171660011790555b610c466110d3565b610c4e611185565b609780546001600160a01b0319166001600160a01b038481169190911791829055604080516339ea509d60e11b8152905192909116916373d4a13a916004808201926020929091908290030181600087803b158015610cac57600080fd5b505af1158015610cc0573d6000803e3d6000fd5b505050506040513d601f19601f82011682018060405250810190610ce49190611991565b609880546001600160a01b0319166001600160a01b0392831617905560975460408051635fce74a960e11b81529051919092169163bf9ce9529160048083019260209291908290030181600087803b158015610d3f57600080fd5b505af1158015610d53573d6000803e3d6000fd5b505050506040513d601f19601f82011682018060405250810190610d779190611991565b609980546001600160a01b0319166001600160a01b03929092169190911790558015610da9576000805461ff00191690555b5050565b60026065541415610e05576040805162461bcd60e51b815260206004820152601f60248201527f5265656e7472616e637947756172643a207265656e7472616e742063616c6c00604482015290519081900360640190fd5b600260655560405162461bcd60e51b81526100f590600401612039565b6098546001600160a01b031681565b610e39610f46565b6001600160a01b0316610e4a6107d4565b6001600160a01b031614610ea5576040805162461bcd60e51b815260206004820181905260248201527f4f776e61626c653a2063616c6c6572206973206e6f7420746865206f776e6572604482015290519081900360640190fd5b6001600160a01b038116610eea5760405162461bcd60e51b81526004018080602001828103825260268152602001806121d36026913960400191505060405180910390fd5b6033546040516001600160a01b038084169216907f8be0079c531659141344cd1fd0a4f28419497f9722a3daafe3b4186f6b6457e090600090a3603380546001600160a01b0319166001600160a01b0392909216919091179055565b3390565b604080516001600160a01b0380861660248301528416604482015260648082018490528251808303909101815260849091019091526020810180516001600160e01b03166323b872dd60e01b179052610fa490859061121a565b50505050565b801580611030575060408051636eb1769f60e11b81523060048201526001600160a01b03848116602483015291519185169163dd62ed3e91604480820192602092909190829003018186803b15801561100257600080fd5b505afa158015611016573d6000803e3d6000fd5b505050506040513d602081101561102c57600080fd5b5051155b61106b5760405162461bcd60e51b81526004018080602001828103825260368152602001806122776036913960400191505060405180910390fd5b604080516001600160a01b038416602482015260448082018490528251808303909101815260649091019091526020810180516001600160e01b031663095ea7b360e01b1790526110bd90849061121a565b505050565b60006110cd306112cb565b15905090565b600054610100900460ff16806110ec57506110ec6110c2565b806110fa575060005460ff16155b6111355760405162461bcd60e51b815260040180806020018281038252602e81526020018061221f602e913960400191505060405180910390fd5b600054610100900460ff16158015611160576000805460ff1961ff0019909116610100171660011790555b6111686112d1565b611170611371565b8015611182576000805461ff00191690555b50565b600054610100900460ff168061119e575061119e6110c2565b806111ac575060005460ff16155b6111e75760405162461bcd60e51b815260040180806020018281038252602e81526020018061221f602e913960400191505060405180910390fd5b600054610100900460ff16158015611212576000805460ff1961ff0019909116610100171660011790555b61117061146a565b606061126f826040518060400160405280602081526020017f5361666545524332303a206c6f772d6c6576656c2063616c6c206661696c6564815250856001600160a01b03166115109092919063ffffffff16565b8051909150156110bd5780806020019051602081101561128e57600080fd5b50516110bd5760405162461bcd60e51b815260040180806020018281038252602a81526020018061224d602a913960400191505060405180910390fd5b3b151590565b600054610100900460ff16806112ea57506112ea6110c2565b806112f8575060005460ff16155b6113335760405162461bcd60e51b815260040180806020018281038252602e81526020018061221f602e913960400191505060405180910390fd5b600054610100900460ff16158015611170576000805460ff1961ff0019909116610100171660011790558015611182576000805461ff001916905550565b600054610100900460ff168061138a575061138a6110c2565b80611398575060005460ff16155b6113d35760405162461bcd60e51b815260040180806020018281038252602e81526020018061221f602e913960400191505060405180910390fd5b600054610100900460ff161580156113fe576000805460ff1961ff0019909116610100171660011790555b6000611408610f46565b603380546001600160a01b0319166001600160a01b038316908117909155604051919250906000907f8be0079c531659141344cd1fd0a4f28419497f9722a3daafe3b4186f6b6457e0908290a3508015611182576000805461ff001916905550565b600054610100900460ff168061148357506114836110c2565b80611491575060005460ff16155b6114cc5760405162461bcd60e51b815260040180806020018281038252602e81526020018061221f602e913960400191505060405180910390fd5b600054610100900460ff161580156114f7576000805460ff1961ff0019909116610100171660011790555b60016065558015611182576000805461ff001916905550565b606061151f8484600085611527565b949350505050565b6060824710156115685760405162461bcd60e51b81526004018080602001828103825260268152602001806121f96026913960400191505060405180910390fd5b611571856112cb565b6115c2576040805162461bcd60e51b815260206004820152601d60248201527f416464726573733a2063616c6c20746f206e6f6e2d636f6e7472616374000000604482015290519081900360640190fd5b60006060866001600160a01b031685876040518082805190602001908083835b602083106116015780518252601f1990920191602091820191016115e2565b6001836020036101000a03801982511681845116808217855250505050505090500191505060006040518083038185875af1925050503d8060008114611663576040519150601f19603f3d011682016040523d82523d6000602084013e611668565b606091505b5091509150611678828286611683565b979650505050505050565b60608315611692575081610367565b8251156116a25782518084602001fd5b8160405162461bcd60e51b81526004018080602001828103825283818151815260200191508051906020019080838360005b838110156116ec5781810151838201526020016116d4565b50505050905090810190601f1680156117195780820380516001836020036101000a031916815260200191505b509250505060405180910390fd5b6040805161014081018252600080825260208201819052918101829052606081018290526080810182905260a0810182905260c0810182905260e08101829052610100810182905261012081019190915290565b6040518060e00160405280600081526020016000815260200160008152602001600081526020016000815260200160008152602001600081525090565b80356102e1816121bd565b600082601f8301126117d3578081fd5b81356117e66117e18261219f565b61217b565b81815291506020808301908481018184028601820187101561180757600080fd5b60005b848110156118265781358452928201929082019060010161180a565b505050505092915050565b600082601f830112611841578081fd5b813561184f6117e18261219f565b81815291506020808301908481018184028601820187101561187057600080fd5b60005b848110156118265761188482611952565b84529282019290820190600101611873565b600082601f8301126118a6578081fd5b81356118b46117e18261219f565b8181529150602080830190848101818402860182018710156118d557600080fd5b60005b84811015611826576118e982611964565b845292820192908201906001016118d8565b803580151581146102e157600080fd5b60008083601f84011261191c578182fd5b50813567ffffffffffffffff811115611933578182fd5b60208301915083602082850101111561194b57600080fd5b9250929050565b803561ffff811681146102e157600080fd5b803560ff811681146102e157600080fd5b600060208284031215611986578081fd5b8135610367816121bd565b6000602082840312156119a2578081fd5b8151610367816121bd565b600080604083850312156119bf578081fd5b82356119ca816121bd565b915060208301356119da816121bd565b809150509250929050565b60008060008060008060008060e0898b031215611a00578384fd5b8835611a0b816121bd565b97506020890135611a1b816121bd565b965060408901359550611a3060608a01611952565b9450611a3e60808a01611964565b935060a0890135925060c089013567ffffffffffffffff811115611a60578283fd5b611a6c8b828c0161190b565b999c989b5096995094979396929594505050565b60008060408385031215611a92578182fd5b8235611a9d816121bd565b9150611aab602084016118fb565b90509250929050565b60008060008060808587031215611ac9578182fd5b8435611ad4816121bd565b935060208501359250611ae9604086016118fb565b9396929550929360600135925050565b600080600080600060a08688031215611b10578283fd5b5050835160208501516040860151606087015160809097015192989197509594509092509050565b600060208284031215611b49578081fd5b81356001600160e01b031981168114610367578182fd5b600060208284031215611b71578081fd5b813567ffffffffffffffff80821115611b88578283fd5b8184019150610180808387031215611b9e578384fd5b611ba78161217b565b9050823582811115611bb7578485fd5b611bc387828601611831565b825250602083013582811115611bd7578485fd5b611be387828601611831565b602083015250604083013582811115611bfa578485fd5b611c06878286016117c3565b604083015250611c18606084016117b8565b606082015260808301356080820152611c3360a084016117b8565b60a082015260c083013560c082015260e083013582811115611c53578485fd5b611c5f878286016117c3565b60e0830152506101008084013583811115611c78578586fd5b611c84888287016117c3565b8284015250506101208084013583811115611c9d578586fd5b611ca988828701611896565b8284015250506101408084013583811115611cc2578586fd5b611cce888287016117c3565b8284015250506101608084013583811115611ce7578586fd5b611cf3888287016117c3565b918301919091525095945050505050565b600060208284031215611d15578081fd5b5051919050565b600080600080600080600060c0888a031215611d36578081fd5b87359650602088013595506040880135611d4f816121bd565b94506060880135611d5f816121bd565b93506080880135611d6f816121bd565b925060a088013567ffffffffffffffff811115611d8a578182fd5b611d968a828b0161190b565b989b979a50959850939692959293505050565b6001600160a01b03169052565b6000815180845260208085019450808401835b83811015611de557815187529582019590820190600101611dc9565b509495945050505050565b6000815180845260208085019450808401835b83811015611de557815161ffff1687529582019590820190600101611e03565b6000815180845260208085019450808401835b83811015611de557815160ff1687529582019590820190600101611e36565b6001600160a01b0391909116815260200190565b6001600160a01b0392831681529116602082015260400190565b6001600160a01b03929092168252602082015260400190565b60006101808252611eb161018083018f611df0565b8281036020840152611ec3818f611df0565b90508281036040840152611ed7818e611db6565b9050611ee6606084018d611da9565b611ef3608084018c611da9565b8960a08401528860c084015282810360e0840152611f118189611db6565b9050828103610100840152611f268188611db6565b9050828103610120840152611f3b8187611e23565b9050828103610140840152611f508186611db6565b9050828103610160840152611f658185611db6565b9f9e505050505050505050505050505050565b901515815260200190565b60208082526043908201527f556e737570706f72746564206d6574686f642c20497375726163652071756f7460408201527f65732061726520617661696c61626c65206174206170692e696e7375726163656060820152622e696f60e81b608082015260a00190565b6020808252602d908201527f4572726f72206f6e20425520436f6e7472616374202d204e656564207072656d60408201526c69756d20616c6c6f77616e636560981b606082015260800190565b6020808252601590820152742ab739bab83837b93a32b21037b832b930ba34b7b760591b604082015260600190565b6020808252601690820152754d6574686f6420646f6573206e6f742065786973742160501b604082015260600190565b600060e082019050825182526020830151602083015260408301516040830152606083015160608301526080830151608083015260a083015160a083015260c083015160c083015292915050565b600061014082019050825182526020830151602083015260408301516040830152606083015160608301526080830151608083015260a083015161212d60a0840182611da9565b5060c083015161214060c0840182611da9565b5060e083015160e08301526101008084015181840152506101208084015161216a82850182611da9565b505092915050565b90815260200190565b60405181810167ffffffffffffffff8111828210171561219757fe5b604052919050565b600067ffffffffffffffff8211156121b357fe5b5060209081020190565b6001600160a01b038116811461118257600080fdfe4f776e61626c653a206e6577206f776e657220697320746865207a65726f2061646472657373416464726573733a20696e73756666696369656e742062616c616e636520666f722063616c6c496e697469616c697a61626c653a20636f6e747261637420697320616c726561647920696e697469616c697a65645361666545524332303a204552433230206f7065726174696f6e20646964206e6f7420737563636565645361666545524332303a20617070726f76652066726f6d206e6f6e2d7a65726f20746f206e6f6e2d7a65726f20616c6c6f77616e6365a2646970667358221220de84ce95d5696385e320faed6768f9c6616dcb80ab728a9540827be5e759a76c64736f6c63430007040033",
  "immutableReferences": {},
  "source": "// SPDX-License-Identifier: GPL-3.0\npragma solidity 0.7.4;\npragma experimental ABIEncoderV2;\n\nimport \"@openzeppelin/contracts-upgradeable/access/OwnableUpgradeable.sol\";\nimport \"@openzeppelin/contracts-upgradeable/proxy/Initializable.sol\";\nimport \"@openzeppelin/contracts-upgradeable/utils/ReentrancyGuardUpgradeable.sol\";\nimport \"@openzeppelin/contracts-upgradeable/token/ERC20/IERC20Upgradeable.sol\";\nimport \"@openzeppelin/contracts-upgradeable/token/ERC20/SafeERC20Upgradeable.sol\";\n\n\nimport \"./interfaces/ICover.sol\";\nimport \"./interfaces/ICoverData.sol\";\nimport \"./interfaces/IProduct.sol\";\nimport \"./interfaces/ICoverQuotation.sol\";\nimport \"../../IDistributor.sol\";\nimport \"../AbstractDistributor.sol\";\n\ncontract InsuraceDistributor is AbstractDistributor,\nIDistributor,\nInitializable,\nOwnableUpgradeable,\nReentrancyGuardUpgradeable\n{\n\n    using SafeERC20Upgradeable for IERC20Upgradeable;\n\n    ICover public masterCover;\n    ICoverData public coverData;\n    IProduct public product;\n\n\n    function __InsuraceDistributor_init(\n        address _masterCover\n    ) public initializer {\n        __Ownable_init();\n        __ReentrancyGuard_init();\n        masterCover = ICover(_masterCover);\n        coverData = ICoverData(masterCover.data());\n        product = IProduct(masterCover.product());\n    }\n\n\n    function getCoverCount(address _owner, bool _isActive) external view override returns (uint256) {\n        return coverData.getCoverCount(_owner);\n    }\n\n\n    function getCover(address _owner, uint256 _coverId, bool _interfaceCompliant, uint256 _loopLimit) external view override\n    returns (IDistributor.Cover memory cover){\n        cover.productId = coverData.getCoverProductId(_owner, _coverId);\n        (bytes32 _contractName, bytes32 _coverType, , ,) = product.getProductDetails(cover.productId);\n        cover.coverType = _coverType;\n        cover.contractName = _contractName;\n        cover.coverAmount = coverData.getCoverAmount(_owner, _coverId);\n        cover.currency = coverData.getCoverCurrency(_owner, _coverId);\n        cover.contractAddress = 0x0000000000000000000000000000000000000000;\n        cover.refAddress = 0x0000000000000000000000000000000000000000;\n        cover.status = coverData.getAdjustedCoverStatus(_owner, _coverId);\n        cover.expiration = coverData.getCoverEndTimestamp(_owner, _coverId);\n        cover.premium = 0;\n\n        return cover;\n    }\n\n    function getAllowance(address owner, address currency) public view returns (uint256){\n        return IERC20Upgradeable(currency).allowance(owner, address(this));\n    }\n\n\n    function buyCoverInsurace(IDistributor.BuyInsuraceQuote memory quote) external override payable nonReentrant {\n        if (quote.currency != ETH) {\n            // check and receive the premium from this transaction\n            require(IERC20Upgradeable(quote.currency).allowance(_msgSender(), address(this)) >= quote.premium,\n                \"Error on BU Contract - Need premium allowance\");\n\n            // transfer erc20 funds to this contract\n            IERC20Upgradeable(quote.currency).safeTransferFrom(_msgSender(), address(this), quote.premium);\n\n            // Set USDT allowance to zero\n            if (IERC20Upgradeable(quote.currency).allowance(address(this), address(masterCover)) == uint256(0)) {\n                //safe as this contract has no funds stored\n                //will be called once only\n                IERC20Upgradeable(quote.currency).safeApprove(address(masterCover), MAX_INT);\n            }\n            masterCover.buyCover(\n                quote.products,\n                quote.durationInDays,\n                quote.amounts,\n                quote.currency,\n                quote.owner,\n                quote.refCode,\n                quote.premium,\n                quote.helperParameters,\n                quote.securityParameters,\n                quote.v,\n                quote.r,\n                quote.s\n            );\n\n        } else if (quote.currency == ETH) {\n            masterCover.buyCover {value : msg.value}\n            (quote.products,\n                quote.durationInDays,\n                quote.amounts,\n                quote.currency,\n                quote.owner,\n                quote.refCode,\n                quote.premium,\n                quote.helperParameters,\n                quote.securityParameters,\n                quote.v,\n                quote.r,\n                quote.s);\n        }\n    }\n\n    function buyCover(\n        address contractAddress,\n        address coverAsset,\n        uint256 sumAssured,\n        uint16 coverPeriod,\n        uint8 coverType,\n        uint256 maxPriceWithFee,\n        bytes calldata data\n    ) external payable override nonReentrant {\n        revert(\"Unsupported operation\");\n    }\n\n    function getQuote(\n        uint256 _sumAssured,\n        uint256 _coverPeriod,\n        address _contractAddress,\n        address _coverAsset,\n        address _nexusCoverable,\n        bytes calldata _data\n    ) external view override returns (\n        IDistributor.CoverQuote memory\n    ){\n        revert('Unsupported method, Isurace quotes are available at api.insurace.io');\n    }\n\n    fallback() external payable {\n        revert('Method does not exist!');\n\n    }\n\n    function supportsInterface(bytes4 interfaceId) public view virtual override returns (bool) {\n        return interfaceId == type(IDistributor).interfaceId || supportsInterface(interfaceId);\n    }\n\n}\n",
  "sourcePath": "/Users/kirilivanov/DEV/BrightUnion/distributors/contracts/distributors/insurace/InsuraceDistributor.sol",
  "compiler": {
    "name": "solc",
    "version": "0.7.4+commit.3f05b770.Emscripten.clang"
  },
  "schemaVersion": "3.4.1",
  "updatedAt": "2021-11-16T13:35:30.231Z",
  "networkType": "ethereum",
  "devdoc": {
    "kind": "dev",
    "methods": {
      "owner()": {
        "details": "Returns the address of the current owner."
      },
      "renounceOwnership()": {
        "details": "Leaves the contract without owner. It will not be possible to call `onlyOwner` functions anymore. Can only be called by the current owner. NOTE: Renouncing ownership will leave the contract without an owner, thereby removing any functionality that is only available to the owner."
      },
      "supportsInterface(bytes4)": {
        "details": "Returns true if this contract implements the interface defined by `interfaceId`. See the corresponding https://eips.ethereum.org/EIPS/eip-165#how-interfaces-are-identified[EIP section] to learn more about how these ids are created. This function call must use less than 30 000 gas."
      },
      "transferOwnership(address)": {
        "details": "Transfers ownership of the contract to a new account (`newOwner`). Can only be called by the current owner."
      }
    },
    "version": 1
  },
  "userdoc": {
    "kind": "user",
    "methods": {},
    "version": 1
  }
}