{
  "contractName": "BridgeDistributorV2",
  "abi": [
    {
      "anonymous": false,
      "inputs": [
        {
          "indexed": false,
          "internalType": "address",
          "name": "_productAddress",
          "type": "address"
        },
        {
          "indexed": false,
          "internalType": "uint256",
          "name": "_productId",
          "type": "uint256"
        },
        {
          "indexed": false,
          "internalType": "uint256",
          "name": "_period",
          "type": "uint256"
        },
        {
          "indexed": false,
          "internalType": "address",
          "name": "_asset",
          "type": "address"
        },
        {
          "indexed": false,
          "internalType": "uint256",
          "name": "_amount",
          "type": "uint256"
        },
        {
          "indexed": false,
          "internalType": "uint256",
          "name": "_price",
          "type": "uint256"
        }
      ],
      "name": "BuyCoverEvent",
      "type": "event"
    },
    {
      "anonymous": false,
      "inputs": [
        {
          "indexed": true,
          "internalType": "address",
          "name": "previousOwner",
          "type": "address"
        },
        {
          "indexed": true,
          "internalType": "address",
          "name": "newOwner",
          "type": "address"
        }
      ],
      "name": "OwnershipTransferred",
      "type": "event"
    },
    {
      "inputs": [],
      "name": "claimRegistry",
      "outputs": [
        {
          "internalType": "contract IClaimingRegistryV2",
          "name": "",
          "type": "address"
        }
      ],
      "stateMutability": "view",
      "type": "function"
    },
    {
      "inputs": [],
      "name": "contractsRegistry",
      "outputs": [
        {
          "internalType": "contract IContractsRegistryV2",
          "name": "",
          "type": "address"
        }
      ],
      "stateMutability": "view",
      "type": "function"
    },
    {
      "inputs": [],
      "name": "owner",
      "outputs": [
        {
          "internalType": "address",
          "name": "",
          "type": "address"
        }
      ],
      "stateMutability": "view",
      "type": "function"
    },
    {
      "inputs": [],
      "name": "policyBookRegistry",
      "outputs": [
        {
          "internalType": "contract IPolicyBookRegistryV2",
          "name": "",
          "type": "address"
        }
      ],
      "stateMutability": "view",
      "type": "function"
    },
    {
      "inputs": [],
      "name": "policyQuote",
      "outputs": [
        {
          "internalType": "contract IPolicyQuoteV2",
          "name": "",
          "type": "address"
        }
      ],
      "stateMutability": "view",
      "type": "function"
    },
    {
      "inputs": [],
      "name": "policyRegistry",
      "outputs": [
        {
          "internalType": "contract IPolicyRegistryV2",
          "name": "",
          "type": "address"
        }
      ],
      "stateMutability": "view",
      "type": "function"
    },
    {
      "inputs": [],
      "name": "renounceOwnership",
      "outputs": [],
      "stateMutability": "nonpayable",
      "type": "function"
    },
    {
      "inputs": [
        {
          "internalType": "address",
          "name": "newOwner",
          "type": "address"
        }
      ],
      "name": "transferOwnership",
      "outputs": [],
      "stateMutability": "nonpayable",
      "type": "function"
    },
    {
      "inputs": [
        {
          "internalType": "address",
          "name": "_contractsRegistry",
          "type": "address"
        }
      ],
      "name": "__BridgeDistributor_init",
      "outputs": [],
      "stateMutability": "nonpayable",
      "type": "function"
    },
    {
      "inputs": [
        {
          "internalType": "address",
          "name": "_userAddr",
          "type": "address"
        },
        {
          "internalType": "bool",
          "name": "_isActive",
          "type": "bool"
        }
      ],
      "name": "getCoverCount",
      "outputs": [
        {
          "internalType": "uint256",
          "name": "",
          "type": "uint256"
        }
      ],
      "stateMutability": "view",
      "type": "function"
    },
    {
      "inputs": [
        {
          "internalType": "address",
          "name": "_userAddr",
          "type": "address"
        },
        {
          "internalType": "uint256",
          "name": "_coverId",
          "type": "uint256"
        },
        {
          "internalType": "bool",
          "name": "_isActive",
          "type": "bool"
        },
        {
          "internalType": "uint256",
          "name": "_limitLoop",
          "type": "uint256"
        }
      ],
      "name": "getCover",
      "outputs": [
        {
          "components": [
            {
              "internalType": "bytes32",
              "name": "coverType",
              "type": "bytes32"
            },
            {
              "internalType": "uint256",
              "name": "productId",
              "type": "uint256"
            },
            {
              "internalType": "bytes32",
              "name": "contractName",
              "type": "bytes32"
            },
            {
              "internalType": "uint256",
              "name": "coverAmount",
              "type": "uint256"
            },
            {
              "internalType": "uint256",
              "name": "premium",
              "type": "uint256"
            },
            {
              "internalType": "address",
              "name": "currency",
              "type": "address"
            },
            {
              "internalType": "address",
              "name": "contractAddress",
              "type": "address"
            },
            {
              "internalType": "uint256",
              "name": "expiration",
              "type": "uint256"
            },
            {
              "internalType": "uint256",
              "name": "status",
              "type": "uint256"
            },
            {
              "internalType": "address",
              "name": "refAddress",
              "type": "address"
            }
          ],
          "internalType": "struct IDistributor.Cover",
          "name": "",
          "type": "tuple"
        }
      ],
      "stateMutability": "view",
      "type": "function"
    },
    {
      "inputs": [
        {
          "internalType": "address",
          "name": "_userAddr",
          "type": "address"
        }
      ],
      "name": "getPoliciesArr",
      "outputs": [
        {
          "internalType": "address[]",
          "name": "_arr",
          "type": "address[]"
        }
      ],
      "stateMutability": "view",
      "type": "function"
    },
    {
      "inputs": [
        {
          "internalType": "uint256",
          "name": "_bridgeEpochs",
          "type": "uint256"
        },
        {
          "internalType": "uint256",
          "name": "_amountInWei",
          "type": "uint256"
        },
        {
          "internalType": "address",
          "name": "_bridgeProductAddress",
          "type": "address"
        },
        {
          "internalType": "address",
          "name": "_buyerAddress",
          "type": "address"
        },
        {
          "internalType": "address",
          "name": "_interfaceCompliant2",
          "type": "address"
        },
        {
          "internalType": "bytes",
          "name": "_interfaceCompliant3",
          "type": "bytes"
        }
      ],
      "name": "getQuote",
      "outputs": [
        {
          "components": [
            {
              "internalType": "uint256",
              "name": "prop1",
              "type": "uint256"
            },
            {
              "internalType": "uint256",
              "name": "prop2",
              "type": "uint256"
            },
            {
              "internalType": "uint256",
              "name": "prop3",
              "type": "uint256"
            },
            {
              "internalType": "uint256",
              "name": "prop4",
              "type": "uint256"
            },
            {
              "internalType": "uint256",
              "name": "prop5",
              "type": "uint256"
            },
            {
              "internalType": "uint256",
              "name": "prop6",
              "type": "uint256"
            },
            {
              "internalType": "uint256",
              "name": "prop7",
              "type": "uint256"
            }
          ],
          "internalType": "struct IDistributor.CoverQuote",
          "name": "",
          "type": "tuple"
        }
      ],
      "stateMutability": "view",
      "type": "function"
    },
    {
      "inputs": [
        {
          "internalType": "address",
          "name": "_bridgeProductAddress",
          "type": "address"
        },
        {
          "internalType": "uint256",
          "name": "_epochsNumber",
          "type": "uint256"
        },
        {
          "internalType": "uint256",
          "name": "_sumAssured",
          "type": "uint256"
        },
        {
          "internalType": "address",
          "name": "_buyerAddress",
          "type": "address"
        },
        {
          "internalType": "address",
          "name": "_treasuryAddress",
          "type": "address"
        },
        {
          "internalType": "uint256",
          "name": "_premium",
          "type": "uint256"
        }
      ],
      "name": "buyCover",
      "outputs": [],
      "stateMutability": "payable",
      "type": "function"
    },
    {
      "inputs": [
        {
          "internalType": "uint8",
          "name": "_offset",
          "type": "uint8"
        },
        {
          "internalType": "uint256",
          "name": "_limitLoop",
          "type": "uint256"
        }
      ],
      "name": "listWithStats",
      "outputs": [
        {
          "components": [
            {
              "internalType": "string",
              "name": "name",
              "type": "string"
            },
            {
              "internalType": "address",
              "name": "insuredContract",
              "type": "address"
            },
            {
              "internalType": "enum IPolicyBookFabricV2.ContractType",
              "name": "contractType",
              "type": "uint8"
            },
            {
              "internalType": "uint256",
              "name": "maxCapacity",
              "type": "uint256"
            },
            {
              "internalType": "uint256",
              "name": "totalDaiLiquidity",
              "type": "uint256"
            },
            {
              "internalType": "uint256",
              "name": "APY",
              "type": "uint256"
            },
            {
              "internalType": "bool",
              "name": "whitelisted",
              "type": "bool"
            },
            {
              "internalType": "address",
              "name": "policyAddress",
              "type": "address"
            }
          ],
          "internalType": "struct BridgeDistributorV2.PolicyCatalog[]",
          "name": "",
          "type": "tuple[]"
        }
      ],
      "stateMutability": "view",
      "type": "function"
    },
    {
      "inputs": [
        {
          "internalType": "uint256",
          "name": "_offset",
          "type": "uint256"
        }
      ],
      "name": "list",
      "outputs": [
        {
          "internalType": "address[]",
          "name": "_policyBooks",
          "type": "address[]"
        }
      ],
      "stateMutability": "view",
      "type": "function"
    },
    {
      "inputs": [],
      "name": "stats",
      "outputs": [
        {
          "internalType": "address[]",
          "name": "",
          "type": "address[]"
        }
      ],
      "stateMutability": "view",
      "type": "function"
    },
    {
      "inputs": [
        {
          "internalType": "bytes4",
          "name": "interfaceId",
          "type": "bytes4"
        }
      ],
      "name": "supportsInterface",
      "outputs": [
        {
          "internalType": "bool",
          "name": "",
          "type": "bool"
        }
      ],
      "stateMutability": "view",
      "type": "function"
    },
    {
      "inputs": [],
      "name": "addressCero",
      "outputs": [
        {
          "internalType": "address",
          "name": "",
          "type": "address"
        }
      ],
      "stateMutability": "view",
      "type": "function"
    }
  ],
  "bytecode": "0x608060405234801561001057600080fd5b50612cbc806100206000396000f3fe6080604052600436106101145760003560e01c8063a9818929116100a0578063d80528ae11610064578063d80528ae146102e5578063d98d0c7e146102fa578063ec402e061461030f578063f2fde38b1461032f578063fd7057f71461034f57610114565b8063a981892914610236578063ac496c7b14610249578063b194270f14610276578063b1c36ebe146102a3578063ba258d4d146102d057610114565b806367951e23116100e757806367951e231461019b578063715018a6146101c857806380c9419e146101df5780638da5cb5b1461020c578063a878e1561461022157610114565b806301ffc9a71461011957806307e2ad2f1461014f5780631c4dd7d014610171578063400b70d514610186575b600080fd5b34801561012557600080fd5b506101396101343660046124d5565b61036f565b6040516101469190612958565b60405180910390f35b34801561015b57600080fd5b50610164610389565b604051610146919061278d565b34801561017d57600080fd5b50610164610398565b34801561019257600080fd5b506101646103a7565b3480156101a757600080fd5b506101bb6101b636600461273c565b6103b6565b6040516101469190612872565b3480156101d457600080fd5b506101dd610639565b005b3480156101eb57600080fd5b506101ff6101fa3660046124fd565b6106f7565b6040516101469190612825565b34801561021857600080fd5b5061016461080f565b34801561022d57600080fd5b5061016461081e565b6101dd61024436600461238c565b61082d565b34801561025557600080fd5b50610269610264366004612345565b610bcb565b6040516101469190612a85565b34801561028257600080fd5b5061029661029136600461230d565b610ec6565b6040516101469190612963565b3480156102af57600080fd5b506102c36102be366004612656565b610ffb565b6040516101469190612a37565b3480156102dc57600080fd5b50610164611290565b3480156102f157600080fd5b506101ff611295565b34801561030657600080fd5b5061016461139d565b34801561031b57600080fd5b506101dd61032a3660046122d5565b6113ac565b34801561033b57600080fd5b506101dd61034a3660046122d5565b6116c6565b34801561035b57600080fd5b506101ff61036a3660046122d5565b6117db565b6001600160e01b0319811663560f12e560e11b145b919050565b6098546001600160a01b031681565b6097546001600160a01b031681565b609b546001600160a01b031681565b60606000609860009054906101000a90046001600160a01b03166001600160a01b03166306661abd6040518163ffffffff1660e01b815260040160206040518083038186803b15801561040857600080fd5b505afa15801561041c573d6000803e3d6000fd5b505050506040513d601f19601f820116820180604052508101906104409190612515565b9050600083821115610453575082610456565b50805b609854604051633216d38560e21b815260609182916001600160a01b039091169063c85b4e149061048d908a908890600401612b3e565b60006040518083038186803b1580156104a557600080fd5b505afa1580156104b9573d6000803e3d6000fd5b505050506040513d6000823e601f3d908101601f191682016040526104e19190810190612425565b9150915060606104ef611f34565b60005b858160ff16101561062b57838160ff168151811061050c57fe5b60209081029190910101515182528351849060ff831690811061052b57fe5b6020908102919091018101518101516001600160a01b0316908301528351849060ff831690811061055857fe5b602002602001015160600151826060018181525050838160ff168151811061057c57fe5b602002602001015160800151826080018181525050838160ff16815181106105a057fe5b602002602001015160e001518260a0018181525050838160ff16815181106105c457fe5b60209081029190910101516101400151151560c08301528451859060ff83169081106105ec57fe5b60209081029190910101516001600160a01b031660e083015282518290849060ff841690811061061857fe5b60209081029190910101526001016104f2565b509098975050505050505050565b610641611866565b6001600160a01b031661065261080f565b6001600160a01b0316146106ad576040805162461bcd60e51b815260206004820181905260248201527f4f776e61626c653a2063616c6c6572206973206e6f7420746865206f776e6572604482015290519081900360640190fd5b6033546040516000916001600160a01b0316907f8be0079c531659141344cd1fd0a4f28419497f9722a3daafe3b4186f6b6457e0908390a3603380546001600160a01b0319169055565b60606000609860009054906101000a90046001600160a01b03166001600160a01b03166306661abd6040518163ffffffff1660e01b815260040160206040518083038186803b15801561074957600080fd5b505afa15801561075d573d6000803e3d6000fd5b505050506040513d601f19601f820116820180604052508101906107819190612515565b6098546040516350fd736760e01b81529192506001600160a01b0316906350fd7367906107b49086908590600401612b11565b60006040518083038186803b1580156107cc57600080fd5b505afa1580156107e0573d6000803e3d6000fd5b505050506040513d6000823e601f3d908101601f1916820160405261080891908101906123f2565b9392505050565b6033546001600160a01b031690565b609a546001600160a01b031681565b60026065541415610885576040805162461bcd60e51b815260206004820152601f60248201527f5265656e7472616e637947756172643a207265656e7472616e742063616c6c00604482015290519081900360640190fd5b600260658190555060008690506000816001600160a01b03166310474bb46040518163ffffffff1660e01b815260040160206040518083038186803b1580156108cd57600080fd5b505afa1580156108e1573d6000803e3d6000fd5b505050506040513d601f19601f8201168201806040525081019061090591906122f1565b90506000609960009054906101000a90046001600160a01b03166001600160a01b0316639038a3ce6040518163ffffffff1660e01b815260040160206040518083038186803b15801561095757600080fd5b505afa15801561096b573d6000803e3d6000fd5b505050506040513d601f19601f8201168201806040525081019061098f91906122f1565b905083816001600160a01b031663dd62ed3e33306040518363ffffffff1660e01b81526004016109c09291906127a1565b60206040518083038186803b1580156109d857600080fd5b505afa1580156109ec573d6000803e3d6000fd5b505050506040513d601f19601f82011682018060405250810190610a109190612515565b1015610a375760405162461bcd60e51b8152600401610a2e9061296c565b60405180910390fd5b610a4c6001600160a01b03821633308761186a565b604051636eb1769f60e11b81526000906001600160a01b0383169063dd62ed3e90610a7d90309088906004016127a1565b60206040518083038186803b158015610a9557600080fd5b505afa158015610aa9573d6000803e3d6000fd5b505050506040513d601f19601f82011682018060405250810190610acd9190612515565b1415610b575760405163095ea7b360e01b81526001600160a01b0382169063095ea7b390610b03908690600019906004016127e1565b602060405180830381600087803b158015610b1d57600080fd5b505af1158015610b31573d6000803e3d6000fd5b505050506040513d601f19601f82011682018060405250810190610b5591906124b9565b505b604051638500f56760e01b81526001600160a01b03831690638500f56790610b899089908c908c908b906004016127fa565b600060405180830381600087803b158015610ba357600080fd5b505af1158015610bb7573d6000803e3d6000fd5b505060016065555050505050505050505050565b610bd3611f85565b609754604051631b60561160e21b81526000916001600160a01b031690636d81584490610c0490899060040161278d565b60206040518083038186803b158015610c1c57600080fd5b505afa158015610c30573d6000803e3d6000fd5b505050506040513d601f19601f82011682018060405250810190610c549190612515565b9050610c5e611fd9565b60975460405163a5f926f560e01b81526001600160a01b039091169063a5f926f590610c95908a90899060009088906004016127bb565b60006040518083038186803b158015610cad57600080fd5b505afa158015610cc1573d6000803e3d6000fd5b505050506040513d6000823e601f3d908101601f19168201604052610ce9919081019061252d565b6060850152604084015260208301528082528610610d195760405162461bcd60e51b8152600401610a2e906129f5565b60008482600001511115610d2e575083610d32565b5080515b60608167ffffffffffffffff81118015610d4b57600080fd5b50604051908082528060200260200182016040528015610d8557816020015b610d72611f85565b815260200190600190039081610d6a5790505b50905060005b82811015610ea357610d9b611f85565b84602001518281518110610dab57fe5b60209081029190910101516001600160a01b031660c08201526040850151805183908110610dd557fe5b60209081029190910101515160608201526040850151805183908110610df757fe5b60200260200101516020015181608001818152505084604001518281518110610e1c57fe5b60200260200101516040015181602001818152505084604001518281518110610e4157fe5b6020026020010151606001518160e001818152505084606001518281518110610e6657fe5b60200260200101516006811115610e7957fe5b61010082015282518190849084908110610e8f57fe5b602090810291909101015250600101610d8b565b50808881518110610eb057fe5b6020026020010151945050505050949350505050565b609754604051631b60561160e21b815260009182916001600160a01b0390911690636d81584490610efb90879060040161278d565b60206040518083038186803b158015610f1357600080fd5b505afa158015610f27573d6000803e3d6000fd5b505050506040513d601f19601f82011682018060405250810190610f4b9190612515565b9050610f55611fd9565b60975460405163a5f926f560e01b81526001600160a01b039091169063a5f926f590610f8c908890889060009088906004016127bb565b60006040518083038186803b158015610fa457600080fd5b505afa158015610fb8573d6000803e3d6000fd5b505050506040513d6000823e601f3d908101601f19168201604052610fe0919081019061252d565b60608501526040840152602083015290819052949350505050565b611003612001565b609854604051634c3b9f1960e01b81526000916001600160a01b031690634c3b9f1990611034908a9060040161278d565b60206040518083038186803b15801561104c57600080fd5b505afa158015611060573d6000803e3d6000fd5b505050506040513d601f19601f8201168201806040525081019061108491906124b9565b90506001811515146110a85760405162461bcd60e51b8152600401610a2e906129b2565b866110b1612001565b604051639b9bc30f60e01b81526001600160a01b03831690639b9bc30f906110e1908e908e908d90600401612b1f565b60606040518083038186803b1580156110f957600080fd5b505afa15801561110d573d6000803e3d6000fd5b505050506040513d601f19601f82011682018060405250810190611131919061270f565b6040808501919091526020808501929092529183528151630abb87c960e11b815291516001600160a01b038516926315770f92926004808301939192829003018186803b15801561118157600080fd5b505afa158015611195573d6000803e3d6000fd5b505050506040513d601f19601f820116820180604052508101906111b99190612515565b816060018181525050816001600160a01b031663f60ff9376040518163ffffffff1660e01b815260040160206040518083038186803b1580156111fb57600080fd5b505afa15801561120f573d6000803e3d6000fd5b505050506040513d601f19601f820116820180604052508101906112339190612515565b608082015260408051600180825281830190925260609160208083019080368337019050509050898160008151811061126857fe5b6001600160a01b03909216602092830291909101909101525092505050979650505050505050565b600090565b604051634064a0cf60e11b8152606090819030906380c9419e906112be90600090600401612963565b60006040518083038186803b1580156112d657600080fd5b505afa1580156112ea573d6000803e3d6000fd5b505050506040513d6000823e601f3d908101601f1916820160405261131291908101906123f2565b60985460405163f10ed7a360e01b81529192506001600160a01b03169063f10ed7a390611343908490600401612825565b60006040518083038186803b15801561135b57600080fd5b505afa15801561136f573d6000803e3d6000fd5b505050506040513d6000823e601f3d908101601f191682016040526113979190810190612486565b50905090565b6099546001600160a01b031681565b600054610100900460ff16806113c557506113c56118ca565b806113d3575060005460ff16155b61140e5760405162461bcd60e51b815260040180806020018281038252602e815260200180612c2f602e913960400191505060405180910390fd5b600054610100900460ff16158015611439576000805460ff1961ff0019909116610100171660011790555b6114416118db565b61144961198d565b609980546001600160a01b0319166001600160a01b03848116919091179182905560408051630bc3f29d60e01b815290519290911691630bc3f29d91600480820192602092909190829003018186803b1580156114a557600080fd5b505afa1580156114b9573d6000803e3d6000fd5b505050506040513d601f19601f820116820180604052508101906114dd91906122f1565b609780546001600160a01b0319166001600160a01b039283161790556099546040805163dc9c563f60e01b81529051919092169163dc9c563f916004808301926020929190829003018186803b15801561153657600080fd5b505afa15801561154a573d6000803e3d6000fd5b505050506040513d601f19601f8201168201806040525081019061156e91906122f1565b609880546001600160a01b0319166001600160a01b03928316179055609954604080516339f9615f60e01b8152905191909216916339f9615f916004808301926020929190829003018186803b1580156115c757600080fd5b505afa1580156115db573d6000803e3d6000fd5b505050506040513d601f19601f820116820180604052508101906115ff91906122f1565b609a80546001600160a01b0319166001600160a01b039283161790556099546040805163db43ccb560e01b81529051919092169163db43ccb5916004808301926020929190829003018186803b15801561165857600080fd5b505afa15801561166c573d6000803e3d6000fd5b505050506040513d601f19601f8201168201806040525081019061169091906122f1565b609b80546001600160a01b0319166001600160a01b039290921691909117905580156116c2576000805461ff00191690555b5050565b6116ce611866565b6001600160a01b03166116df61080f565b6001600160a01b03161461173a576040805162461bcd60e51b815260206004820181905260248201527f4f776e61626c653a2063616c6c6572206973206e6f7420746865206f776e6572604482015290519081900360640190fd5b6001600160a01b03811661177f5760405162461bcd60e51b8152600401808060200182810382526026815260200180612be36026913960400191505060405180910390fd5b6033546040516001600160a01b038084169216907f8be0079c531659141344cd1fd0a4f28419497f9722a3daafe3b4186f6b6457e090600090a3603380546001600160a01b0319166001600160a01b0392909216919091179055565b60975460405163fd7057f760e01b81526060916001600160a01b03169063fd7057f79061180c90859060040161278d565b60006040518083038186803b15801561182457600080fd5b505afa158015611838573d6000803e3d6000fd5b505050506040513d6000823e601f3d908101601f1916820160405261186091908101906123f2565b92915050565b3390565b604080516001600160a01b0380861660248301528416604482015260648082018490528251808303909101815260849091019091526020810180516001600160e01b03166323b872dd60e01b1790526118c4908590611a22565b50505050565b60006118d530611ad8565b15905090565b600054610100900460ff16806118f457506118f46118ca565b80611902575060005460ff16155b61193d5760405162461bcd60e51b815260040180806020018281038252602e815260200180612c2f602e913960400191505060405180910390fd5b600054610100900460ff16158015611968576000805460ff1961ff0019909116610100171660011790555b611970611ade565b611978611b7e565b801561198a576000805461ff00191690555b50565b600054610100900460ff16806119a657506119a66118ca565b806119b4575060005460ff16155b6119ef5760405162461bcd60e51b815260040180806020018281038252602e815260200180612c2f602e913960400191505060405180910390fd5b600054610100900460ff16158015611a1a576000805460ff1961ff0019909116610100171660011790555b611978611c77565b6060611a77826040518060400160405280602081526020017f5361666545524332303a206c6f772d6c6576656c2063616c6c206661696c6564815250856001600160a01b0316611d1d9092919063ffffffff16565b805190915015611ad357808060200190516020811015611a9657600080fd5b5051611ad35760405162461bcd60e51b815260040180806020018281038252602a815260200180612c5d602a913960400191505060405180910390fd5b505050565b3b151590565b600054610100900460ff1680611af75750611af76118ca565b80611b05575060005460ff16155b611b405760405162461bcd60e51b815260040180806020018281038252602e815260200180612c2f602e913960400191505060405180910390fd5b600054610100900460ff16158015611978576000805460ff1961ff001990911661010017166001179055801561198a576000805461ff001916905550565b600054610100900460ff1680611b975750611b976118ca565b80611ba5575060005460ff16155b611be05760405162461bcd60e51b815260040180806020018281038252602e815260200180612c2f602e913960400191505060405180910390fd5b600054610100900460ff16158015611c0b576000805460ff1961ff0019909116610100171660011790555b6000611c15611866565b603380546001600160a01b0319166001600160a01b038316908117909155604051919250906000907f8be0079c531659141344cd1fd0a4f28419497f9722a3daafe3b4186f6b6457e0908290a350801561198a576000805461ff001916905550565b600054610100900460ff1680611c905750611c906118ca565b80611c9e575060005460ff16155b611cd95760405162461bcd60e51b815260040180806020018281038252602e815260200180612c2f602e913960400191505060405180910390fd5b600054610100900460ff16158015611d04576000805460ff1961ff0019909116610100171660011790555b6001606555801561198a576000805461ff001916905550565b6060611d2c8484600085611d34565b949350505050565b606082471015611d755760405162461bcd60e51b8152600401808060200182810382526026815260200180612c096026913960400191505060405180910390fd5b611d7e85611ad8565b611dcf576040805162461bcd60e51b815260206004820152601d60248201527f416464726573733a2063616c6c20746f206e6f6e2d636f6e7472616374000000604482015290519081900360640190fd5b60006060866001600160a01b031685876040518082805190602001908083835b60208310611e0e5780518252601f199092019160209182019101611def565b6001836020036101000a03801982511681845116808217855250505050505090500191505060006040518083038185875af1925050503d8060008114611e70576040519150601f19603f3d011682016040523d82523d6000602084013e611e75565b606091505b5091509150611e85828286611e90565b979650505050505050565b60608315611e9f575081610808565b825115611eaf5782518084602001fd5b8160405162461bcd60e51b81526004018080602001828103825283818151815260200191508051906020019080838360005b83811015611ef9578181015183820152602001611ee1565b50505050905090810190601f168015611f265780820380516001836020036101000a031916815260200191505b509250505060405180910390fd5b6040805161010081018252606081526000602082018190529091820190815260200160008152602001600081526020016000815260200160001515815260200160006001600160a01b031681525090565b6040805161014081018252600080825260208201819052918101829052606081018290526080810182905260a0810182905260c0810182905260e08101829052610100810182905261012081019190915290565b6040518060800160405280600081526020016060815260200160608152602001606081525090565b6040518060e00160405280600081526020016000815260200160008152602001600081526020016000815260200160008152602001600081525090565b805161038481612bbf565b600082601f830112612059578081fd5b815161206c61206782612b75565b612b51565b81815291506020808301908481018184028601820187101561208d57600080fd5b60005b848110156120b55781516120a381612bbf565b84529282019290820190600101612090565b505050505092915050565b600082601f8301126120d0578081fd5b81516120de61206782612b75565b8181529150602080830190848101818402860182018710156120ff57600080fd5b6000805b8581101561212b57825160078110612119578283fd5b85529383019391830191600101612103565b50505050505092915050565b600082601f830112612147578081fd5b815161215561206782612b75565b818152915060208083019084810160005b848110156120b5578151870161016080601f19838c0301121561218857600080fd5b61219181612b51565b8583015167ffffffffffffffff8111156121aa57600080fd5b6121b88c888387010161226f565b82525060406121c881850161203e565b8783015260606121d9818601612260565b828401526080915081850151818401525060a0808501518284015260c0915081850151818401525060e0808501518284015261010091508185015181840152506101208085015182840152610140915081850151818401525061223d838501612255565b90820152865250509282019290820190600101612166565b805161038481612bd4565b80516005811061038457600080fd5b600082601f83011261227f578081fd5b815167ffffffffffffffff81111561229357fe5b6122a6601f8201601f1916602001612b51565b91508082528360208285010111156122bd57600080fd5b6122ce816020840160208601612b93565b5092915050565b6000602082840312156122e6578081fd5b813561080881612bbf565b600060208284031215612302578081fd5b815161080881612bbf565b6000806040838503121561231f578081fd5b823561232a81612bbf565b9150602083013561233a81612bd4565b809150509250929050565b6000806000806080858703121561235a578182fd5b843561236581612bbf565b935060208501359250604085013561237c81612bd4565b9396929550929360600135925050565b60008060008060008060c087890312156123a4578384fd5b86356123af81612bbf565b9550602087013594506040870135935060608701356123cd81612bbf565b925060808701356123dd81612bbf565b8092505060a087013590509295509295509295565b600060208284031215612403578081fd5b815167ffffffffffffffff811115612419578182fd5b611d2c84828501612049565b60008060408385031215612437578182fd5b825167ffffffffffffffff8082111561244e578384fd5b61245a86838701612049565b9350602085015191508082111561246f578283fd5b5061247c85828601612137565b9150509250929050565b600060208284031215612497578081fd5b815167ffffffffffffffff8111156124ad578182fd5b611d2c84828501612137565b6000602082840312156124ca578081fd5b815161080881612bd4565b6000602082840312156124e6578081fd5b81356001600160e01b031981168114610808578182fd5b60006020828403121561250e578081fd5b5035919050565b600060208284031215612526578081fd5b5051919050565b60008060008060808587031215612542578182fd5b8451935060208086015167ffffffffffffffff80821115612561578485fd5b61256d89838a01612049565b9550604091508188015181811115612583578586fd5b8801601f81018a13612593578586fd5b80516125a161206782612b75565b8181528581019083870160808402850188018e10156125be57898afd5b8994505b83851015612622576080818f0312156125d957898afd5b86516080810181811088821117156125ed57fe5b8852815181528882015189820152818801518189015260608083015190820152835260019490940193918701916080016125c2565b5060608c015190985095505050508083111561263c578384fd5b505061264a878288016120c0565b91505092959194509250565b600080600080600080600060c0888a031215612670578485fd5b8735965060208801359550604088013561268981612bbf565b9450606088013561269981612bbf565b935060808801356126a981612bbf565b925060a088013567ffffffffffffffff808211156126c5578283fd5b818a0191508a601f8301126126d8578283fd5b8135818111156126e6578384fd5b8b60208285010111156126f7578384fd5b60208301945080935050505092959891949750929550565b600080600060608486031215612723578081fd5b8351925060208401519150604084015190509250925092565b6000806040838503121561274e578182fd5b823560ff8116811461275e578283fd5b946020939093013593505050565b6001600160a01b03169052565b15159052565b6005811061278957fe5b9052565b6001600160a01b0391909116815260200190565b6001600160a01b0392831681529116602082015260400190565b6001600160a01b0394909416845291151560208401526040830152606082015260800190565b6001600160a01b03929092168252602082015260400190565b6001600160a01b03948516815260208101939093526040830191909152909116606082015260800190565b6020808252825182820181905260009190848201906040850190845b818110156128665783516001600160a01b031683529284019291840191600101612841565b50909695505050505050565b60208082528251828201819052600091906040908185019080840286018301878501865b8381101561062b57603f19898403018552815161010081518186528051808388015261012092506128cc818489018d8501612b93565b8a84015191506128de8b88018361276c565b8984015191506128f08a88018361277f565b606084810151908801526080808501519088015260a0808501519088015260c08085015190925061292383890182612779565b5060e0938401519391506129398783018561276c565b978a0197601f01601f1916959095010193505090860190600101612896565b901515815260200190565b90815260200190565b60208082526026908201527f4272696467654469737472696275746f723a204e6565642066756e64732061706040820152651c1c9bdd985b60d21b606082015260800190565b60208082526023908201527f4272696467654469737472696275746f723a204e6f74206120706f6c696379426040820152626f6f6b60e81b606082015260800190565b60208082526022908201527f4272696467654469737472696275746f723a20496e76616c696420636f766572604082015261125960f21b606082015260800190565b600060e082019050825182526020830151602083015260408301516040830152606083015160608301526080830151608083015260a083015160a083015260c083015160c083015292915050565b600061014082019050825182526020830151602083015260408301516040830152606083015160608301526080830151608083015260a0830151612acc60a084018261276c565b5060c0830151612adf60c084018261276c565b5060e083015160e083015261010080840151818401525061012080840151612b098285018261276c565b505092915050565b918252602082015260400190565b92835260208301919091526001600160a01b0316604082015260600190565b60ff929092168252602082015260400190565b60405181810167ffffffffffffffff81118282101715612b6d57fe5b604052919050565b600067ffffffffffffffff821115612b8957fe5b5060209081020190565b60005b83811015612bae578181015183820152602001612b96565b838111156118c45750506000910152565b6001600160a01b038116811461198a57600080fd5b801515811461198a57600080fdfe4f776e61626c653a206e6577206f776e657220697320746865207a65726f2061646472657373416464726573733a20696e73756666696369656e742062616c616e636520666f722063616c6c496e697469616c697a61626c653a20636f6e747261637420697320616c726561647920696e697469616c697a65645361666545524332303a204552433230206f7065726174696f6e20646964206e6f742073756363656564a26469706673582212208f5e37e56992c4c6955fd4e0f1fe00bb9df47239aa3fbb6ae000476b77063d5564736f6c63430007040033",
  "immutableReferences": {},
  "source": "// SPDX-License-Identifier: MIT\npragma solidity ^0.7.4;\n\npragma experimental ABIEncoderV2;\n\nimport \"@openzeppelin/contracts-upgradeable/access/OwnableUpgradeable.sol\";\nimport \"@openzeppelin/contracts-upgradeable/proxy/Initializable.sol\";\nimport \"@openzeppelin/contracts-upgradeable/utils/ReentrancyGuardUpgradeable.sol\";\nimport \"@openzeppelin/contracts-upgradeable/token/ERC20/IERC20Upgradeable.sol\";\nimport \"@openzeppelin/contracts-upgradeable/token/ERC20/SafeERC20Upgradeable.sol\";\nimport \"@openzeppelin/contracts/token/ERC20/SafeERC20.sol\";\n\nimport \"./interfaces/v2/IPolicyRegistryV2.sol\";\nimport \"./interfaces/v2/IPolicyBookRegistryV2.sol\";\nimport \"./interfaces/v2/IContractsRegistryV2.sol\";\nimport \"./interfaces/v2/IPolicyBookFabricV2.sol\";\nimport \"./interfaces/v2/IPolicyBookV2.sol\";\nimport \"./interfaces/v2/IPolicyQuoteV2.sol\";\nimport \"./interfaces/v2/IClaimingRegistryV2.sol\";\nimport \"../../IDistributor.sol\";\nimport \"../AbstractDistributor.sol\";\n\ncontract BridgeDistributorV2 is\n    AbstractDistributor,\n    IDistributor,\n    Initializable,\n    OwnableUpgradeable,\n    ReentrancyGuardUpgradeable\n{\n    using SafeMath for uint256;\n    using SafeERC20Upgradeable for IERC20Upgradeable;\n\n    IPolicyRegistryV2 public policyRegistry;\n    IPolicyBookRegistryV2 public policyBookRegistry;\n    IContractsRegistryV2 public contractsRegistry;\n    IClaimingRegistryV2 public claimRegistry;\n    IPolicyQuoteV2 public policyQuote;\n\n    struct PolicyInfo {\n        uint256 policiesCount;\n        address[] polBooksArr;\n        IPolicyRegistryV2.PolicyInfo[] policiesInfo;\n        IClaimingRegistryV2.ClaimStatus[] status;\n    }\n\n    function __BridgeDistributor_init(address _contractsRegistry)\n        public\n        initializer\n    {\n        __Ownable_init();\n        __ReentrancyGuard_init();\n        contractsRegistry = IContractsRegistryV2(_contractsRegistry);\n        policyRegistry = IPolicyRegistryV2(\n            contractsRegistry.getPolicyRegistryContract()\n        );\n        policyBookRegistry = IPolicyBookRegistryV2(\n            contractsRegistry.getPolicyBookRegistryContract()\n        );\n        claimRegistry = IClaimingRegistryV2(\n            contractsRegistry.getClaimingRegistryContract()\n        );\n        policyQuote = IPolicyQuoteV2(\n            contractsRegistry.getPolicyQuoteContract()\n        );\n    }\n\n    function getCoverCount(address _userAddr, bool _isActive)\n        external\n        view\n        override\n        returns (uint256)\n    {\n        uint256 _ownersCoverCount = policyRegistry.getPoliciesLength(_userAddr);\n\n        PolicyInfo memory pol;\n        (\n            pol.policiesCount,\n            pol.polBooksArr,\n            pol.policiesInfo,\n            pol.status\n        ) = policyRegistry.getPoliciesInfo(\n            _userAddr,\n            _isActive,\n            0,\n            _ownersCoverCount\n        );\n        return pol.policiesCount;\n    }\n\n    function getCover(\n        address _userAddr,\n        uint256 _coverId,\n        bool _isActive,\n        uint256 _limitLoop\n    ) external view override returns (IDistributor.Cover memory) {\n        uint256 _ownersCoverCount = policyRegistry.getPoliciesLength(_userAddr);\n\n        PolicyInfo memory pol;\n        (\n            pol.policiesCount,\n            pol.polBooksArr,\n            pol.policiesInfo,\n            pol.status\n        ) = policyRegistry.getPoliciesInfo(\n            _userAddr,\n            _isActive,\n            0,\n            _ownersCoverCount\n        );\n\n        require(\n            _coverId < pol.policiesCount,\n            \"BridgeDistributor: Invalid coverId\"\n        );\n\n        uint256 limit = 0;\n        if (pol.policiesCount > _limitLoop) {\n            limit = _limitLoop;\n        } else {\n            limit = pol.policiesCount;\n        }\n\n        IDistributor.Cover[] memory userCovers = new IDistributor.Cover[](\n            limit\n        );\n\n        for (uint256 coverId = 0; coverId < limit; coverId++) {\n            IDistributor.Cover memory cover;\n            cover.contractAddress = pol.polBooksArr[coverId];\n            cover.coverAmount = pol.policiesInfo[coverId].coverAmount;\n            cover.premium = pol.policiesInfo[coverId].premium;\n            cover.productId = pol.policiesInfo[coverId].startTime;\n            cover.expiration = pol.policiesInfo[coverId].endTime;\n            cover.status = uint256(pol.status[coverId]);\n            userCovers[coverId] = cover;\n        }\n        return userCovers[_coverId];\n    }\n\n    function getPoliciesArr(address _userAddr)\n        external\n        view\n        returns (address[] memory _arr)\n    {\n        return policyRegistry.getPoliciesArr(_userAddr);\n    }\n\n    function getQuote(\n        uint256 _bridgeEpochs,\n        uint256 _amountInWei,\n        address _bridgeProductAddress,\n        address _buyerAddress,\n        address _interfaceCompliant2,\n        bytes calldata _interfaceCompliant3\n    ) external view override returns (IDistributor.CoverQuote memory) {\n        bool isPolicyBook = policyBookRegistry.isPolicyBook(\n            _bridgeProductAddress\n        );\n        require(isPolicyBook == true, \"BridgeDistributor: Not a policyBook\");\n\n        IPolicyBookV2 policyBook = IPolicyBookV2(_bridgeProductAddress);\n\n        IDistributor.CoverQuote memory coverQuote;\n        (\n            coverQuote.prop1, // totalSeconds, totalPrice\n            coverQuote.prop2,\n            coverQuote.prop3\n        ) = policyBook.getPolicyPrice(\n            _bridgeEpochs,\n            _amountInWei,\n            _buyerAddress\n        );\n        coverQuote.prop4 = policyBook.totalLiquidity();\n        coverQuote.prop5 = policyBook.totalCoverTokens();\n        //coverQuote.prop5  = policyQuote.getQuote(coverQuote.prop1,coverQuote.prop2, policyBook); //get price in DAI?\n\n        address[] memory policyBookArr = new address[](1);\n        policyBookArr[0] = _bridgeProductAddress;\n        //(IPolicyBookRegistry.PolicyBookStats[] memory _stats) = policyBookRegistry.stats(policyBookArr);\n        //coverQuote.prop6  = _stats[0].maxCapacity;\n\n        return coverQuote;\n    }\n\n    function buyCover(\n        address _bridgeProductAddress,\n        uint256 _epochsNumber,\n        uint256 _sumAssured,\n        address _buyerAddress,\n        address _treasuryAddress,\n        uint256 _premium\n    ) external payable nonReentrant {\n        // get payable contract address\n        IPolicyBookV2 policyBook = IPolicyBookV2(_bridgeProductAddress);\n        IPolicyBookFacadeV2 policyBookFacade = policyBook.policyBookFacade();\n\n        address stblToken = contractsRegistry.getUSDTContract();\n\n        // Check previous allowance\n        require(\n            IERC20Upgradeable(stblToken).allowance(msg.sender, address(this)) >= _premium,\n            \"BridgeDistributor: Need funds approval\"\n        );\n\n        // transfer erc20 funds to this contract\n        IERC20Upgradeable(stblToken).safeTransferFrom(\n            msg.sender,\n            address(this),\n            _premium\n        );\n        if (\n            IERC20Upgradeable(stblToken).allowance(\n                address(this),\n                address(policyBook)\n            ) == uint256(0)\n        ) {\n            //safe as this contract has no funds stored & will be called once only\n            IERC20Upgradeable(stblToken).approve(address(policyBook), MAX_INT);\n        }\n\n        // buy policyBookFacadeh\n        policyBookFacade.buyPolicyFromDistributorFor(\n            _buyerAddress,\n            _epochsNumber,\n            _sumAssured,\n            _treasuryAddress\n        );\n    }\n\n    function listWithStats(uint8 _offset, uint256 _limitLoop)\n        external\n        view\n        returns (PolicyCatalog[] memory)\n    {\n        uint256 count = policyBookRegistry.count();\n\n        uint256 limit = 0;\n        if (count > _limitLoop) {\n            limit = _limitLoop;\n        } else {\n            limit = count;\n        }\n\n        (\n            address[] memory _policyBooks,\n            IPolicyBookRegistryV2.PolicyBookStats[] memory _stats\n        ) = policyBookRegistry.listWithStats(_offset, count);\n\n        PolicyCatalog[] memory catalogList;\n        PolicyCatalog memory catalog;\n\n        for (uint8 i = 0; i < limit; i++) {\n            catalog.name = _stats[i].symbol;\n            catalog.insuredContract = _stats[i].insuredContract;\n            catalog.maxCapacity = _stats[i].maxCapacity;\n            catalog.totalDaiLiquidity = _stats[i].totalSTBLLiquidity;\n            catalog.APY = _stats[i].APY;\n            catalog.whitelisted = _stats[i].whitelisted;\n            catalog.policyAddress = _policyBooks[i];\n            catalogList[i] = catalog;\n        }\n        return catalogList;\n    }\n\n    struct PolicyCatalog {\n        string name;\n        address insuredContract;\n        IPolicyBookFabricV2.ContractType contractType;\n        uint256 maxCapacity;\n        uint256 totalDaiLiquidity;\n        uint256 APY;\n        bool whitelisted;\n        address policyAddress;\n    }\n\n    function list(uint256 _offset)\n        external\n        view\n        returns (address[] memory _policyBooks)\n    {\n        uint256 limit = policyBookRegistry.count();\n        return policyBookRegistry.list(_offset, limit);\n    }\n\n    function stats() public view returns (address[] memory) {\n        address[] memory _policyBooks = this.list(0);\n        policyBookRegistry.stats(_policyBooks);\n        return _policyBooks;\n    }\n\n    function supportsInterface(bytes4 interfaceId)\n        public\n        view\n        override\n        returns (bool)\n    {\n        return interfaceId == type(IDistributor).interfaceId;\n    }\n\n    function addressCero() external view returns (address) {\n        return address(0);\n    }\n}\n",
  "sourcePath": "/Users/kirilivanov/DEV/BrightUnion/distributors/contracts/distributors/bridge/BridgeDistributorV2.sol",
  "compiler": {
    "name": "solc",
    "version": "0.7.4+commit.3f05b770.Emscripten.clang"
  },
  "schemaVersion": "3.4.3",
  "updatedAt": "2022-04-12T07:43:36.673Z",
  "devdoc": {
    "kind": "dev",
    "methods": {
      "owner()": {
        "details": "Returns the address of the current owner."
      },
      "renounceOwnership()": {
        "details": "Leaves the contract without owner. It will not be possible to call `onlyOwner` functions anymore. Can only be called by the current owner. NOTE: Renouncing ownership will leave the contract without an owner, thereby removing any functionality that is only available to the owner."
      },
      "supportsInterface(bytes4)": {
        "details": "Returns true if this contract implements the interface defined by `interfaceId`. See the corresponding https://eips.ethereum.org/EIPS/eip-165#how-interfaces-are-identified[EIP section] to learn more about how these ids are created. This function call must use less than 30 000 gas."
      },
      "transferOwnership(address)": {
        "details": "Transfers ownership of the contract to a new account (`newOwner`). Can only be called by the current owner."
      }
    },
    "version": 1
  },
  "userdoc": {
    "kind": "user",
    "methods": {},
    "version": 1
  }
}