{
  "contractName": "BridgeDistributorV2",
  "abi": [
    {
      "anonymous": false,
      "inputs": [
        {
          "indexed": false,
          "internalType": "address",
          "name": "_productAddress",
          "type": "address"
        },
        {
          "indexed": false,
          "internalType": "uint256",
          "name": "_productId",
          "type": "uint256"
        },
        {
          "indexed": false,
          "internalType": "uint256",
          "name": "_period",
          "type": "uint256"
        },
        {
          "indexed": false,
          "internalType": "address",
          "name": "_asset",
          "type": "address"
        },
        {
          "indexed": false,
          "internalType": "uint256",
          "name": "_amount",
          "type": "uint256"
        },
        {
          "indexed": false,
          "internalType": "uint256",
          "name": "_price",
          "type": "uint256"
        }
      ],
      "name": "BuyCoverEvent",
      "type": "event"
    },
    {
      "anonymous": false,
      "inputs": [
        {
          "indexed": true,
          "internalType": "address",
          "name": "previousOwner",
          "type": "address"
        },
        {
          "indexed": true,
          "internalType": "address",
          "name": "newOwner",
          "type": "address"
        }
      ],
      "name": "OwnershipTransferred",
      "type": "event"
    },
    {
      "inputs": [],
      "name": "claimRegistry",
      "outputs": [
        {
          "internalType": "contract IClaimingRegistryV2",
          "name": "",
          "type": "address"
        }
      ],
      "stateMutability": "view",
      "type": "function",
      "constant": true
    },
    {
      "inputs": [],
      "name": "contractsRegistry",
      "outputs": [
        {
          "internalType": "contract IContractsRegistryV2",
          "name": "",
          "type": "address"
        }
      ],
      "stateMutability": "view",
      "type": "function",
      "constant": true
    },
    {
      "inputs": [],
      "name": "owner",
      "outputs": [
        {
          "internalType": "address",
          "name": "",
          "type": "address"
        }
      ],
      "stateMutability": "view",
      "type": "function",
      "constant": true
    },
    {
      "inputs": [],
      "name": "policyBookRegistry",
      "outputs": [
        {
          "internalType": "contract IPolicyBookRegistryV2",
          "name": "",
          "type": "address"
        }
      ],
      "stateMutability": "view",
      "type": "function",
      "constant": true
    },
    {
      "inputs": [],
      "name": "policyQuote",
      "outputs": [
        {
          "internalType": "contract IPolicyQuoteV2",
          "name": "",
          "type": "address"
        }
      ],
      "stateMutability": "view",
      "type": "function",
      "constant": true
    },
    {
      "inputs": [],
      "name": "policyRegistry",
      "outputs": [
        {
          "internalType": "contract IPolicyRegistryV2",
          "name": "",
          "type": "address"
        }
      ],
      "stateMutability": "view",
      "type": "function",
      "constant": true
    },
    {
      "inputs": [],
      "name": "renounceOwnership",
      "outputs": [],
      "stateMutability": "nonpayable",
      "type": "function"
    },
    {
      "inputs": [
        {
          "internalType": "address",
          "name": "newOwner",
          "type": "address"
        }
      ],
      "name": "transferOwnership",
      "outputs": [],
      "stateMutability": "nonpayable",
      "type": "function"
    },
    {
      "inputs": [
        {
          "internalType": "address",
          "name": "_contractsRegistry",
          "type": "address"
        }
      ],
      "name": "__BridgeDistributorV2_init",
      "outputs": [],
      "stateMutability": "nonpayable",
      "type": "function"
    },
    {
      "inputs": [
        {
          "internalType": "address",
          "name": "_userAddr",
          "type": "address"
        },
        {
          "internalType": "bool",
          "name": "_isActive",
          "type": "bool"
        }
      ],
      "name": "getCoverCount",
      "outputs": [
        {
          "internalType": "uint256",
          "name": "",
          "type": "uint256"
        }
      ],
      "stateMutability": "view",
      "type": "function",
      "constant": true
    },
    {
      "inputs": [
        {
          "internalType": "address",
          "name": "_userAddr",
          "type": "address"
        },
        {
          "internalType": "uint256",
          "name": "_coverId",
          "type": "uint256"
        },
        {
          "internalType": "bool",
          "name": "_isActive",
          "type": "bool"
        },
        {
          "internalType": "uint256",
          "name": "_limitLoop",
          "type": "uint256"
        }
      ],
      "name": "getCover",
      "outputs": [
        {
          "components": [
            {
              "internalType": "bytes32",
              "name": "coverType",
              "type": "bytes32"
            },
            {
              "internalType": "uint256",
              "name": "productId",
              "type": "uint256"
            },
            {
              "internalType": "bytes32",
              "name": "contractName",
              "type": "bytes32"
            },
            {
              "internalType": "uint256",
              "name": "coverAmount",
              "type": "uint256"
            },
            {
              "internalType": "uint256",
              "name": "premium",
              "type": "uint256"
            },
            {
              "internalType": "address",
              "name": "currency",
              "type": "address"
            },
            {
              "internalType": "address",
              "name": "contractAddress",
              "type": "address"
            },
            {
              "internalType": "uint256",
              "name": "expiration",
              "type": "uint256"
            },
            {
              "internalType": "uint256",
              "name": "status",
              "type": "uint256"
            },
            {
              "internalType": "address",
              "name": "refAddress",
              "type": "address"
            }
          ],
          "internalType": "struct IDistributor.Cover",
          "name": "",
          "type": "tuple"
        }
      ],
      "stateMutability": "view",
      "type": "function",
      "constant": true
    },
    {
      "inputs": [
        {
          "internalType": "address",
          "name": "_userAddr",
          "type": "address"
        }
      ],
      "name": "getPoliciesArr",
      "outputs": [
        {
          "internalType": "address[]",
          "name": "_arr",
          "type": "address[]"
        }
      ],
      "stateMutability": "view",
      "type": "function",
      "constant": true
    },
    {
      "inputs": [
        {
          "internalType": "uint256",
          "name": "_bridgeEpochs",
          "type": "uint256"
        },
        {
          "internalType": "uint256",
          "name": "_amountInWei",
          "type": "uint256"
        },
        {
          "internalType": "address",
          "name": "_bridgeProductAddress",
          "type": "address"
        },
        {
          "internalType": "address",
          "name": "_buyerAddress",
          "type": "address"
        },
        {
          "internalType": "address",
          "name": "_interfaceCompliant2",
          "type": "address"
        },
        {
          "internalType": "bytes",
          "name": "_interfaceCompliant3",
          "type": "bytes"
        }
      ],
      "name": "getQuote",
      "outputs": [
        {
          "components": [
            {
              "internalType": "uint256",
              "name": "prop1",
              "type": "uint256"
            },
            {
              "internalType": "uint256",
              "name": "prop2",
              "type": "uint256"
            },
            {
              "internalType": "uint256",
              "name": "prop3",
              "type": "uint256"
            },
            {
              "internalType": "uint256",
              "name": "prop4",
              "type": "uint256"
            },
            {
              "internalType": "uint256",
              "name": "prop5",
              "type": "uint256"
            },
            {
              "internalType": "uint256",
              "name": "prop6",
              "type": "uint256"
            },
            {
              "internalType": "uint256",
              "name": "prop7",
              "type": "uint256"
            }
          ],
          "internalType": "struct IDistributor.CoverQuote",
          "name": "",
          "type": "tuple"
        }
      ],
      "stateMutability": "view",
      "type": "function",
      "constant": true
    },
    {
      "inputs": [
        {
          "internalType": "address",
          "name": "_bridgeProductAddress",
          "type": "address"
        },
        {
          "internalType": "uint256",
          "name": "_epochsNumber",
          "type": "uint256"
        },
        {
          "internalType": "uint16",
          "name": "_sumAssured",
          "type": "uint16"
        },
        {
          "internalType": "address",
          "name": "_buyerAddress",
          "type": "address"
        },
        {
          "internalType": "address",
          "name": "_treasuryAddress",
          "type": "address"
        },
        {
          "internalType": "uint256",
          "name": "_premium",
          "type": "uint256"
        },
        {
          "internalType": "bytes",
          "name": "_interfaceCompliant4",
          "type": "bytes"
        }
      ],
      "name": "buyCover",
      "outputs": [],
      "stateMutability": "payable",
      "type": "function",
      "payable": true
    },
    {
      "inputs": [
        {
          "internalType": "uint8",
          "name": "_offset",
          "type": "uint8"
        },
        {
          "internalType": "uint256",
          "name": "_limitLoop",
          "type": "uint256"
        }
      ],
      "name": "listWithStats",
      "outputs": [
        {
          "components": [
            {
              "internalType": "string",
              "name": "name",
              "type": "string"
            },
            {
              "internalType": "address",
              "name": "insuredContract",
              "type": "address"
            },
            {
              "internalType": "enum IPolicyBookFabricV2.ContractType",
              "name": "contractType",
              "type": "uint8"
            },
            {
              "internalType": "uint256",
              "name": "maxCapacity",
              "type": "uint256"
            },
            {
              "internalType": "uint256",
              "name": "totalDaiLiquidity",
              "type": "uint256"
            },
            {
              "internalType": "uint256",
              "name": "APY",
              "type": "uint256"
            },
            {
              "internalType": "bool",
              "name": "whitelisted",
              "type": "bool"
            },
            {
              "internalType": "address",
              "name": "policyAddress",
              "type": "address"
            }
          ],
          "internalType": "struct BridgeDistributorV2.PolicyCatalog[]",
          "name": "",
          "type": "tuple[]"
        }
      ],
      "stateMutability": "view",
      "type": "function",
      "constant": true
    },
    {
      "inputs": [
        {
          "internalType": "uint256",
          "name": "_offset",
          "type": "uint256"
        }
      ],
      "name": "list",
      "outputs": [
        {
          "internalType": "address[]",
          "name": "_policyBooks",
          "type": "address[]"
        }
      ],
      "stateMutability": "view",
      "type": "function",
      "constant": true
    },
    {
      "inputs": [],
      "name": "stats",
      "outputs": [
        {
          "internalType": "address[]",
          "name": "",
          "type": "address[]"
        }
      ],
      "stateMutability": "view",
      "type": "function",
      "constant": true
    },
    {
      "inputs": [
        {
          "internalType": "bytes4",
          "name": "interfaceId",
          "type": "bytes4"
        }
      ],
      "name": "supportsInterface",
      "outputs": [
        {
          "internalType": "bool",
          "name": "",
          "type": "bool"
        }
      ],
      "stateMutability": "view",
      "type": "function",
      "constant": true
    },
    {
      "inputs": [],
      "name": "addressCero",
      "outputs": [
        {
          "internalType": "address",
          "name": "",
          "type": "address"
        }
      ],
      "stateMutability": "view",
      "type": "function",
      "constant": true
    }
  ],
  "bytecode": "0x608060405234801561001057600080fd5b50612d1c806100206000396000f3fe6080604052600436106101145760003560e01c8063ac496c7b116100a0578063bf6193ad11610064578063bf6193ad146102f2578063d80528ae14610305578063d98d0c7e1461031a578063f2fde38b1461032f578063fd7057f71461034f57610114565b8063ac496c7b14610236578063b194270f14610263578063b1c36ebe14610290578063b9b3576d146102bd578063ba258d4d146102dd57610114565b806367951e23116100e757806367951e231461019b578063715018a6146101c857806380c9419e146101df5780638da5cb5b1461020c578063a878e1561461022157610114565b806301ffc9a71461011957806307e2ad2f1461014f5780631c4dd7d014610171578063400b70d514610186575b600080fd5b34801561012557600080fd5b5061013961013436600461255d565b61036f565b60405161014691906129b8565b60405180910390f35b34801561015b57600080fd5b50610164610389565b60405161014691906127e9565b34801561017d57600080fd5b50610164610398565b34801561019257600080fd5b506101646103a7565b3480156101a757600080fd5b506101bb6101b6366004612798565b6103b6565b60405161014691906128d2565b3480156101d457600080fd5b506101dd610639565b005b3480156101eb57600080fd5b506101ff6101fa366004612585565b6106f7565b6040516101469190612885565b34801561021857600080fd5b5061016461080f565b34801561022d57600080fd5b5061016461081e565b34801561024257600080fd5b5061025661025136600461238e565b61082d565b6040516101469190612ae5565b34801561026f57600080fd5b5061028361027e366004612356565b610b31565b60405161014691906129c3565b34801561029c57600080fd5b506102b06102ab3660046126de565b610c66565b6040516101469190612a97565b3480156102c957600080fd5b506101dd6102d836600461231e565b610efb565b3480156102e957600080fd5b50610164611215565b6101dd6103003660046123d5565b61121a565b34801561031157600080fd5b506101ff6115b1565b34801561032657600080fd5b506101646116b9565b34801561033b57600080fd5b506101dd61034a36600461231e565b6116c8565b34801561035b57600080fd5b506101ff61036a36600461231e565b6117dd565b6001600160e01b0319811663560f12e560e11b145b919050565b6098546001600160a01b031681565b6097546001600160a01b031681565b609b546001600160a01b031681565b60606000609860009054906101000a90046001600160a01b03166001600160a01b03166306661abd6040518163ffffffff1660e01b815260040160206040518083038186803b15801561040857600080fd5b505afa15801561041c573d6000803e3d6000fd5b505050506040513d601f19601f82011682018060405250810190610440919061259d565b9050600083821115610453575082610456565b50805b609854604051633216d38560e21b815260609182916001600160a01b039091169063c85b4e149061048d908a908890600401612b9e565b60006040518083038186803b1580156104a557600080fd5b505afa1580156104b9573d6000803e3d6000fd5b505050506040513d6000823e601f3d908101601f191682016040526104e191908101906124ad565b9150915060606104ef611f36565b60005b858160ff16101561062b57838160ff168151811061050c57fe5b60209081029190910101515182528351849060ff831690811061052b57fe5b6020908102919091018101518101516001600160a01b0316908301528351849060ff831690811061055857fe5b602002602001015160600151826060018181525050838160ff168151811061057c57fe5b602002602001015160800151826080018181525050838160ff16815181106105a057fe5b602002602001015160e001518260a0018181525050838160ff16815181106105c457fe5b60209081029190910101516101400151151560c08301528451859060ff83169081106105ec57fe5b60209081029190910101516001600160a01b031660e083015282518290849060ff841690811061061857fe5b60209081029190910101526001016104f2565b509098975050505050505050565b610641611868565b6001600160a01b031661065261080f565b6001600160a01b0316146106ad576040805162461bcd60e51b815260206004820181905260248201527f4f776e61626c653a2063616c6c6572206973206e6f7420746865206f776e6572604482015290519081900360640190fd5b6033546040516000916001600160a01b0316907f8be0079c531659141344cd1fd0a4f28419497f9722a3daafe3b4186f6b6457e0908390a3603380546001600160a01b0319169055565b60606000609860009054906101000a90046001600160a01b03166001600160a01b03166306661abd6040518163ffffffff1660e01b815260040160206040518083038186803b15801561074957600080fd5b505afa15801561075d573d6000803e3d6000fd5b505050506040513d601f19601f82011682018060405250810190610781919061259d565b6098546040516350fd736760e01b81529192506001600160a01b0316906350fd7367906107b49086908590600401612b71565b60006040518083038186803b1580156107cc57600080fd5b505afa1580156107e0573d6000803e3d6000fd5b505050506040513d6000823e601f3d908101601f19168201604052610808919081019061247a565b9392505050565b6033546001600160a01b031690565b609a546001600160a01b031681565b610835611f87565b609754604051631b60561160e21b81526000916001600160a01b031690636d815844906108669089906004016127e9565b60206040518083038186803b15801561087e57600080fd5b505afa158015610892573d6000803e3d6000fd5b505050506040513d601f19601f820116820180604052508101906108b6919061259d565b90506108c0611fdb565b60975460405163a5f926f560e01b81526001600160a01b039091169063a5f926f5906108f7908a9089906000908890600401612817565b60006040518083038186803b15801561090f57600080fd5b505afa158015610923573d6000803e3d6000fd5b505050506040513d6000823e601f3d908101601f1916820160405261094b91908101906125b5565b60608501526040840152602083015280825286106109845760405162461bcd60e51b815260040161097b90612a55565b60405180910390fd5b6000848260000151111561099957508361099d565b5080515b60608167ffffffffffffffff811180156109b657600080fd5b506040519080825280602002602001820160405280156109f057816020015b6109dd611f87565b8152602001906001900390816109d55790505b50905060005b82811015610b0e57610a06611f87565b84602001518281518110610a1657fe5b60209081029190910101516001600160a01b031660c08201526040850151805183908110610a4057fe5b60209081029190910101515160608201526040850151805183908110610a6257fe5b60200260200101516020015181608001818152505084604001518281518110610a8757fe5b60200260200101516040015181602001818152505084604001518281518110610aac57fe5b6020026020010151606001518160e001818152505084606001518281518110610ad157fe5b60200260200101516006811115610ae457fe5b61010082015282518190849084908110610afa57fe5b6020908102919091010152506001016109f6565b50808881518110610b1b57fe5b6020026020010151945050505050949350505050565b609754604051631b60561160e21b815260009182916001600160a01b0390911690636d81584490610b669087906004016127e9565b60206040518083038186803b158015610b7e57600080fd5b505afa158015610b92573d6000803e3d6000fd5b505050506040513d601f19601f82011682018060405250810190610bb6919061259d565b9050610bc0611fdb565b60975460405163a5f926f560e01b81526001600160a01b039091169063a5f926f590610bf790889088906000908890600401612817565b60006040518083038186803b158015610c0f57600080fd5b505afa158015610c23573d6000803e3d6000fd5b505050506040513d6000823e601f3d908101601f19168201604052610c4b91908101906125b5565b60608501526040840152602083015290819052949350505050565b610c6e612003565b609854604051634c3b9f1960e01b81526000916001600160a01b031690634c3b9f1990610c9f908a906004016127e9565b60206040518083038186803b158015610cb757600080fd5b505afa158015610ccb573d6000803e3d6000fd5b505050506040513d601f19601f82011682018060405250810190610cef9190612541565b9050600181151514610d135760405162461bcd60e51b815260040161097b90612a12565b86610d1c612003565b604051639b9bc30f60e01b81526001600160a01b03831690639b9bc30f90610d4c908e908e908d90600401612b7f565b60606040518083038186803b158015610d6457600080fd5b505afa158015610d78573d6000803e3d6000fd5b505050506040513d601f19601f82011682018060405250810190610d9c919061276b565b6040808501919091526020808501929092529183528151630abb87c960e11b815291516001600160a01b038516926315770f92926004808301939192829003018186803b158015610dec57600080fd5b505afa158015610e00573d6000803e3d6000fd5b505050506040513d601f19601f82011682018060405250810190610e24919061259d565b816060018181525050816001600160a01b031663f60ff9376040518163ffffffff1660e01b815260040160206040518083038186803b158015610e6657600080fd5b505afa158015610e7a573d6000803e3d6000fd5b505050506040513d601f19601f82011682018060405250810190610e9e919061259d565b6080820152604080516001808252818301909252606091602080830190803683370190505090508981600081518110610ed357fe5b6001600160a01b03909216602092830291909101909101525092505050979650505050505050565b600054610100900460ff1680610f145750610f1461186c565b80610f22575060005460ff16155b610f5d5760405162461bcd60e51b815260040180806020018281038252602e815260200180612c8f602e913960400191505060405180910390fd5b600054610100900460ff16158015610f88576000805460ff1961ff0019909116610100171660011790555b610f9061187d565b610f9861192f565b609980546001600160a01b0319166001600160a01b03848116919091179182905560408051630bc3f29d60e01b815290519290911691630bc3f29d91600480820192602092909190829003018186803b158015610ff457600080fd5b505afa158015611008573d6000803e3d6000fd5b505050506040513d601f19601f8201168201806040525081019061102c919061233a565b609780546001600160a01b0319166001600160a01b039283161790556099546040805163dc9c563f60e01b81529051919092169163dc9c563f916004808301926020929190829003018186803b15801561108557600080fd5b505afa158015611099573d6000803e3d6000fd5b505050506040513d601f19601f820116820180604052508101906110bd919061233a565b609880546001600160a01b0319166001600160a01b03928316179055609954604080516339f9615f60e01b8152905191909216916339f9615f916004808301926020929190829003018186803b15801561111657600080fd5b505afa15801561112a573d6000803e3d6000fd5b505050506040513d601f19601f8201168201806040525081019061114e919061233a565b609a80546001600160a01b0319166001600160a01b039283161790556099546040805163db43ccb560e01b81529051919092169163db43ccb5916004808301926020929190829003018186803b1580156111a757600080fd5b505afa1580156111bb573d6000803e3d6000fd5b505050506040513d601f19601f820116820180604052508101906111df919061233a565b609b80546001600160a01b0319166001600160a01b03929092169190911790558015611211576000805461ff00191690555b5050565b600090565b60026065541415611272576040805162461bcd60e51b815260206004820152601f60248201527f5265656e7472616e637947756172643a207265656e7472616e742063616c6c00604482015290519081900360640190fd5b600260658190555060008890506000816001600160a01b03166310474bb46040518163ffffffff1660e01b815260040160206040518083038186803b1580156112ba57600080fd5b505afa1580156112ce573d6000803e3d6000fd5b505050506040513d601f19601f820116820180604052508101906112f2919061233a565b90506000609960009054906101000a90046001600160a01b03166001600160a01b0316639038a3ce6040518163ffffffff1660e01b815260040160206040518083038186803b15801561134457600080fd5b505afa158015611358573d6000803e3d6000fd5b505050506040513d601f19601f8201168201806040525081019061137c919061233a565b905085816001600160a01b031663dd62ed3e33306040518363ffffffff1660e01b81526004016113ad9291906127fd565b60206040518083038186803b1580156113c557600080fd5b505afa1580156113d9573d6000803e3d6000fd5b505050506040513d601f19601f820116820180604052508101906113fd919061259d565b101561141b5760405162461bcd60e51b815260040161097b906129cc565b6114306001600160a01b0382163330896119c4565b604051636eb1769f60e11b81526000906001600160a01b0383169063dd62ed3e9061146190309088906004016127fd565b60206040518083038186803b15801561147957600080fd5b505afa15801561148d573d6000803e3d6000fd5b505050506040513d601f19601f820116820180604052508101906114b1919061259d565b141561153b5760405163095ea7b360e01b81526001600160a01b0382169063095ea7b3906114e79086906000199060040161283d565b602060405180830381600087803b15801561150157600080fd5b505af1158015611515573d6000803e3d6000fd5b505050506040513d601f19601f820116820180604052508101906115399190612541565b505b604051638500f56760e01b81526001600160a01b03831690638500f5679061156d908b908e908e908d90600401612856565b600060405180830381600087803b15801561158757600080fd5b505af115801561159b573d6000803e3d6000fd5b5050600160655550505050505050505050505050565b604051634064a0cf60e11b8152606090819030906380c9419e906115da906000906004016129c3565b60006040518083038186803b1580156115f257600080fd5b505afa158015611606573d6000803e3d6000fd5b505050506040513d6000823e601f3d908101601f1916820160405261162e919081019061247a565b60985460405163f10ed7a360e01b81529192506001600160a01b03169063f10ed7a39061165f908490600401612885565b60006040518083038186803b15801561167757600080fd5b505afa15801561168b573d6000803e3d6000fd5b505050506040513d6000823e601f3d908101601f191682016040526116b3919081019061250e565b50905090565b6099546001600160a01b031681565b6116d0611868565b6001600160a01b03166116e161080f565b6001600160a01b03161461173c576040805162461bcd60e51b815260206004820181905260248201527f4f776e61626c653a2063616c6c6572206973206e6f7420746865206f776e6572604482015290519081900360640190fd5b6001600160a01b0381166117815760405162461bcd60e51b8152600401808060200182810382526026815260200180612c436026913960400191505060405180910390fd5b6033546040516001600160a01b038084169216907f8be0079c531659141344cd1fd0a4f28419497f9722a3daafe3b4186f6b6457e090600090a3603380546001600160a01b0319166001600160a01b0392909216919091179055565b60975460405163fd7057f760e01b81526060916001600160a01b03169063fd7057f79061180e9085906004016127e9565b60006040518083038186803b15801561182657600080fd5b505afa15801561183a573d6000803e3d6000fd5b505050506040513d6000823e601f3d908101601f19168201604052611862919081019061247a565b92915050565b3390565b600061187730611a24565b15905090565b600054610100900460ff1680611896575061189661186c565b806118a4575060005460ff16155b6118df5760405162461bcd60e51b815260040180806020018281038252602e815260200180612c8f602e913960400191505060405180910390fd5b600054610100900460ff1615801561190a576000805460ff1961ff0019909116610100171660011790555b611912611a2a565b61191a611aca565b801561192c576000805461ff00191690555b50565b600054610100900460ff1680611948575061194861186c565b80611956575060005460ff16155b6119915760405162461bcd60e51b815260040180806020018281038252602e815260200180612c8f602e913960400191505060405180910390fd5b600054610100900460ff161580156119bc576000805460ff1961ff0019909116610100171660011790555b61191a611bc3565b604080516001600160a01b0380861660248301528416604482015260648082018490528251808303909101815260849091019091526020810180516001600160e01b03166323b872dd60e01b179052611a1e908590611c69565b50505050565b3b151590565b600054610100900460ff1680611a435750611a4361186c565b80611a51575060005460ff16155b611a8c5760405162461bcd60e51b815260040180806020018281038252602e815260200180612c8f602e913960400191505060405180910390fd5b600054610100900460ff1615801561191a576000805460ff1961ff001990911661010017166001179055801561192c576000805461ff001916905550565b600054610100900460ff1680611ae35750611ae361186c565b80611af1575060005460ff16155b611b2c5760405162461bcd60e51b815260040180806020018281038252602e815260200180612c8f602e913960400191505060405180910390fd5b600054610100900460ff16158015611b57576000805460ff1961ff0019909116610100171660011790555b6000611b61611868565b603380546001600160a01b0319166001600160a01b038316908117909155604051919250906000907f8be0079c531659141344cd1fd0a4f28419497f9722a3daafe3b4186f6b6457e0908290a350801561192c576000805461ff001916905550565b600054610100900460ff1680611bdc5750611bdc61186c565b80611bea575060005460ff16155b611c255760405162461bcd60e51b815260040180806020018281038252602e815260200180612c8f602e913960400191505060405180910390fd5b600054610100900460ff16158015611c50576000805460ff1961ff0019909116610100171660011790555b6001606555801561192c576000805461ff001916905550565b6060611cbe826040518060400160405280602081526020017f5361666545524332303a206c6f772d6c6576656c2063616c6c206661696c6564815250856001600160a01b0316611d1f9092919063ffffffff16565b805190915015611d1a57808060200190516020811015611cdd57600080fd5b5051611d1a5760405162461bcd60e51b815260040180806020018281038252602a815260200180612cbd602a913960400191505060405180910390fd5b505050565b6060611d2e8484600085611d36565b949350505050565b606082471015611d775760405162461bcd60e51b8152600401808060200182810382526026815260200180612c696026913960400191505060405180910390fd5b611d8085611a24565b611dd1576040805162461bcd60e51b815260206004820152601d60248201527f416464726573733a2063616c6c20746f206e6f6e2d636f6e7472616374000000604482015290519081900360640190fd5b60006060866001600160a01b031685876040518082805190602001908083835b60208310611e105780518252601f199092019160209182019101611df1565b6001836020036101000a03801982511681845116808217855250505050505090500191505060006040518083038185875af1925050503d8060008114611e72576040519150601f19603f3d011682016040523d82523d6000602084013e611e77565b606091505b5091509150611e87828286611e92565b979650505050505050565b60608315611ea1575081610808565b825115611eb15782518084602001fd5b8160405162461bcd60e51b81526004018080602001828103825283818151815260200191508051906020019080838360005b83811015611efb578181015183820152602001611ee3565b50505050905090810190601f168015611f285780820380516001836020036101000a031916815260200191505b509250505060405180910390fd5b6040805161010081018252606081526000602082018190529091820190815260200160008152602001600081526020016000815260200160001515815260200160006001600160a01b031681525090565b6040805161014081018252600080825260208201819052918101829052606081018290526080810182905260a0810182905260c0810182905260e08101829052610100810182905261012081019190915290565b6040518060800160405280600081526020016060815260200160608152602001606081525090565b6040518060e00160405280600081526020016000815260200160008152602001600081526020016000815260200160008152602001600081525090565b805161038481612c1f565b600082601f83011261205b578081fd5b815161206e61206982612bd5565b612bb1565b81815291506020808301908481018184028601820187101561208f57600080fd5b60005b848110156120b75781516120a581612c1f565b84529282019290820190600101612092565b505050505092915050565b600082601f8301126120d2578081fd5b81516120e061206982612bd5565b81815291506020808301908481018184028601820187101561210157600080fd5b6000805b8581101561212d5782516007811061211b578283fd5b85529383019391830191600101612105565b50505050505092915050565b600082601f830112612149578081fd5b815161215761206982612bd5565b818152915060208083019084810160005b848110156120b7578151870161016080601f19838c0301121561218a57600080fd5b61219381612bb1565b8583015167ffffffffffffffff8111156121ac57600080fd5b6121ba8c88838701016122b8565b82525060406121ca818501612040565b8783015260606121db8186016122a9565b828401526080915081850151818401525060a0808501518284015260c0915081850151818401525060e0808501518284015261010091508185015181840152506101208085015182840152610140915081850151818401525061223f838501612257565b90820152865250509282019290820190600101612168565b805161038481612c34565b60008083601f840112612273578182fd5b50813567ffffffffffffffff81111561228a578182fd5b6020830191508360208285010111156122a257600080fd5b9250929050565b80516005811061038457600080fd5b600082601f8301126122c8578081fd5b815167ffffffffffffffff8111156122dc57fe5b6122ef601f8201601f1916602001612bb1565b915080825283602082850101111561230657600080fd5b612317816020840160208601612bf3565b5092915050565b60006020828403121561232f578081fd5b813561080881612c1f565b60006020828403121561234b578081fd5b815161080881612c1f565b60008060408385031215612368578081fd5b823561237381612c1f565b9150602083013561238381612c34565b809150509250929050565b600080600080608085870312156123a3578182fd5b84356123ae81612c1f565b93506020850135925060408501356123c581612c34565b9396929550929360600135925050565b60008060008060008060008060e0898b0312156123f0578586fd5b88356123fb81612c1f565b975060208901359650604089013561ffff81168114612418578687fd5b9550606089013561242881612c1f565b9450608089013561243881612c1f565b935060a0890135925060c089013567ffffffffffffffff81111561245a578283fd5b6124668b828c01612262565b999c989b5096995094979396929594505050565b60006020828403121561248b578081fd5b815167ffffffffffffffff8111156124a1578182fd5b611d2e8482850161204b565b600080604083850312156124bf578182fd5b825167ffffffffffffffff808211156124d6578384fd5b6124e28683870161204b565b935060208501519150808211156124f7578283fd5b5061250485828601612139565b9150509250929050565b60006020828403121561251f578081fd5b815167ffffffffffffffff811115612535578182fd5b611d2e84828501612139565b600060208284031215612552578081fd5b815161080881612c34565b60006020828403121561256e578081fd5b81356001600160e01b031981168114610808578182fd5b600060208284031215612596578081fd5b5035919050565b6000602082840312156125ae578081fd5b5051919050565b600080600080608085870312156125ca578182fd5b8451935060208086015167ffffffffffffffff808211156125e9578485fd5b6125f589838a0161204b565b955060409150818801518181111561260b578586fd5b8801601f81018a1361261b578586fd5b805161262961206982612bd5565b8181528581019083870160808402850188018e101561264657898afd5b8994505b838510156126aa576080818f03121561266157898afd5b865160808101818110888211171561267557fe5b88528151815288820151898201528188015181890152606080830151908201528352600194909401939187019160800161264a565b5060608c01519098509550505050808311156126c4578384fd5b50506126d2878288016120c2565b91505092959194509250565b600080600080600080600060c0888a0312156126f8578081fd5b8735965060208801359550604088013561271181612c1f565b9450606088013561272181612c1f565b9350608088013561273181612c1f565b925060a088013567ffffffffffffffff81111561274c578182fd5b6127588a828b01612262565b989b979a50959850939692959293505050565b60008060006060848603121561277f578081fd5b8351925060208401519150604084015190509250925092565b600080604083850312156127aa578182fd5b823560ff811681146127ba578283fd5b946020939093013593505050565b6001600160a01b03169052565b15159052565b600581106127e557fe5b9052565b6001600160a01b0391909116815260200190565b6001600160a01b0392831681529116602082015260400190565b6001600160a01b0394909416845291151560208401526040830152606082015260800190565b6001600160a01b03929092168252602082015260400190565b6001600160a01b039485168152602081019390935261ffff919091166040830152909116606082015260800190565b6020808252825182820181905260009190848201906040850190845b818110156128c65783516001600160a01b0316835292840192918401916001016128a1565b50909695505050505050565b60208082528251828201819052600091906040908185019080840286018301878501865b8381101561062b57603f198984030185528151610100815181865280518083880152610120925061292c818489018d8501612bf3565b8a840151915061293e8b8801836127c8565b8984015191506129508a8801836127db565b606084810151908801526080808501519088015260a0808501519088015260c080850151909250612983838901826127d5565b5060e093840151939150612999878301856127c8565b978a0197601f01601f19169590950101935050908601906001016128f6565b901515815260200190565b90815260200190565b60208082526026908201527f4272696467654469737472696275746f723a204e6565642066756e64732061706040820152651c1c9bdd985b60d21b606082015260800190565b60208082526023908201527f4272696467654469737472696275746f723a204e6f74206120706f6c696379426040820152626f6f6b60e81b606082015260800190565b60208082526022908201527f4272696467654469737472696275746f723a20496e76616c696420636f766572604082015261125960f21b606082015260800190565b600060e082019050825182526020830151602083015260408301516040830152606083015160608301526080830151608083015260a083015160a083015260c083015160c083015292915050565b600061014082019050825182526020830151602083015260408301516040830152606083015160608301526080830151608083015260a0830151612b2c60a08401826127c8565b5060c0830151612b3f60c08401826127c8565b5060e083015160e083015261010080840151818401525061012080840151612b69828501826127c8565b505092915050565b918252602082015260400190565b92835260208301919091526001600160a01b0316604082015260600190565b60ff929092168252602082015260400190565b60405181810167ffffffffffffffff81118282101715612bcd57fe5b604052919050565b600067ffffffffffffffff821115612be957fe5b5060209081020190565b60005b83811015612c0e578181015183820152602001612bf6565b83811115611a1e5750506000910152565b6001600160a01b038116811461192c57600080fd5b801515811461192c57600080fdfe4f776e61626c653a206e6577206f776e657220697320746865207a65726f2061646472657373416464726573733a20696e73756666696369656e742062616c616e636520666f722063616c6c496e697469616c697a61626c653a20636f6e747261637420697320616c726561647920696e697469616c697a65645361666545524332303a204552433230206f7065726174696f6e20646964206e6f742073756363656564a26469706673582212206e565e2981addc24f08110b453f803d38b642c0a28ada343bd10be0a3230761e64736f6c63430007040033",
  "immutableReferences": {},
  "source": "// SPDX-License-Identifier: MIT\npragma solidity ^0.7.4;\n\npragma experimental ABIEncoderV2;\n\nimport \"@openzeppelin/contracts-upgradeable/access/OwnableUpgradeable.sol\";\nimport \"@openzeppelin/contracts-upgradeable/proxy/Initializable.sol\";\nimport \"@openzeppelin/contracts-upgradeable/utils/ReentrancyGuardUpgradeable.sol\";\nimport \"@openzeppelin/contracts-upgradeable/token/ERC20/IERC20Upgradeable.sol\";\nimport \"@openzeppelin/contracts-upgradeable/token/ERC20/SafeERC20Upgradeable.sol\";\nimport \"@openzeppelin/contracts/token/ERC20/SafeERC20.sol\";\n\nimport \"./interfaces/v2/IPolicyRegistryV2.sol\";\nimport \"./interfaces/v2/IPolicyBookRegistryV2.sol\";\nimport \"./interfaces/v2/IContractsRegistryV2.sol\";\nimport \"./interfaces/v2/IPolicyBookFabricV2.sol\";\nimport \"./interfaces/v2/IPolicyBookV2.sol\";\nimport \"./interfaces/v2/IPolicyQuoteV2.sol\";\nimport \"./interfaces/v2/IClaimingRegistryV2.sol\";\nimport \"../../IDistributor.sol\";\nimport \"../AbstractDistributor.sol\";\n\ncontract BridgeDistributorV2 is AbstractDistributor,\n    IDistributor,\n    Initializable,\n    OwnableUpgradeable,\n    ReentrancyGuardUpgradeable\n{\n    using SafeMath for uint256;\n    using SafeERC20Upgradeable for IERC20Upgradeable;\n\n\n    IPolicyRegistryV2 public policyRegistry;\n    IPolicyBookRegistryV2 public policyBookRegistry;\n    IContractsRegistryV2 public contractsRegistry;\n    IClaimingRegistryV2 public claimRegistry;\n    IPolicyQuoteV2 public policyQuote;\n\n\n    struct PolicyInfo {\n        uint256 policiesCount;\n        address[] polBooksArr;\n        IPolicyRegistryV2.PolicyInfo[] policiesInfo;\n        IClaimingRegistryV2.ClaimStatus[] status;\n    }\n\n    function __BridgeDistributorV2_init(\n                address _contractsRegistry\n        ) public initializer {\n        __Ownable_init();\n        __ReentrancyGuard_init();\n        contractsRegistry = IContractsRegistryV2(_contractsRegistry);\n        policyRegistry = IPolicyRegistryV2(contractsRegistry.getPolicyRegistryContract());\n        policyBookRegistry = IPolicyBookRegistryV2(contractsRegistry.getPolicyBookRegistryContract());\n        claimRegistry = IClaimingRegistryV2(contractsRegistry.getClaimingRegistryContract());\n        policyQuote = IPolicyQuoteV2(contractsRegistry.getPolicyQuoteContract());\n    }\n\n    function getCoverCount(address _userAddr, bool _isActive)\n        external view  override\n        returns (uint256){\n        uint256 _ownersCoverCount = policyRegistry.getPoliciesLength(_userAddr);\n\n        PolicyInfo memory pol;\n           (pol.policiesCount,\n            pol.polBooksArr,\n            pol.policiesInfo,\n            pol.status) = policyRegistry.getPoliciesInfo(_userAddr, _isActive, 0, _ownersCoverCount);\n        return pol.policiesCount;\n    }\n\n    function getCover(address _userAddr, uint256 _coverId, bool _isActive, uint256 _limitLoop) external view override\n         returns(IDistributor.Cover memory) {\n\n           uint256 _ownersCoverCount = policyRegistry.getPoliciesLength(_userAddr);\n\n            PolicyInfo memory pol;\n           (pol.policiesCount,\n            pol.polBooksArr,\n            pol.policiesInfo,\n            pol.status) = policyRegistry.getPoliciesInfo(_userAddr, _isActive, 0, _ownersCoverCount);\n\n            require(_coverId < pol.policiesCount,\"BridgeDistributor: Invalid coverId\");\n\n            uint256 limit = 0;\n                if(pol.policiesCount > _limitLoop){\n                    limit = _limitLoop;\n                }else{\n                    limit = pol.policiesCount;\n                }\n\n            IDistributor.Cover[] memory userCovers = new IDistributor.Cover[](limit);\n\n            for(uint coverId = 0 ;coverId < limit; coverId++){\n\n                  IDistributor.Cover memory cover;\n                  cover.contractAddress = pol.polBooksArr[coverId];\n                  cover.coverAmount = pol.policiesInfo[coverId].coverAmount;\n                  cover.premium = pol.policiesInfo[coverId].premium;\n                  cover.productId = pol.policiesInfo[coverId].startTime;\n                  cover.expiration = pol.policiesInfo[coverId].endTime;\n                  cover.status = uint256(pol.status[coverId]);\n                  userCovers[coverId] = cover;\n            }\n            return userCovers[_coverId];\n    }\n\n    function getPoliciesArr(address _userAddr)\n        external\n        view\n        returns (address[] memory _arr){\n        return policyRegistry.getPoliciesArr(_userAddr);\n    }\n\n\n    function getQuote(\n        uint256 _bridgeEpochs,\n        uint256 _amountInWei,\n        address _bridgeProductAddress,\n        address _buyerAddress,\n        address _interfaceCompliant2,\n        bytes calldata _interfaceCompliant3\n    ) external view override returns (\n        IDistributor.CoverQuote memory\n    ){\n\n        bool isPolicyBook = policyBookRegistry.isPolicyBook(_bridgeProductAddress);\n        require(isPolicyBook == true, \"BridgeDistributor: Not a policyBook\");\n\n        IPolicyBookV2 policyBook = IPolicyBookV2\n        (_bridgeProductAddress);\n\n        IDistributor.CoverQuote memory coverQuote;\n       (coverQuote.prop1, // totalSeconds, totalPrice\n        coverQuote.prop2,\n        coverQuote.prop3)= policyBook.getPolicyPrice(_bridgeEpochs, _amountInWei, _buyerAddress);\n        coverQuote.prop4  = policyBook.totalLiquidity();\n        coverQuote.prop5 = policyBook.totalCoverTokens();\n        //coverQuote.prop5  = policyQuote.getQuote(coverQuote.prop1,coverQuote.prop2, policyBook); //get price in DAI?\n\n         address[] memory policyBookArr = new address[](1);\n          policyBookArr[0]  = _bridgeProductAddress;\n          //(IPolicyBookRegistry.PolicyBookStats[] memory _stats) = policyBookRegistry.stats(policyBookArr);\n          //coverQuote.prop6  = _stats[0].maxCapacity;\n\n        return coverQuote;\n    }\n\n\n    function buyCover (\n        address _bridgeProductAddress,\n        uint256 _epochsNumber,\n        uint16  _sumAssured,\n        address _buyerAddress,\n        address _treasuryAddress,\n        uint256 _premium,\n        bytes calldata _interfaceCompliant4\n    ) external payable nonReentrant {\n\n        // get payable contract address\n        IPolicyBookV2 policyBook = IPolicyBookV2(_bridgeProductAddress);\n        IPolicyBookFacadeV2 policyBookFacade = policyBook.policyBookFacade();\n\n        address stblToken = contractsRegistry.getUSDTContract();\n\n        // Check previous allowance\n        require(IERC20Upgradeable(stblToken).allowance(msg.sender, address(this)) >= _premium, \"BridgeDistributor: Need funds approval\");\n\n        // transfer erc20 funds to this contract\n        IERC20Upgradeable(stblToken).safeTransferFrom(msg.sender, address(this), _premium);\n       if (IERC20Upgradeable(stblToken).allowance(address(this), address(policyBook)) == uint256(0)) {\n           //safe as this contract has no funds stored & will be called once only\n           IERC20Upgradeable(stblToken).approve(address(policyBook), MAX_INT);\n        }\n        // buy policyBookFacade\n        policyBookFacade.buyPolicyFromDistributorFor(_buyerAddress,_epochsNumber,_sumAssured, _treasuryAddress);\n    }\n\n    function listWithStats(uint8 _offset, uint256 _limitLoop) external view\n        returns (PolicyCatalog[] memory) {\n\n        uint256 count = policyBookRegistry.count();\n\n        uint256 limit = 0;\n                if(count > _limitLoop){ limit = _limitLoop;\n                } else { limit = count; }\n\n        (address[] memory _policyBooks,\n         IPolicyBookRegistryV2.PolicyBookStats[] memory _stats) = policyBookRegistry.listWithStats(_offset, count);\n\n         PolicyCatalog[] memory catalogList;\n         PolicyCatalog memory catalog;\n\n         for(uint8 i = 0; i < limit; i++){\n               catalog.name = _stats[i].symbol;\n               catalog.insuredContract = _stats[i].insuredContract;\n               catalog.maxCapacity = _stats[i].maxCapacity;\n               catalog.totalDaiLiquidity = _stats[i].totalSTBLLiquidity;\n               catalog.APY = _stats[i].APY;\n               catalog.whitelisted = _stats[i].whitelisted;\n               catalog.policyAddress = _policyBooks[i];\n               catalogList[i] = catalog;\n         }\n         return catalogList;\n    }\n\n\n\n    struct PolicyCatalog {\n                    string name;\n                    address insuredContract;\n                    IPolicyBookFabricV2.ContractType contractType;\n                    uint256 maxCapacity;\n                    uint256 totalDaiLiquidity;\n                    uint256 APY;\n                    bool whitelisted;\n                    address policyAddress;\n    }\n\n\n    function list(uint256 _offset)\n        external\n        view\n        returns (address[] memory _policyBooks){\n            uint limit = policyBookRegistry.count();\n            return policyBookRegistry.list( _offset, limit);\n        }\n\n    function stats() public view returns(address[] memory)  {\n         address[] memory _policyBooks = this.list(0);\n         policyBookRegistry.stats(_policyBooks);\n         return _policyBooks;\n    }\n\n    function supportsInterface(bytes4 interfaceId) public view override returns (bool) {\n         return interfaceId == type(IDistributor).interfaceId;\n    }\n\n    function addressCero() external view returns (address){\n        return address(0);\n    }\n\n}\n",
  "sourcePath": "/Users/danielguerrero/workspace/BRIGHT/distributors/contracts/distributors/bridge/BridgeDistributorV2.sol",
  "compiler": {
    "name": "solc",
    "version": "0.7.4+commit.3f05b770.Emscripten.clang"
  },
  "schemaVersion": "3.4.3",
  "updatedAt": "2022-02-23T17:14:45.162Z",
  "networkType": "ethereum",
  "devdoc": {
    "kind": "dev",
    "methods": {
      "owner()": {
        "details": "Returns the address of the current owner."
      },
      "renounceOwnership()": {
        "details": "Leaves the contract without owner. It will not be possible to call `onlyOwner` functions anymore. Can only be called by the current owner. NOTE: Renouncing ownership will leave the contract without an owner, thereby removing any functionality that is only available to the owner."
      },
      "supportsInterface(bytes4)": {
        "details": "Returns true if this contract implements the interface defined by `interfaceId`. See the corresponding https://eips.ethereum.org/EIPS/eip-165#how-interfaces-are-identified[EIP section] to learn more about how these ids are created. This function call must use less than 30 000 gas."
      },
      "transferOwnership(address)": {
        "details": "Transfers ownership of the contract to a new account (`newOwner`). Can only be called by the current owner."
      }
    },
    "version": 1
  },
  "userdoc": {
    "kind": "user",
    "methods": {},
    "version": 1
  }
}